:100000000C9445020C9462020C9462020C946202FD
:100010000C9462020C9462020C9462020C946202D0
:100020000C9462020C9462020C94331E0C94051F13
:100030000C9438190C9462020C9462020C946202C3
:100040000C9462020C9462020C9462020C946202A0
:100050000C9462020C9491190C9462020C9462024A
:100060000C9462020C9462020C9462020C94620280
:100070000C9462020C9462020C9462020C94620270
:100080000C9462020C9462020C9462020C94620260
:100090000C9462020C9462020C9462020C94620250
:1000A0000C9462020C9462020C9462020A0E0A0E14
:1000B0003C0E3C0E850E2310BE0F2310A70E420FE0
:1000C000540F540FB50F231023101D10CA0FEB0F40
:1000D000D20FD50FDE0FDA0FE30FDE10DE10F010B7
:1000E000F010E710F010F010F010DE10DE10EC1041
:1000F000F010F010EC10721F991F9120991F9120A1
:10010000E51F082091205F206E2029001E001F009F
:1001100020002100220023002400250026002700C3
:100120002A002B0014001A000800150017001C00FC
:1001300018000C00120013003100390004001600F2
:10014000070009000A000B000D000E000F0033002D
:100150003400E1001D001B0006001900050011001D
:1001600010003600370038612E003500E000E20054
:100170002F003000000000005000520051004F00DE
:100180002D0065004D002C002A004A00E300A90064
:100190004C0028002C000158AA0001003A003B0046
:1001A0003C003D003E003F00400041004200430053
:1001B000440001001E021F022F02300231025200D1
:1001C000240025002600250245000100200221020E
:1001D00026022702350051002100220023002E02B2
:1001E00001000100220223022F0030003502240208
:1001F0001E001F00200031000100005C0100010012
:1002000001000100000000000100370027002E005F
:1002100001000100010001000100010001000100D6
:1002200001000100010001000100010001000100C6
:1002300001000100010001000100010001000100B6
:100240000100010001000100ED00010001000100BA
:100250000100010001000100010001000100EF00A8
:10026000EE00F000010001000100010001000100AA
:10027000AE000100010001000100010001000100C9
:100280000100AC00AB000100010001000100010011
:10029000F100F20000000000A900AA00A80001007F
:1002A0000100010001000100010001000100010046
:1002B0000100B60001000100010000000000000084
:1002C00000002A2B280000000000000000000000B1
:1002D000000000000029000000002C1E3420212214
:1002E00024342627252E362D3738271E1F2021227D
:1002F000232425263333362E37381F0405060708F6
:10030000090A0B0C0D0E0F101112131415161718E5
:10031000191A1B1C1D2F3130232D35040506070823
:10032000090A0B0C0D0E0F101112131415161718C5
:10033000191A1B1C1D2F3130354C00000000000025
:1003400000000000000000000000000000000000AD
:1003500000000000000000000000000000007E0F10
:1003600000D4FFFFFFC7000000780E0344006100C7
:100370006300740079006C00000010034100640009
:100380006500720065007400680000000403090441
:1003900009023B00020100A0FA0904000001030168
:1003A0000100092111010001224000070581030815
:1003B000000A0904010001030000000921110100E5
:1003C00001226D000705820320000A1201100100BE
:1003D000000008EDFE0813010001020001050109FB
:1003E00080A101850319012AB700150126B70095E0
:1003F0000175108100C0050C0901A10185041901D6
:100400002AA002150126A002950175108100C005E1
:10041000010906A1018505050719E029E715002551
:10042000019508750181020507190029EF150025BE
:100430000195F075018102050819012905950575D9
:10044000019102950175039101C005010906A10101
:10045000050719E029E715002501950875018102B6
:100460009501750881010507190029FF150026FF70
:10047000009506750881000508190129059505757F
:10048000019102950175039101C011241FBECFEFA8
:10049000DAE0DEBFCDBF12E0A0E0B1E0EEE1F2E4D1
:1004A00002C005900D92A432B107D9F723E0A4E26F
:1004B000B2E001C01D92A334B207E1F70E946B1BAA
:1004C0000C940D210C9400001092B9008AE08093E6
:1004D000B800089594EA9093BC009091BC0097FFF7
:1004E000FCCF9091B900987F983021F0903111F0B5
:1004F00081E008958093BB0084E88093BC008091E4
:10050000BC0087FFFCCF8091B900887F883111F053
:10051000803471F780E0089584E98093BC00809175
:10052000BC0084FDFCCF08958093BB0084E88093D9
:10053000BC008091BC0087FFFCCF9091B900987FF0
:1005400081E0983209F480E0089584E88093BC004B
:100550008091BC0087FFFCCF8091BB00089590E0A4
:10056000FC01ED5EFE4F2081211118C0FC01E15E0F
:10057000FE4F8081E82FE295EF70F0E031A1282F47
:100580002F7081E090E001C0880F2A95EAF7982F3C
:100590009095932391A392A1892B82A30895089506
:1005A0000C94CF020C94D0020C94CF0280912602BE
:1005B00081110BC00E9464022FEF83ED90E3215064
:1005C00080409040E1F700C000008091290388231B
:1005D00041F080E40E946A0280932803811145C0A3
:1005E00013C0EDE0F1E041E050E09A01019002C05B
:1005F000220F331F0A94E2F7822B21E0E331F20746
:10060000A1F780932903E5CF80E00E9494028093B4
:10061000280381112AC00E9494028093280381112B
:1006200024C0809129030E949402809328038111A1
:100630001CC00E948C0280E40E946A0280932803FE
:10064000811113C08CE00E949402809328038111D1
:100650000CC00E94940280932803811106C08091EF
:1006600029030E949402809328030C948C02CF9358
:100670000E94D602C0E08C2F0E94AF02CF5FCC3028
:10068000D1F7ABE2B1E041E050E08D91E82FE29587
:10069000EF70F0E021A18F70BA0102C0660F771FE2
:1006A0008A95E2F7CB01962F9095922391A392A180
:1006B000892B82A371E0A133B70739F7E4E3F2E0B5
:1006C000A8E2B2E080E492E0119211921D921D9294
:1006D0008E179F07C9F7CF910C9451055F926F92C7
:1006E0007F928F929F92AF92BF92CF92DF92EF92C2
:1006F000FF920F931F93CF93DF938091280388235A
:1007000049F0809127028F5F80932702811102C0F8
:100710000E94D60283E1C82E81E0D82E9FE1E92E07
:1007200091E0F92EC0E0D0E001E010E055245394B0
:10073000BC2EAC2EF60181916F01882301F18091CE
:100740002803811132C080E40E946A02809328034A
:10075000811112C082E10E949402809328038111CA
:100760000BC0C8010C2E01C0880F0A94EAF78095CF
:100770000E949402809328030E948C0216C0F70105
:100780008081E82FE295EF70F0E021A18F70A80141
:1007900002C0440F551F8A95E2F7CA01922F982B89
:1007A00091A392A18095892382A350EA5A95F1F7EB
:1007B00085E08B1518F18091280381117FC080E4BA
:1007C0000E946A0280932803882311F0812C11C0B3
:1007D00083E10E949402809328038111F7CF81E482
:1007E0000E946A02809328038111F0CF0E94A50223
:1007F000882E0E948C02882D809521C0EBE2F1E0CA
:1008000040E050E080E09191A92FA295AF70B0E058
:1008100090962C9130E09F7002C0359527959A955F
:10082000E2F720FD07C09801042E01C0220F0A94B0
:10083000EAF7822B4F5F5F4F4630510521F7A80141
:1008400002C0440F551FAA94E2F73A0160947094D5
:10085000E8E2F2E020E030E0A12C882E912CDF01CC
:1008600080819181B401022E02C0759567950A942A
:10087000E2F760FF04C0BC01642B752B03C0BC0110
:10088000662177217183608332966D917C91861702
:10089000970711F0AA24A3942F5F3F4F263031050C
:1008A000F1F68B2D0E94AF02AA2041F05092400237
:1008B0000E946A1990934202809341022196EFEFC1
:1008C000EE1AFE0ACC30D10509F032CF80914002F9
:1008D0008823B9F080914102909142020E948219CE
:1008E000409778F0E8E2F2E0A4E3B2E084E392E03B
:1008F000219131912D933D938E179F07C9F7109247
:1009000040020E945B0581E0DF91CF911F910F9122
:10091000FF90EF90DF90CF90BF90AF909F908F901F
:100920007F906F905F900895E82FF0E0EE0FFF1F2B
:10093000EC5CFD4F80819181089508959C013A956A
:1009400021153F4138F5DC01AA27B270AC014427DC
:1009500054709C012227387094FF0FC090FF02C092
:1009600080E101C080E0AB2B09F08062452B09F0EB
:100970008064232B69F080680BC0892F8170AB2BBA
:1009800009F08260452B09F08460232B09F0886010
:10099000FB0109940895CF93DF93EC01805E9109E8
:1009A000089710F0209719F461EC7DE002C068EA26
:1009B00070E1CE010E949E048C2FDF91CF910C94A8
:1009C000270DCF93DF93EC010E94750DCE01805E61
:1009D0009109089710F0209719F468EC7DE002C0A7
:1009E0006FEA70E1CE01DF91CF910C949E04CF931A
:1009F000DF93EC010E94CB04CE01DF91CF910C94E8
:100A0000E10481E0089581E008950C9403050895C0
:100A10000C9407051F93CF93DF9300D000D01F9253
:100A2000CDB7DEB749835A836B8330916E028981DB
:100A30009A81311114C0662359F0222349F00E9493
:100A40001716182F682F89819A810E94C01503C03C
:100A50000E94EB15182F69817A81812F04C00E94B2
:100A6000171669817A810F900F900F900F900F9059
:100A7000DF91CF911F910C943406FC01262F408109
:100A800051816281738184810C940A05CF93DF9335
:100A9000EC0160E00E943D05BE01DF91CF910C9416
:100AA00008050E947617811102C00E941D180E943D
:100AB0005F080C94D2020C94D40208950E94CC10CA
:100AC0000E945D052FEF84E39CE021508040904020
:100AD000E1F700C000000C94B7190F931F93CF9358
:100AE000DF93EC0161E00E943D058C01BE010E9494
:100AF0000505882379F1BE01C8010E94E708882313
:100B000049F1BE01C8010E947809882319F1BE018C
:100B1000C8010E94CA098823E9F0BE01C8010E94E9
:100B2000F50A8823B9F08A81882369F001158CE5DC
:100B3000180731F00F3D1C4531F40E941D180AC002
:100B40000E945E0507C0CE01DF91CF911F910F91EA
:100B50000C94010580E0DF91CF911F910F910895D2
:100B6000DF92EF92FF920F931F93CF93DF93E82FC3
:100B7000F0E0E654FD4FD490282F26952695269533
:100B800030E0F901E65AFC4F0491877010E0082E1E
:100B900002C0159507950A94E2F701701127F90133
:100BA000E65BFC4FE490F12C082E02C0F594E7942C
:100BB0000A94E2F791E0E922FF24F901E65CFC4F98
:100BC000C491D0E002C0D595C7958A95E2F7C1706F
:100BD000DD270115110519F081EE0E94270DE114A2
:100BE000F10419F086EE0E94270D8D2D0E94B80D9C
:100BF000EF2819F086EE0E94750D012B19F081EE99
:100C00000E94750DCD2B51F08CE2DF91CF911F9199
:100C10000F91FF90EF90DF900C94B80DDF91CF9182
:100C20001F910F91FF90EF90DF900895982F9F7084
:100C30009A50963010F0805D01C0895A0C94B0052E
:100C400008950C94200681E008950C942306CF9318
:100C5000C82F0E9421068C2F0E942506CF9108954F
:100C600080E090E00895089528E4829FC001112457
:100C7000FC012CE0729FE00DF11D1124E60FF11D27
:100C8000EE0FFF1FE65FFE4F859194910895880F48
:100C9000991FFC01E659FC4F859194910895CF93DB
:100CA000DF930E9434060E947307EC01811521E551
:100CB0009207E8F5811540E5940708F0BCC0883E2E
:100CC000910500F5803E910508F009C1883A91052B
:100CD00070F4853A910508F088C08130910509F4D7
:100CE000FEC008F4FAC0049708F0F9C0F6C08F3BC4
:100CF000910508F482C0803C910508F4EEC0805C48
:100D0000910988C0C11580E3D80758F4C11520E2C5
:100D1000D20708F07DC0C11541E0D40708F0DFC05C
:100D2000DCC0C11580E4D80708F082C077C0811507
:100D300026E5920770F5811545E5940708F0B1C0E6
:100D4000C11583E5D80750F4C11522E5D20708F094
:100D50008DC0DC2FCC27C16FD06AC1C0C11544E55E
:100D6000D40708F099C0CE018370992721E030E0C4
:100D700002C0220F331F8A95E2F78C2F8695869545
:100D800040E2849FC0011124E901C82BD92BDA6805
:100D9000A6C0C1158AE5D80778F4C11529E5D207A0
:100DA00008F088C0C11548E5D40708F496C0DC2FC8
:100DB000CC27C06FD06A93C0C1158BE5D80708F463
:100DC0008CC0C1152CE5D20708F484C0CE01905622
:100DD0008115904208F081C08D2F8F710E94070805
:100DE000DD27D0628F71D82B7AC0C55AD0E0C151AF
:100DF000DE4FC881D0E0D06472C0C85AD0E0CC0FBA
:100E0000DD1FCF53DE4F0990D881C02DD46467C059
:100E1000CE019F700E944706EC0161C0CE01992768
:100E2000D3FF03C0EC01D86C5AC0EC01D06C57C0A2
:100E3000DF70D06A54C074E0969587957A95E1F793
:100E400083709C2F937021E030E002C0220F331F8B
:100E50009A95E2F73C68382BCF70C695C69580E22C
:100E6000C89FE0011124C22BD32B39C0CE0183705F
:100E7000992721E030E002C0220F331F8A95E2F764
:100E80008C2F8695869540E2849FC0011124E9014C
:100E9000C82BD92BDC6823C0DC2FCC27C46FD06AC9
:100EA0001EC00E9407088F71C82FD0E0DC2FCC270E
:100EB000D06215C08C2F8F700E94070894E0D695E1
:100EC000C7959A95E1F7CF70D0E0DC2FCC27D06999
:100ED000C82B05C0DD27D06602C0C0E0D0E0CE013F
:100EE000DF91CF9108958238910569F1B0F4813393
:100EF000910509F46DC048F48932910509F463C085
:100F00008A32910509F469C008958533910509F481
:100F100055C089339105B9F00895833E910569F173
:100F200038F4803E9105B1F0823E910509F10895B3
:100F3000863E9105A9F1873E9105B9F1843E910560
:100F400009F064C023C02091340320FD4FC021FD6F
:100F50004DC008958091340380FD44C080913503D5
:100F600080FF44C08091340384FD42C083EE4DC0B5
:100F70008091340382FF38C0F5CF8091340382FD25
:100F800033C08091350380FD31C0ECCF80913503B3
:100F900081FF32C08091340384FD2AC087EE35C0C2
:100FA0008091340383FF26C0F5CF8091340383FD05
:100FB00021C08091350381FD1FC0ECCF80913403A7
:100FC00085FD1CC01DC08091340385FD19C016C06D
:100FD0008091340386FD16C017C08091340386FDCE
:100FE00013C010C089E311C082EE0FC080EE0DC0A7
:100FF00080E00BC086EE09C084EE07C089E205C020
:1010000085E303C08AE201C081E390E008959091F6
:10101000340392FF0DC0282F2871283019F4877FE0
:10102000846006C0282F2471243011F48B7F8860DF
:1010300093FF0DC0282F2871283119F4877E846111
:1010400006C0282F2471243111F48B7E88612091F1
:10105000350320FF0DC0382F3871383019F4877FE1
:10106000816006C0382F3171313011F48E7F886075
:1010700021FF0DC0282F2871283119F4877E816146
:1010800006C0282F2171213111F48E7E886194FDD4
:10109000877E0895CF93DF9397FF0DC0FB012281D8
:1010A000222349F0EC010E947508CE019F770E942F
:1010B000CC080E94AE0881E0DF91CF9108958CE0CA
:1010C00090E00E94CB2090E0A0E0B0E080932A0363
:1010D00090932B03A0932C03B0932D03089560915C
:1010E0002A038CE090E00C94D9200E94370B86955F
:1010F000817080932F0390912A03913029F48823E3
:1011000019F089E30E94B80D0E94C01680932E0347
:101110000E94D31680912A03813071F048F082300A
:1011200081F08430A1F486EE0E94B80D88E10DC0F4
:1011300082EE0E94270D0BC088E193E00E94F70425
:1011400006C082EE0E94270D87E50E94B80D8FE34E
:101150009CE90197F1F700C00000089580912A03EF
:10116000813039F078F0823069F0843089F488E297
:101170000DC08CE20E94B80D80912F03882341F0AE
:1011800089E304C082EE0E94750D02C00E94B80D72
:1011900080912E030C94D0160F931F93CF93DF935F
:1011A0008C01CCE0D0E0C8010C2E02C0969587954A
:1011B0000A94E2F78F700E9416062497CC3F8FEFB7
:1011C000D80789F7DF91CF911F910F9108950F9361
:1011D0001F93CF93DF93EC018B01FB018281882366
:1011E00061F00E94C016CE01825E9C45853091055B
:1011F00020F480932A030E946F08B801CE01DF918A
:10120000CF911F910F910C944A080F931F93CF9386
:10121000DF93C42FD22FFC0182818823C9F0409331
:1012200045020E946A19909344028093430280E22F
:101230008C0F883008F057C0C77081E001C0880F5C
:10124000CA95EAF7DF91CF911F910F910C94C10DD0
:1012500080914502481330C080914302909144022E
:101260000E948219883C910538F510E21D0FCD17B8
:10127000B9F080E28C0F883040F4C77081E001C083
:10128000880FCA95EAF70E94C80D183028F581E04A
:101290009D2F977001C0880F9A95EAF70E94C10DA3
:1012A000802F0E94B80D1830F0F4D77081E001C093
:1012B000880FDA95EAF70AC080E28C0F883098F43C
:1012C000C77081E001C0880FCA95EAF7DF91CF911E
:1012D0001F910F910C94C80D802FDF91CF911F911A
:1012E0000F910C94B80DDF91CF911F910F9108953C
:1012F0000F939C01CB01243F4CE5340731F188F476
:10130000293DFCE53F07D9F02A3D4CE5340779F14A
:10131000283D3C45A9F506E221EE41EE68ED7CE56D
:101320002BC0263FFCE53F07E1F0A8F0273F3C45F6
:1013300039F507E225EE46EE67EF7CE51DC007E2D2
:1013400025EE45EE69ED7CE517C006E221EE40EEA4
:1013500064EF7CE511C007E225EE44EE65EF7CE525
:101360000BC006E221EE42EE66EF7CE505C008E226
:1013700021E045EE6AED7CE50E94050980E008C0A9
:10138000FC018281882319F01092450201C081E09E
:101390000F910895CF93DF93EC01FB0182818823A5
:1013A00009F41FC1C230FCE5DF0708F41BC1C631D8
:1013B0009CE5D90738F09E012B5F3C45293031056B
:1013C00008F010C10E94891790933503809334036D
:1013D000C031ECE5DE0709F4C3C008F041C0C830F5
:1013E0008CE5D80709F49AC0F0F4C430ECE5DE07C8
:1013F00009F487C068F4C2308CE5D80709F477C0D7
:10140000C330DC4509F0E3C080913403826076C0CC
:10141000C630ECE5DE0709F46EC008F07BC08091B1
:10142000340388606BC0CC308CE5D80709F485C0E4
:1014300068F4CA30ECE5DE0709F474C008F079C03E
:101440000E94CC1080913403806858C0CE308CE567
:10145000D80709F476C008F07FC0809134038BC0B0
:10146000CC3FECE5DE0709F44FC018F5C3318CE53D
:10147000D80709F47DC078F4C131ECE5DE0709F442
:1014800073C0C231DC4509F0A2C00E94CC1080912B
:1014900034038F7733C0C5318CE5D80709F472C0A7
:1014A00008F486C0CB3FDC4509F091C0809135033C
:1014B0003EC0C115FDE5DF0709F45FC058F4CE3F1B
:1014C0009CE5D90709F444C008F43FC08091350376
:1014D00082602DC0C230FDE5DF0709F475C008F455
:1014E0005DC0C330DD4509F072C080E06EC0809100
:1014F0003403816003C0809134038061809334039E
:1015000066C08091340311C080913503826080935E
:1015100035035DC0809134038062F0CF8091340345
:101520008064ECCF8091340388608460E7CF816071
:10153000EECF809134038E7FE1CF809134038D7F95
:10154000DDCF80913403877FD9CF8091350318C0D8
:10155000809135038D7FDBCF809134038F7ECECF9A
:10156000809134038F7DCACF809134038F7BC6CFA7
:1015700080913403877F8B7FC1CF809135038D7F2E
:101580008E7FC5CF8091340382FB222720F991E022
:10159000922790FB82F990FB83F9B0CF80913503BD
:1015A000982F909591708E7F892B90FB81F9AFCF0A
:1015B0000E94CC108091340387FB222720F991E010
:1015C000922790FB87F99ACF81E00E941F188091A3
:1015D0003403909135030E949A170E94CC1080E04A
:1015E00001C081E0DF91CF910895CF93DF938631E1
:1015F0009C4541F5EB010E94C016982F8A812091ED
:10160000000130910101882379F09A7A81E009F490
:1016100080E080934602911102C069E201C065E357
:10162000C9010E94BA180AC080914602811102C005
:1016300069E201C065E3C9010E94C5180E94111743
:1016400080E001C081E0DF91CF91089590934C023A
:1016500080934B020895E0914B02F0914C02309739
:1016600021F00190F081E02D099480E00895E0914F
:101670004B02F0914C02309711F480E008950190F4
:10168000F081E02D09950895E0914B02F0914C0214
:10169000309799F020910C01222359F020913403C6
:1016A00027FF07C0DC012C9111962C93119725E0A0
:1016B0002C930280F381E02D099408952091490232
:1016C00030914A022817390771F090934A028093AB
:1016D0004902E0914B02F0914C02309721F00680D4
:1016E000F781E02D09940895209147023091480236
:1016F0002817390771F09093480280934702E091D0
:101700004B02F0914C02309721F00084F185E02DDE
:10171000099408950E94761960935E0270935F02A7
:10172000809360029093610260935A0270935B020F
:1017300080935C0290935D02089585B7806885BFB1
:1017400085B7806885BF089581E008950C94A40B47
:1017500008950C94A80B0C94A80B0C94AB0B0C9450
:10176000A80B0C94AF0B0C94A80B0E949D0B84E764
:1017700097E10E94E9190E94B30B0C94B10B0E94EF
:1017800061190E9437030E94EE190C94AD0B6F9201
:101790007F928F929F92AF92BF92CF92DF92EF9201
:1017A000FF920F931F93CF93DF93CDB7DEB72A97A6
:1017B0000FB6F894DEBF0FBECDBF0E94A90B0E94EA
:1017C000A80B0E946E0381110E948A0B3EE4832EB7
:1017D00032E0932E00E010E0C02E802F0E9494048F
:1017E0005C01F401619071904F01682679266114C3
:1017F0007104B1F40F5F1F4F0630110569F78FEFC9
:1018000089838A831B820E946A198160782F9D8355
:101810008C8349815A816B818D810E94CD0C3AC0A5
:101820008091040381FD0E949D04D12CEE24E39459
:10183000F12CC3018E219F21892B29F10E94A60B37
:101840008823A9F0DE82CF82AE20BF2081E0AB28C2
:1018500009F480E088870E946A198160782F9A874E
:1018600089874E815F8168858A850E94CD0C000F33
:10187000111FF801E25BFD4F80819181E826F92676
:10188000F182E08207C0D394EE0CFF1CFCE0DF1273
:10189000D0CFB0CF0E942B0B90914D028917D1F081
:1018A0000E942B0B80934D022A960FB6F894DEBF50
:1018B0000FBECDBFDF91CF911F910F91FF90EF90A1
:1018C000DF90CF90BF90AF909F908F907F906F9060
:1018D0000C9427062A960FB6F894DEBF0FBECDBF34
:1018E000DF91CF911F910F91FF90EF90DF90CF90FC
:1018F000BF90AF909F908F907F906F900895DC0184
:1019000011962C9111979C91492F50E061E070E065
:10191000FB0102C0EE0FFF1F9A95E2F7CF0112966E
:101920006C91129730E0662329F060917002662373
:1019300031F10BC0F901EE0FFF1FEE59FD4F608131
:10194000718168237923672BD1F06CE0629FF001ED
:10195000639FF00D1124E40FF51FEE0FFF1FEF5CE6
:10196000FE4F408151814D935C93220F331FF9014B
:10197000EE59FD4F20813181822B932B0BC0220F1A
:10198000331FF901EE59FD4F8095909520813181EB
:1019900082239323918380830895CF93DF93CDB7E0
:1019A000DEB72B970FB6F894DEBF0FBECDBF4F83C7
:1019B000588769877A878B8761110E94E3169F8118
:1019C00088852A853B85232B31F08F3F31F481E0D8
:1019D0009F3F19F403C081E001C080E080FD04C096
:1019E000CE0107960E947F0CDE01119686E0FD0174
:1019F00011928A95E9F785E0FE01379601900D92E4
:101A00008A95E1F749815A816B817C818D819E8124
:101A10000E9485132B960FB6F894DEBF0FBECDBF84
:101A2000DF91CF910895FC01808191810E94591628
:101A300092959F70963051F4863F41F080917002EC
:101A400091E089278093700290936F020895CF935D
:101A5000882309F448C0C82F8CEF8C0F813AD0F44A
:101A60006C2F80910001909101010E943A18882307
:101A700049F06C2F80910001909101010E94C518DE
:101A80000E9411176C2F80910001909101010E941A
:101A9000BA180CC080E28C0F883058F4C77081E00F
:101AA00001C0880FCA95EAF70E94C316CF910C9423
:101AB0001117EBE5EC0FE33040F4F0E0E05EFD4F92
:101AC000808190E0CF910C945E0BC85AC73158F4D6
:101AD000EC2FF0E0EE0FFF1FEE50FE4F8081918162
:101AE000CF910C94740BCF910895882349F1682FFE
:101AF0008CEF860F813A38F48091000190910101BA
:101B00000E94C5180CC080E2860F883050F46770C0
:101B100081E001C0880F6A95EAF70E94C9160C940B
:101B200011178BE5860F833020F480E090E00C9451
:101B30005E0B685A673120F480E090E00C94740BDF
:101B400008951F93CF93DF93182FEB010E94270D69
:101B5000209741F08FE99FE00197F1F700C0000066
:101B60002197F6CF812FDF91CF911F910C94750DA6
:101B7000893319F060E070E002C060E570E00C9419
:101B8000A10D882321F00E94C3160C94111708950B
:101B9000882321F00E94C9160C94111708958F9282
:101BA0009F92AF92BF92CF92DF92EF92FF920F93EC
:101BB0001F93CF93DF936C01C62F172FFC01D281A7
:101BC000058102950F700E94B9168823B9F0DD23B4
:101BD000A9F0812F807F803441F090E29C0F9830F3
:101BE00068F0803611F4C63F49F082E00E945B172E
:101BF0000E94B91691E0E82EE92601C0E12CB12E31
:101C0000B2949FE0B9228B2D90E0FC01EA5AFF4F7D
:101C10000C94C520012F0F70812F807F11F0029549
:101C2000007FDD2399F0002309F48AC180E28C0F44
:101C3000883010F0C11104C0802F0E94C31603C069
:101C4000802F0E94D6160E9411177AC18C2F0E94F5
:101C5000750D002309F4F7C180E28C0F883010F075
:101C6000C11104C0802F0E94C91603C0802F0E949A
:101C7000DC160E941117E7C1912F9F70812F807F82
:101C8000F92E803219F0F29480EFF822CC2319F06B
:101C9000C130C9F024C0DD2371F0002341F00130D0
:101CA00031F40E94F6168F290E94FE16CCC10E94C4
:101CB000F6168F290EC0002319F0013009F4C3C1B4
:101CC0000E9407171EC0DD2339F0023008F0BBC1A7
:101CD0008F2D0E94C10DB7C10111B5C112C0DD2306
:101CE00019F00023A9F32CC1002359F0C93309F0DE
:101CF00038C1FFEF27EE83E0F15020408040E1F74C
:101D00002EC18F2D0E94C80D9EC1812F869586956C
:101D1000837019F0813071F096C1DD2331F08C2F82
:101D2000912F93700E945E0B96C180E090E00E941C
:101D30005E0B9AC1DD2331F08C2F912F93700E949E
:101D4000740B89C180E090E00E94740B8DC1812FDB
:101D5000837009F048C0D1117AC12C2F22952695A5
:101D60002770220F220F6C2F6F70862F90E0A0E05B
:101D7000B0E0022E04C0880F991FAA1FBB1F0A944F
:101D8000D2F7C4FF10C04FE050E060E070E004C044
:101D9000440F551F661F771F2A95D2F7409550951F
:101DA0006095709503C040E050E0BA01212F269560
:101DB000269523704A015B01882A992AAA2ABB2A00
:101DC000C501B401223049F058F4213019F00E94C5
:101DD000D6143DC10E94C4143AC10E94E81437C110
:101DE0000E94C21434C1DD2319F0812F817001C01B
:101DF0008695882309F42BC12C2F229526952770D0
:101E0000220F220F6C2F6F70862F90E0A0E0B0E0C1
:101E1000022E04C0880F991FAA1FBB1F0A94D2F775
:101E2000C4FF10C04FE050E060E070E004C0440F19
:101E3000551F661F771F2A95D2F7409550956095DC
:101E4000709503C040E050E0BA01212F26952695F9
:101E500023704A015B01882A992AAA2ABB2AC50154
:101E6000B401223049F058F4213019F00E949B153A
:101E7000EEC00E948915EBC00E94AD15E8C00E941B
:101E8000FC14E5C0012F0F70DD2339F0802F0E9474
:101E900022158C2F0E94C10DDAC08C2F0E94C80D14
:101EA000802F0E944315D3C0C23FF9F028F4C03FF1
:101EB00041F0C13F99F040C0C33FF1F0C43F31F160
:101EC0003BC0DD2339F00111BEC0812F8F710E940C
:101ED0006815B9C0023008F0B6C0F7CFDD2339F07D
:101EE000812F8F710E942215AEC0DD23C9F3812F8F
:101EF0008F710E944315A7C0DD2329F0812F8F71B8
:101F00000E940D15A0C00E9408159DC0DD2351F050
:101F1000012F0F71802F0E94221563E0802F0E94F5
:101F2000461791C081E00E945B17023008F48BC015
:101F300082E00E945B1787C0DD2331F0002381F22D
:101F40008C2F0E94270D7FC0002389F2C93349F4EA
:101F50002FEF87EE93E0215080409040E1F700C0E2
:101F600000008C2F0E94750D6EC0412F4F706C2F9A
:101F7000C6010E9430060E9433146DC08C2F90E081
:101F8000FC01E05FF109E730F10578F5EA59FF4F10
:101F90000C94C520DD2309F450C09091700281E0BB
:101FA000892705C0D093700248C081E08D278093B7
:101FB000700243C0D11141C081E0F9CFD1113DC0C1
:101FC000109270023AC0DD2319F00E94911635C0BC
:101FD0000E949D1632C0DD2329F080916F02882374
:101FE000E1F229C00023C9F228C080916F020023CA
:101FF000C1F0882341F09091700281E0892780939D
:10200000700210926F028C2FDD2319F00E94270DB1
:1020100014C00E94750D86E0F60111928A95E9F7C9
:102020000CC0882351F0D11108C09091700281E05A
:1020300089278093700210926F02412F4F706C2F8E
:10204000C6010E94330688EF8B0D843020F40E9475
:102050002B0B0E942706DD2339F0107F103611F478
:10206000C63F11F00E94AB16EE20E9F00E948D16DB
:1020700080FD19C0F60112820E9487160E94221567
:10208000C6010E9478100E948716DF91CF911F91A0
:102090000F91FF90EF90DF90CF90BF90AF909F9007
:1020A0008F900C944315DF91CF911F910F91FF906A
:1020B000EF90DF90CF90BF90AF909F908F9008955A
:1020C0000F931F93CF93DF93EC01688179818A810D
:1020D0000E9464168C010E94BF150E94B014B801C2
:1020E000CE010E94CF0DDF91CF911F910F910895E6
:1020F000CF93DF93EC01988189812B813C81232B45
:1021000031F08F3F31F481E09F3F19F403C081E04B
:1021100001C080E080FD19C0CE010E946D058111D3
:102120000CC00E94B916882381F08A81882369F047
:1021300082E0DF91CF910C945B17CE010E9460107A
:10214000CE01DF91CF910C944605DF91CF91089598
:10215000882321F00E94D6160C9411170895882325
:1021600021F00E94DC160C941117089580E090E095
:102170000E945E0B80E090E00E94740B0E94E316C8
:102180000E94F3160C9411178091000190910101A7
:102190000E94D0180C94B6100E94D3160C94C41050
:1021A000E92FE295EF704E2F50E0FA013297EE30B2
:1021B000F105B0F4E359FF4F0C94C520803F91F036
:1021C00018F4883E68F40EC0843F51F40BC0883E7A
:1021D00048F0813F29F406C093FB882780F90895D1
:1021E00080E0089581E008950E9459160E94D01061
:1021F0000895CF93DF9300D000D01F92CDB7DEB704
:102200000F900F900F900F900F90DF91CF91089546
:10221000CF93DF9300D000D000D0CDB7DEB72696A5
:102220000FB6F894DEBF0FBECDBFDF91CF910895FA
:102230001F93CF93DF93C091710216E080917202D9
:10224000C81799F0D0E01C9FF0011D9FF00D1124DC
:10225000ED58FD4F40815181628173818481958168
:102260000E9408112196C770E9CFDF91CF911F918D
:1022700008954091A3025091A4026091A50270912B
:10228000A6028091A7029091A8020C9408110F93C6
:102290001F93CF93DF938091A80282958F7009F0EE
:1022A0005DC08091A502882309F458C08091710215
:1022B000109172026091A3027091A402C091A602D3
:1022C000D091A70291E06F3F09F090E0292F06E03E
:1022D000811709F443C0209721F07F3F21F030E0BF
:1022E00003C031E001C0322F90E030FD34C0089FC0
:1022F000F001099FF00D1124DF01AD58BD4F11967B
:102300003C911197371327C03C91361324C0129685
:102310003C91129731111FC013964D915C91149707
:102320004C1B5D0B483C5105B0F48091A8028F70A6
:1023300080618093A802E858FD4F80818F70806192
:10234000808383EA92E00E947810DF91CF911F9101
:102350000F910C94181101968770BACFDF91CF912D
:102360001F910F9108959F92AF92BF92CF92DF92EB
:10237000EF92FF920F931F93CF93DF93CDB7DEB70A
:1023800061970FB6F894DEBF0FBECDBF8C0185E01C
:10239000F801DE011D9601900D928A95E1F7F80192
:1023A00040815181E2809091A3026091A40220912A
:1023B000A6023091A7022115310531F06F3F31F4AB
:1023C00081E09F3F19F403C081E001C080E0F82F55
:1023D000F1709F2E80FD46C1F801A380B48083EA8E
:1023E000C82E82E0D82EF090A502F501E21BF30B77
:1023F000FF2009F4DFC08091A802E83CF10508F055
:102400009BC0282F207F09F052C0561313C04913D8
:1024100011C0FE2CE1100EC08F7080618093A80265
:102420000E943911C6010E9478108091A802F8011B
:10243000858358C1AB2831F05F3F31F481E04F3FD5
:1024400019F403C081E001C080E080FD03C081E099
:102450008E2502C080E090E0F82FF170FF2E80FF03
:102460001CC0809171022091720236E0821709F43B
:1024700017C190E0389FF001399FF00D1124ED58FD
:10248000FD4F6181561306C06081461303C062810F
:10249000E61203C001968770E9CFFE2CEE2009F406
:1024A00021C18091A80281608093A8025AC056136E
:1024B00006C0491304C0E11002C0F8019FC04D8757
:1024C0005E878D859E850E94F410882379F1EE2029
:1024D00069F12091A802822F82958F7090E0029777
:1024E00074F08091A3029091A40298878F8319863B
:1024F000BB86AA862C87CE0107960E94781086E0BC
:10250000F801A3EAB2E001900D928A95E1F70E94EA
:1025100047110E9439110DC0561729F14D875E876A
:102520008D859E850E94F41081112CC0C8010E94E7
:102530007810FF24F394D6C0282F207F69F77A2DD6
:10254000B98AA88A6E2D89890E94F91083EA92E0DF
:102550000E94781086E0F60111928A95E9F70E94B0
:102560003911F12CBFC04913D9CFE110D7CFF801F1
:102570008583C8010E94781086E0F60111928A9541
:10258000E9F7B0C0EE2091F22091A802822F829547
:102590008F7090E002970CF4B2CF8091A3029091DB
:1025A000A4029A8389831B82BD82AC822E83CE01D2
:1025B0000196A3CFE83CF10508F047C0FE2CEE20C1
:1025C00009F4B4CF561330C049132EC02091A8028D
:1025D00020FD21C0822F82958F70482F50E0411539
:1025E0005105C9F0F80125834F30510541F08F5F47
:1025F000982F9295907F822F8F70892B8583C801A9
:102600000E94781086E0F801A3EAB2E001900D92F2
:102610008A95E1F742C086E0F801A3EAB2E00190B2
:102620000D928A95E1F75EC04D875E878D859E8508
:102630000E94F410811163CF8091A8028160809381
:10264000A802C8010E9478104DC07A2DB98AA88AC4
:102650006E2D89890E94F91086E0F60111928A9503
:10266000E9F71BC0EE2009F461CF4D875E878D85A9
:102670009E850E94F410F82E882309F457CF86E037
:10268000F801A3EAB2E001900D928A95E1F783EA9E
:1026900092E00E94130D0E9447110E94391122C03E
:1026A0004D875E878D859E850E945916292F22951C
:1026B0002F70223028F49F7039F0811105C00BC0B3
:1026C000243028F49F7049F4805E883020F0C801DF
:1026D0000E9478109F2CF92C05C0F8019581907FFD
:1026E00099F7F9CF8F2D61960FB6F894DEBF0FBE24
:1026F000CDBFDF91CF911F910F91FF90EF90DF90B1
:10270000CF90BF90AF909F9008951F93CF93DF938A
:10271000CDB7DEB72C970FB6F894DEBF0FBECDBF96
:102720004F83588769877A878B879C87CE01079666
:102730000E94B3118823D1F09F8188852A853B852B
:10274000232B31F08F3F31F481E09F3F19F403C018
:1027500081E001C080E080FD47C04F8158856985D8
:102760007A858B859C850E9408113EC086E0FE011B
:102770003796DE01119601900D928A95E1F7FF815F
:10278000E8856A857B856115710531F0EF3F31F48D
:1027900081E0FF3F19F403C081E001C080E080FDCB
:1027A00023C02091720230E0C901019687709927F9
:1027B0004091710250E084179507F1F1F983EA83A3
:1027C0007D836C8396E0929FD001939FB00D11247E
:1027D000AD58BD4FFE01319601900D929A95E1F7EB
:1027E000809372020E94181116E0809171029091FC
:1027F0007202891771F1189FC00111248D589D4FE5
:102800000E94B311882329F1E09171021E9FF0010B
:102810001124ED58FD4F4081518162817381848183
:1028200095810E9408118091710290E00196877055
:10283000992780937102D9CF0E94CC101092720216
:1028400010927102E3EAF2E086E0DF011D928A95C0
:10285000E9F72C960FB6F894DEBF0FBECDBFDF911F
:10286000CF911F910895EF92FF920F931F93CF93F3
:10287000DF938C01892B09F46CC0F12CEE24E394D6
:10288000E8012196F8018491843740F4843008F0FF
:1028900051C0813081F0823019F15BC0853709F475
:1028A00044C0A8F19CE7980F903708F052C08F778A
:1028B0000E94750D41C00E5F1F4FFE01849190E292
:1028C000980F983050F48770FE2D01C0FF0F8A9545
:1028D000EAF78F2F0E94E61614C00E94270D2DC024
:1028E0000E5F1F4FFE01849190E2980F983060F4C4
:1028F0008770FE2D01C0FF0F8A95EAF78F2F0E9487
:10290000EC160E94111719C00E94750D16C00E5FBB
:102910001F4FFE01C491CC2381F08FE99FE0019706
:10292000F1F700C00000C150F6CF0E5F1F4FFE014F
:10293000F49003C00E94270D8E018F2D882309F487
:102940009FCFEFE9FFE03197F1F700C00000815021
:10295000F5CFDF91CF911F910F91FF90EF900895E8
:10296000089508950C94B1140C94B2140E94B414F8
:102970006093DA027093DB028093DC029093DD02B5
:102980000C94B6100C94B6140F931F930091DA02B6
:102990001091DB022091DC023091DD02602B712B63
:1029A000822B932B1F910F910C94B6140F931F93AE
:1029B0000091DA021091DB022091DC023091DD02FD
:1029C00060237123822393231F910F910C94B614DB
:1029D0000F931F930091DA021091DB022091DC0229
:1029E0003091DD0260277127822793271F910F9175
:1029F0000C94B6140C94B1140E94FA146093D6028D
:102A00007093D7028093D8029093D9020C94B61099
:102A100060E070E0CB010C94FC140F931F9341E035
:102A200050E060E070E08A019B0104C0000F111FBC
:102A3000221F331F8A95D2F7C901B8011F910F9148
:102A40000C94FC140F931F9341E050E060E070E0A1
:102A500004C0440F551F661F771F8A95D2F78091D7
:102A6000D6029091D702A091D802B091D9028A01E2
:102A70009B01082B192B2A2B3B2BC901B8011F9155
:102A80000F910C94FC140F931F9341E050E060E011
:102A900070E004C0440F551F661F771F8A95D2F758
:102AA00040955095609570958091D6029091D7028F
:102AB000A091D802B091D9028A019B010823192361
:102AC0002A233B23C901B8011F910F910C94FC14D8
:102AD0000F931F9341E050E060E070E004C0440FAA
:102AE000551F661F771F8A95D2F78091D602909165
:102AF000D702A091D802B091D9028A019B01082780
:102B000019272A273B27C901B8011F910F910C945F
:102B1000FC140F931F930091D6021091D7022091BD
:102B2000D8023091D902602B712B822B932B1F91ED
:102B30000F910C94FC140F931F930091D6021091E7
:102B4000D7022091D8023091D902602371238223C9
:102B500093231F910F910C94FC140F931F930091DA
:102B6000D6021091D7022091D8023091D902602765
:102B70007127822793271F910F910C94FC140895BD
:102B80002CE0929F800D1124E82FE695E695E695BE
:102B9000877051E001C0550F8A95EAF785E0E89FFC
:102BA000F0011124E755FD4F20E030E070E0408156
:102BB000CB01022E02C0969587950A94E2F78170A8
:102BC000819584278523842781932F5F3F4F25306C
:102BD000310569F708952CE0929F800D1124682F2C
:102BE000669566956695982F977085E0689FB00109
:102BF000112440E050E080E0FB01E40FF51FE755B1
:102C0000FD4F208130E0092E02C0369527950A94A9
:102C1000E2F721703327042E01C0220F0A94EAF74D
:102C2000822B4F5F5F4F4530510531F70895BF92BA
:102C3000CF92DF92EF92FF920F931F93CF93DF9388
:102C40008C01C090D602D090D702E090D802F090CC
:102C5000D9028091DA029091DB02A091DC02B0915E
:102C6000DD02C82AD92AEA2AFB2ACFE1D0E0D7011F
:102C7000C6010C2E04C0B695A795979587950A9422
:102C8000D2F780FD04C0219790F7B12C07C0BC2E6D
:102C9000B8018C2F0E944F060197A9F38B2DDF916D
:102CA000CF911F910F91FF90EF90DF90CF90BF9049
:102CB0000895CF93DF93EC010E941716BE010E9486
:102CC0004F06DF91CF9108951F93CF93DF93EB01D0
:102CD00090916E02992321F0CB010E94591613C0E6
:102CE000882349F0CB010E941716182F682FCE01B8
:102CF0000E94C01504C0CB010E94EB15182FBE0125
:102D0000812F0E944F06DF91CF911F9108958091EE
:102D1000DF0285958595859508958091DF028770FE
:102D2000089582E08093DE0281E08093700208952E
:102D30001092DE021092700208958091DE028230BD
:102D400019F481E08093DE028091DE02833011F479
:102D50000C94981608958091DE02823019F483E075
:102D60008093DE028091DE02813011F40C9498167B
:102D700008959091DF02977081E009F480E0089552
:102D800080910303089590910303892B809303039B
:102D900008958095909103038923809303030895F8
:102DA0008093030308951092030308959091020302
:102DB000892B8093020308958095909102038923C3
:102DC00080930203089510920203089590910103E5
:102DD000892B8093010308958095909101038923A5
:102DE0008093010308951092010308958091E002F9
:102DF000089508950C94F9160C94FA169091E00237
:102E0000981721F08093E0020C94FC1608958091AD
:102E1000E002882329F01092E00280E00C94FC1676
:102E20000895E0910001F0910101809103038083F6
:102E3000E0910001F0910101908180910203892BC2
:102E40008083E0910001F091010190818091010364
:102E5000892B80838091E002882381F0E09100013A
:102E6000F09101019081892B8083809100019091E4
:102E700001010E94241881110E940717809100010E
:102E8000909101010C94440B0C94F91698E0899FE1
:102E900090011124262B2093DF020E94221580919D
:102EA000DF028595859585950C9444171092DF0275
:102EB00080E00C9444172091DF0280958223809358
:102EC000DF02982F977079F430E0482F082E000C1D
:102ED000550B2417350739F08595859585950E9402
:102EE00043150C945617089580E0089580E090E013
:102EF0000E94D32021E08B3E9E4F09F020E0822FDC
:102F0000089582E090E00C94CB2083E090E00C9454
:102F1000CB20CF9384E090E00E94CB20C82F81E2A9
:102F200090E00E94CB202C2F30E0A901582BCA0141
:102F3000CF910895CF93C92F682F84E090E00E942D
:102F4000D9206C2F81E290E0CF910C94D920AB0175
:102F5000BC018FE090E00C94EB20AB01BC0183E15D
:102F600090E00C94EB2060E070E0CB010C94AD1786
:102F700060E070E0CB010E94A7170C94B3176BEED2
:102F80007EEF80E090E00E94F72060E082E090E039
:102F90000E94D92060E083E090E00E94D920109246
:102FA000DA021092DB021092DC021092DD0260E085
:102FB00084E090E00E94D92060E081E290E00E94ED
:102FC000D92060E085E090E00E94D92060E086E0B2
:102FD00090E00E94D9206FEF87E090E00E94D92016
:102FE00040E050E0BA0188E090E00E94EB2060E011
:102FF0008DE090E00E94D92040E050E0BA0188E1E5
:1030000090E00E94EB2060E087E190E00E94D920F0
:1030100040E050E0BA018CE190E00E94EB2060E0DB
:1030200080E290E00E94D92040E050E0BA0188E1BF
:1030300090E00E94EB200C94B8170C94BF17682FF7
:103040008EE090E00C94D920FC01329680910C0126
:10305000882331F08091340387FF02C09EE101C0D4
:1030600096E080E0915028F021912223D9F38F5FE0
:10307000F9CF0895662351F120910C012223E9F044
:103080002091340327FF19C0462F46954695469553
:103090004E31E0F4677021E030E002C0220F331FB0
:1030A0006A95E2F7FC01E40FF11D828190E028238C
:1030B000392381E0232B69F409C0FC01329608967C
:1030C0002191621729F0E817F907D1F780E00895F8
:1030D00081E008959C01FC0132969FEF80E04191D0
:1030E000461789F09F3F19F4411101C0982F8F5F57
:1030F0008630A9F79F3F39F0F901E90FF11D97FDDF
:10310000FA956283089508959C012A5F3F4FFC0160
:103110004281461301C01282019682179307B9F7C4
:103120000895262F2695269526952E3168F4FC01C4
:10313000E20FF11D677021E030E001C0220F6A95B7
:10314000EAF78281282B22830895262F269526953B
:1031500026952E3170F4FC01E20FF11D677021E01D
:1031600030E001C0220F6A95EAF72095828128237A
:103170002283089520910C01222329F02091340309
:1031800027FD0C9491180C946A1820910C012223AD
:1031900029F02091340327FD0C94A5180C94841871
:1031A00020910C01FC013296222331F080913403EE
:1031B00087FF02C08EE101C086E0DF011D928A9583
:1031C000E9F7089508950C94E2180C94E218CF934F
:1031D0000E94E5180E946E030E94E318C0E08C2F45
:1031E0000E949404892B29F4CF5FC630C1F780E098
:1031F00001C081E0CF9108950C94E2180C94FC1862
:1032000080913A03843049F10E94FE1880E00E94C8
:1032100027061092050320E488E190E00FB6F894A9
:10322000A895809360000FBE2093600083B7817FD4
:10323000846083BF83B7816083BF7894889583B7A8
:103240008E7F83BF0FB6F894A89580916000886147
:1032500080936000109260000FBE08950C94E218F5
:103260000E94CC100E942B0B0E9427060C942E1952
:103270001F920F920FB60F9211248F939F93AF93CB
:10328000BF9380910503811113C080913003909109
:103290003103A0913203B09133034196A11DB11DBA
:1032A0008093300390933103A0933203B0933303A0
:1032B000BF91AF919F918F910F900FBE0F901F9074
:1032C000189582E084BD93E095BD9AEF97BD8093F9
:1032D0006E0008952FB7F8948091300390913103D8
:1032E000A0913203B09133032FBF08952FB7F89404
:1032F00060913003709131038091320390913303D8
:103300002FBF08959C014FB7F8948091300390919E
:103310003103A0913203B09133034FBF821B930B53
:10332000089578941F920F920FB60F9211248F93E5
:103330009F93AF93BF938091300390913103A091FD
:103340003203B09133030196A11DB11D8093300368
:1033500090933103A0933203B0933303BF91AF91A5
:103360009F918F910F900FBE0F901F901895F8941A
:1033700081E08093E00080E28093D800E9ECF0E007
:1033800010828FE19EE40197F1F700C000001DBAA2
:10339000109268001CBC10BE1FBA10927A001092E6
:1033A0006E0010926F0010927100109272001082E5
:1033B000ECEBF0E0108214B817B81AB81DB810BAC8
:1033C000108215B818B81BB81EB811BA0C94003F7B
:1033D0000895909325028093240208950E94761701
:1033E000811102C00E941D180E948117809304035E
:1033F0000E94891790933503809334030E948517A8
:10340000682F70E080E090E00E94C2146091D602C4
:103410007091D7028091D8029091D9020C94FA143D
:103420008091260308950895CF93DF9300D01F92D3
:10343000CDB7DEB790913A03943019F589837B8339
:103440006A8382E08093E9008FEF9091E8008150D9
:1034500095FD06C095ED9A95F1F700008111F5CF25
:103460008091E80085FF0DC040E050E063E070E02F
:10347000CE0101960E94271C8091E8008E778093F0
:10348000E8000F900F900F90DF91CF910895BC014D
:1034900084E00C94141ABC0183E00C94141ACF93AA
:1034A000DF9320910C01222339F02091340327FF70
:1034B00003C060E222E002C068E021E02093E9005E
:1034C0002FEF3091E800215035FD06C035ED3A95DB
:1034D000F1F700002111F5CF2091E80025FF1DC074
:1034E000EC0180910C01811105C040E050E068E0E2
:1034F00070E003C070E040E050E0CE010E94271C65
:103500008091E8008E778093E80080E2FE01A6E0DB
:10351000B3E001900D928A95E1F7DF91CF91089584
:1035200080913903811109C00E94B81D0E94151EA7
:103530008091E20084608093E20008951092390344
:10354000089508950895089542E061EC81E00E9495
:10355000311D42E261EC82E00C94311D80913C030C
:10356000833009F460C030F4813071F0823009F4A6
:1035700099C008958A3009F485C08B3009F46BC076
:10358000893009F0A7C020C080913B03813A09F03F
:10359000A1C08091E800877F8093E80080913F037D
:1035A00090914003892B21F460E286E093E003C010
:1035B00060E080E090E070E00E94721C8091E80082
:1035C0008B778093E800089580913B03813209F066
:1035D00081C080913F0390914003029708F07AC028
:1035E0008091E800877F8093E8008091E80082FD69
:1035F00005C080913A038111F8CF6CC02091F3008F
:103600008091F20090E0922B029729F48091F100D2
:103610008B7F813021F48091F1008093260380918B
:10362000E8008B7753C080913B03813A09F052C088
:1036300080913F0390914003892B09F04BC080910A
:10364000E800877F8093E8008091E80080FFFCCF4E
:1036500080910C0136C080913B038132D9F5809175
:103660003F0390914003892BA9F58091E800877F63
:103670008093E8000E94661D80913D0380930C01B9
:103680000C94CC1080913B03813221F58091E800AD
:10369000877F8093E8000E94661D80913E0380939F
:1036A0002703089580913B03813AA1F48091E800BB
:1036B000877F8093E8008091E80080FFFCCF8091B5
:1036C00027038093F1008091E8008E778093E800D3
:1036D0000C94661D089584B7877F84BF0FB6F89455
:1036E000A8958091600088618093600010926000CE
:1036F0000FBE90E080E80FB6F8948093610090933D
:1037000061000FBE0E94B50B0E94B81D0E94151EDD
:103710008091E20084608093E20078940E94AA2065
:103720000E94BF0B82E091E00E94260B80913A0339
:103730008530A9F480913A03853079F40E9400190C
:10374000809138038823B1F30E94E718882391F30E
:103750000E94111C0E94CC10EDCF0E9430190E94D3
:10376000C70B0E94A90B0E94A80BE0CF0C94B81BBA
:10377000292F332723303105C9F060F4213031057A
:1037800081F02230310509F044C08BE390E020E95C
:1037900033E043C021323105E1F02232310549F1F5
:1037A00038C082E190E02BEC33E037C099278130BC
:1037B000910549F028F0029761F5EAE6F3E005C0CB
:1037C000ECE8F3E002C0EAE7F3E0849190E09F01C7
:1037D00024C06115710541F061307105D1F489E0B3
:1037E00090E02BEB33E019C089E090E022EA33E06F
:1037F00014C06115710541F06130710551F48DE619
:1038000090E02DED33E009C080E490E02AE434E05C
:1038100004C080E090E020E030E0FA0131832083B2
:10382000089580E189BD82E189BD09B400FEFDCF24
:103830008091D8008F7D8093D8008091E0008260D5
:103840008093E0008091E00081FDFCCF0895CF924D
:10385000DF92EF92FF920F931F93CF93DF93EC01D0
:103860008B017A010E94851D811133C0E114F1049E
:1038700039F0F70180819181081B190BC80FD91FFE
:10388000C12CD12C0115110519F18091E80085FD9D
:1038900016C08091E8008E778093E800E114F1046F
:1038A00049F0F70180819181C80ED91ED182C08272
:1038B00085E00FC00E94851D882321F30AC08991ED
:1038C0008093F10001501109FFEFCF1ADF0ADACF20
:1038D00080E0DF91CF911F910F91FF90EF90DF90EB
:1038E000CF90089520914103309142032617370766
:1038F00048F06115710539F42091E8002E77209386
:10390000E80001C0B901FC0120E06115710579F101
:1039100080913A038823F1F18530F1F18091E8003C
:1039200083FD3CC08091E80082FD2EC08091E800BC
:1039300080FFEBCF2091F3008091F20090E0922B7A
:103940006115710551F08830910538F4219120936B
:10395000F100615071090196F3CF21E0089709F059
:1039600020E08091E8008E778093E800CECF21118F
:10397000CFCF0AC080913A03882361F0853061F08F
:103980008091E80083FD0AC08091E80082FFF2CFB9
:1039900080E0089582E0089583E0089581E008952D
:1039A00020914103309142032617370748F06115F3
:1039B000710539F42091E8002E772093E80001C0CA
:1039C000B901FC0120E06115710591F180913A0384
:1039D000882309F440C0853009F43FC08091E80095
:1039E00083FD3DC08091E80082FD2FC08091E800FA
:1039F00080FFE9CF2091F3008091F20090E0922BBC
:103A00006115710559F08830910540F42491209397
:103A1000F1003196615071090196F2CF21E00897CB
:103A200009F020E08091E8008E778093E800CBCF0A
:103A30002111CCCF0AC080913A03882361F08530F0
:103A400061F08091E80083FD0AC08091E80082FF68
:103A5000F2CF80E0089582E0089583E0089581E048
:103A60000895982F973068F59093E900981739F0EA
:103A70007091EC002091ED005091F00003C0242FD4
:103A8000762F50E021FD02C09F5FECCF3091EB001C
:103A90003E7F3093EB003091ED003D7F3093ED00A1
:103AA0003091EB0031603093EB007093EC00209389
:103AB000ED005093F0002091EE0027FDE5CF80E06F
:103AC00008958F708093E90081E0089580913B0311
:103AD00087FF11C08091E80082FD05C080913A0304
:103AE0008111F8CF11C08091E8008B770BC08091D5
:103AF0003A03882349F08091E80080FFF8CF809155
:103B0000E8008E778093E80008952091E4003091DA
:103B1000E50095E64091EC00842F817040FF23C0C2
:103B20008091E80080FD1DC080913A03882399F0C0
:103B3000853099F08091EB0085FD11C04091E40043
:103B40005091E5002417350729F3915011F09A019F
:103B5000E1CF84E0089582E0089583E0089581E054
:103B6000089580E008954091E80042FFDDCF089578
:103B70000E94261E0E942E1EE0EEF0E080818160F1
:103B80008083E8EDF0E080818F77808319BCA7ED1A
:103B9000B0E08C918E7F8C9380818F7E8083109299
:103BA000390308950F931F93CF93DF930E94261E2E
:103BB0000E942E1EC8EDD0E088818F77888388818F
:103BC0008068888388818F7D888319BC10923A032E
:103BD00010923603109238031092370300EE10E073
:103BE000F80180818B7F808388818160888342E0B7
:103BF00060E080E00E94311DE1EEF0E080818E7F88
:103C00008083E2EEF0E08081816080838081886043
:103C10008083F80180818E7F8083888180618883A2
:103C2000DF91CF911F910F910895E8EDF0E0808131
:103C30008F7E8083E7EDF0E080818160808384E087
:103C400082BF81E0809339030C94D21DE8EDF0E04F
:103C500080818E7F80831092E20008951092DA00B6
:103C60001092E10008951F920F920FB60F92112447
:103C70002F933F934F935F936F937F938F939F9374
:103C8000AF93BF93EF93FF938091E10082FF0BC04E
:103C90008091E20082FF07C08091E1008B7F8093DA
:103CA000E1000E94A9208091DA0080FF1FC080916E
:103CB000D80080FF1BC08091DA008E7F8093DA00ED
:103CC0008091D90080FF0DC080E189BD82E189BD6E
:103CD00009B400FEFDCF81E080933A030E94901A60
:103CE00005C019BC10923A030E949E1A8091E1000F
:103CF00080FF19C08091E20080FF15C08091E20032
:103D00008E7F8093E2008091E20080618093E200E8
:103D10008091D80080628093D80019BC85E08093A0
:103D20003A030E94A21A8091E10084FF30C0809182
:103D3000E20084FF2CC080E189BD82E189BD09B425
:103D400000FEFDCF8091D8008F7D8093D8008091B8
:103D5000E1008F7E8093E1008091E2008F7E80936E
:103D6000E2008091E20081608093E200809136035E
:103D7000882311F084E007C08091E30087FD02C032
:103D800081E001C083E080933A030E94A31A8091EE
:103D9000E10083FF29C08091E20083FF25C080916C
:103DA000E100877F8093E10082E080933A031092E4
:103DB00036038091E1008E7F8093E1008091E200E4
:103DC0008E7F8093E2008091E20080618093E20028
:103DD00042E060E080E00E94311D8091F000886048
:103DE0008093F0000E94A11AFF91EF91BF91AF91D3
:103DF0009F918F917F916F915F914F913F912F9103
:103E00000F900FBE0F901F9018951F920F920FB634
:103E10000F9211242F933F934F935F936F937F9350
:103E20008F939F93AF93BF93CF93DF93EF93FF93C2
:103E3000C091E900CF708091EC00D82FD17080FD47
:103E4000D0E81092E9008091F000877F8093F00025
:103E500078940E94491F1092E9008091F0008860D8
:103E60008093F000CD2BCF70C093E900FF91EF91CC
:103E7000DF91CF91BF91AF919F918F917F916F9182
:103E80005F914F913F912F910F900FBE0F901F9018
:103E900018951F93CF93DF93CDB7DEB7AA970FB6D0
:103EA000F894DEBF0FBECDBFEBE3F3E08091F100ED
:103EB000819323E0E334F207C9F70E94AE1A8091A0
:103EC000E80083FF2EC180913B0390913C03492F72
:103ED00050E04A30510508F024C1FA01E558FF4F7F
:103EE0000C94C520803821F0823809F01AC108C02E
:103EF0008091370390913803992389F082600FC035
:103F000080913F038F70873008F00BC18093E900E8
:103F10008091EB0085FB882780F91092E900909151
:103F2000E800977F9093E8008093F1001092F100F1
:103F3000D1C0282F2D7F09F0F4C0882319F08230DA
:103F400061F0EFC080913D03813009F0EAC0933009
:103F500009F080E0809338032EC080913D038111E9
:103F60002AC080913F038F702FEF280F263008F072
:103F7000D8C08093E9002091EB0020FF1CC0933053
:103F800021F48091EB00806214C09091EB0090616D
:103F90009093EB0021E030E0A90102C0440F551FCF
:103FA0008A95E2F74093EA001092EA008091EB00D4
:103FB00088608093EB001092E9008091E800877F91
:103FC0008093E8000E94661DACC08111AAC01091C8
:103FD0003D031F778091E3008078812B8093E3007D
:103FE0008091E800877F8093E8000E94661D8091A1
:103FF000E80080FFFCCF8091E30080688093E300BD
:10400000111102C082E001C083E080933A0389C0AD
:104010008058823008F085C080913D0390913E0326
:104020008C3D53E0950779F583E08A838AE28983A2
:104030004FB7F894DE01139620E03EE051E2E32F03
:10404000F0E050935700E49120FF03C0E295EF7039
:104050003F5FEF708E2F90E0EA3010F0C79601C0FE
:10406000C0968D939D932F5F243149F74FBF809168
:10407000E800877F8093E8006AE270E0CE01019655
:104080000E94721C16C060913F0370914003AE0104
:104090004F5F5F4F0E94B61BBC01892B09F441C0E2
:1040A0009091E800977F9093E80089819A810E941F
:1040B000D01C8091E8008B778093E80032C0803874
:1040C00081F58091E800877F8093E8008091360336
:1040D0008093F1008091E8008E7772CF811121C02A
:1040E00080913D0390913E0399270297D4F48091EB
:1040F000E800877F8093E80080913D03809336033A
:104100000E94661D80913603811106C08091E300F4
:1041100087FD02C081E001C084E080933A030E94E1
:10412000A41A8091E80083FF0AC08091E800877F8D
:104130008093E8008091EB0080628093EB00AA9668
:104140000FB6F894DEBF0FBECDBFDF91CF911F91A8
:1041500008950895CF9380913A038823A1F0C091E8
:10416000E900CF709091EC00892F817090FD80E87C
:10417000C82B1092E9008091E80083FD0E94491F3E
:10418000CF70C093E900CF910895EE0FFF1F059007
:10419000F491E02D0994F999FECF92BD81BDF89A72
:1041A000992780B50895A8E1B0E042E050E00C9472
:1041B000FF20262FF999FECF92BD81BDF89A019775
:1041C00000B4021639F01FBA20BD0FB6F894FA9A5F
:1041D000F99A0FBE08950396272F0E94DA200E94B5
:1041E000D920252F0E94DA20242F0C94DA20019662
:1041F000272F0E94DA200C94D920DC01CB01FC018E
:10420000F999FECF06C0F2BDE1BDF89A319600B42F
:0E4210000D9241505040B8F70895F894FFCF3A
:10421E00E102101A4F1A131A4B1A471A0100010223
:10422E00030405010101010101000000000000006E
:10423E000000000000313233929366F0F1F4F5F68F
:10424E00F7000B000A000900080007000600050031
:10425E00040003000200010000010B010B01090123
:10426E000801070106010501040103010201010114
:10427E0000020B020C0209020802070206020502E6
:10428E00040203020202010200030B030D030903E1
:10429E0008030703060305030403030302030103D4
:1042AE0000040B040E0409040804070406040504A4
:1042BE00040403040204010400050B050F0509059F
:1042CE000805070506050505040503050205010594
:1042DE0000E200E900EA00B500B600B700CD0083A9
:1042EE0001CC008A019201940121022302240225AD
:1042FE0002260227022A02B300B4006F007000816A
:10430E008283E200E900EA00B500B600B700CD00F6
:10431E008301CC008A01920194012102230224021E
:10432E002502260227022A02B300B4006F00700095
:04433E0081828300F5
:00000001FF
