:100000000C94D5020C94F2020C94F2020C94F202BD
:100010000C94F2020C94F2020C94F2020C94F20290
:100020000C94F2020C94F2020C9446200C941821C9
:100030000C947A1B0C94F2020C94F2020C94F202CF
:100040000C94F2020C94F2020C94F2020C94F20260
:100050000C94F2020C94D31B0C94F2020C94F20256
:100060000C94F2020C94F2020C94F2020C94F20240
:100070000C94F2020C94F2020C94F2020C94F20230
:100080000C94F2020C94F2020C94F2020C94F20220
:100090000C94F2020C94F2020C94F2020C94F20210
:1000A0000C94F2020C94F2020C94F2023108310822
:1000B00063086308AC084A0AE5094A0ACE086909D8
:1000C0007B097B09DC094A0A4A0A440AF109120A37
:1000D000F909FC09050A010A0A0A050B050B170BA9
:1000E000170B0E0B170B170B170B050B050B130B31
:1000F000170B170B130B8521AC21A422AC21A422D2
:10010000F8211B22A42272228122000B000A00097E
:1001100000080007000600050004000300020001BB
:100120000000010B010B010901080107010601058F
:1001300001040103010201010100020B020C02098A
:10014000020802070206020502040203020202017B
:100150000200030B030D030903080307030603054D
:1001600003040303030203010300040B040E040948
:10017000040804070406040504040403040204013B
:100180000400050B050F050905080507050605050B
:100190000504050305020501050029001E001F00D6
:1001A0002000210022002300240025002600270033
:1001B0002A002B0014001A000800150017001C006C
:1001C00018000C0012001300310039000400160062
:1001D000070009000A000B000D000E000F0033009D
:1001E0003400E1001D001B0006001900050011008D
:1001F00010003600370038612D00E00035002F0078
:100200003000E200000000005000520051004F009A
:100210002E004C00015128002C004D00E300A900E5
:1002200000002C0028000158AA00A6003A003B005C
:100230003C003D003E003F004000410042004300C2
:100240004400A5001E021F022F023002310252009C
:100250005F0060006100550045000100200221029E
:1002600026022702240251005C005D005E00570058
:100270000100005C220223022F00300035025300EF
:1002800059005A005B00540001000100015C0100AC
:100290000100010000000000620037005800560015
:1002A0000100010001000100010001000100010046
:1002B0000100010001000100010001000100010036
:1002C0000100010001000100010001000100010026
:1002D0000100010001000100ED000100010001002A
:1002E0000100010001000100010001000100EF0018
:1002F000EE00F0000100010001000100010001001A
:1003000001000000010001000100F00001000100F7
:10031000AE00AC00AB0001000100010000000100D4
:10032000F100F20000000000A900AA00A8000100EE
:10033000010001000100F200F100010001000100D4
:100340001050010001000100010029001E001F00E3
:100350002000210022002300240025002600270081
:100360002A002B00170014001A00080015001C00BA
:1003700018000C0012001300310039000A000400BC
:100380001600070009000B000D000E000F003300DF
:1003900034000500E1001D001B00060019001100DB
:1003A00010003600370038002E00E0003500E20073
:1003B0002F003000000000005000520051004F009C
:1003C0002D000100010001000100010001000100F9
:1003D0001050010001000158010000000000000061
:1003E00000002A2B28000000000000000000000090
:1003F000000000000029000000002C1E34202122F3
:1004000024342627252E362D3738271E1F2021225B
:10041000232425263333362E37381F0405060708D4
:10042000090A0B0C0D0E0F101112131415161718C4
:10043000191A1B1C1D2F3130232D35040506070802
:10044000090A0B0C0D0E0F101112131415161718A4
:10045000191A1B1C1D2F3130354C00000000000004
:10046000000000000000000000000000000000008C
:1004700000000000000000000000000000007E0FEF
:1004800000D4FFFFFFC7000000780E0344006100A6
:100490006300740079006C000000100341006400E8
:1004A0006500720065007400680000000403090420
:1004B00009023B00020100A0FA0904000001030147
:1004C00001000921110100012240000705810308F4
:1004D000000A0904010001030000000921110100C4
:1004E00001226D000705820320000A1201000200AC
:1004F000000008EDFE0813010001020001050109DA
:1005000080A101850319012AB700150126B70095BE
:100510000175108100C0050C0901A10185041901B4
:100520002AA002150126A002950175108100C005C0
:10053000010906A1018505050719E029E715002530
:10054000019508750181020507190029EF1500259D
:100550000195F075018102050819012905950575B8
:10056000019102950175039101C005010906A101E0
:10057000050719E029E71500250195087501810295
:100580009501750881010507190029FF150026FF4F
:10059000009506750881000508190129059505755E
:1005A000019102950175039101C011241FBECFEF87
:1005B000DAE0DEBFCDBF11E0A0E0B1E0ECE6F6E4AA
:1005C00002C005900D92A439B107D9F722E0A4E941
:1005D000B1E001C01D92A63BB207E1F70E94AA1547
:1005E0000C9434230C94000090E0FC01ED5EFE4F6F
:1005F0002081211118C0FC01E15EFE4F8081E82FAF
:10060000E295EF70F0E031A1282F2F7081E090E0AB
:1006100001C0880F2A95EAF7982F9095932391A30C
:1006200092A1892B82A3089508950C9414030C942D
:1006300015030C9414030F931F93CF93DF9300D0F3
:1006400000D0CDB7DEB78091960181110BC00E941A
:1006500091182FEF83ED90E3215080409040E1F717
:1006600000C0000080919C02882319F11B828091B8
:100670009C028C8319828A8304E610E022E030E039
:10068000AE014D5F5F4F60E080E40E94921980935D
:100690009B02811121C004E610E022E030E0AE01AF
:1006A0004F5F5F4F6CE080E40E94921980939B0241
:1006B00013C0EDE0F1E041E050E09A01019002C08A
:1006C000220F331F0A94E2F7822B21E0E331F20775
:1006D000A1F780939C02CACF0F900F900F900F90BC
:1006E000DF91CF911F910F910895CF930E941B032B
:1006F000C0E08C2F0E94F402CF5FCC30D1F7ABE288
:10070000B1E041E050E08D91E82FE295EF70F0E02C
:1007100021A18F70BA0102C0660F771F8A95E2F798
:10072000CB01962F9095922391A392A1892B82A31E
:1007300071E0A133B70739F7E4EAF1E0A8E9B1E0E5
:1007400080EB91E0119211921D921D928E179F07DE
:10075000C9F7CF910C9493053F924F925F926F929D
:100760007F928F929F92AF92BF92CF92DF92EF9241
:10077000FF920F931F93CF93DF9300D0CDB7DEB7D7
:1007800080919B02882349F0809197018F5F80932D
:100790009701811102C00E941B0383E1482E81E072
:1007A000582E9FE1A92E91E0B92EE12CF12CCC24FA
:1007B000C394D12C332433949E2C1A828E2CF201B4
:1007C00081912F018823D1F080919B0281112CC04F
:1007D000C6010E2C01C0880F0A94EAF78095898320
:1007E00004E610E021E030E0AE014F5F5F4F62E1D0
:1007F00080E40E94921980939B0216C0F5018081CB
:10080000E82FE295EF70F0E021A18F70A60102C001
:10081000440F551F8A95E2F7CA01922F982B91A396
:1008200092A18095892382A350EA5A95F1F785E039
:10083000891528F180919B02811172C004E610E0B5
:1008400021E030E0AE014E5F5F4F63E180E40E9443
:10085000BF1980939B028A8180958A836A80712C5C
:10086000A60102C0440F551F8A94E2F78A01009541
:100870001095E8E9F1E080E090E0812C34C0EBE2F3
:10088000F1E020E030E04191A42FA295AF70B0E0FC
:1008900090968C9190E04F7002C0959587954A95FF
:1008A000E2F780FD09C04A81C601022E01C0880F0F
:1008B0000A94EAF7842B8A832F5F3F4F2630310555
:1008C00011F7CCCFB9016023712371836083329615
:1008D0006D917C912617370711F088248394019637
:1008E0008630910581F0DF0120813181B301082E2E
:1008F00002C0759567950A94E2F760FFE3CFB901EE
:10090000642B752BE2CF892D0E94F402882041F0E0
:100910003092B0010E94AC1B9093B2018093B10160
:10092000EFEFEE1AFE0AFFEFAF1ABF0A4CE0E41633
:10093000F10409F041CF8091B0018823B9F0809192
:10094000B1019091B2010E94C41B409778F0E8E990
:10095000F1E0A4EAB1E084EA91E0219131912D9394
:100960003D938E179F07C9F71092B0010E949B0517
:1009700081E00F900F90DF91CF911F910F91FF9029
:10098000EF90DF90CF90BF90AF909F908F907F902F
:100990006F905F904F903F900895E82FF0E0EE0F3A
:1009A000FF1FEC55FE4F80819181089508959C01B1
:1009B0003A9521153F4130F5BC0166277270AC01B4
:1009C000442754709C012227387094FF0FC090FF79
:1009D00002C080E101C080E0672B09F08062452BF6
:1009E00009F08064232B79F080680895892F817045
:1009F000672B09F08260452B09F08460232B19F0E6
:100A00008860089580E00895CF93DF93EC01805EC5
:100A10009109089710F0209731F4CE010E94D70475
:100A20000E94E80705C0CE010E94D7040E94CF0AA9
:100A30008C2FDF91CF910C944E07CF93DF93EC0175
:100A40000E949C07CE01805E9109089710F02097C4
:100A500039F4CE010E94D704DF91CF910C94EF07B7
:100A6000CE010E94D704DF91CF910C94D60ACF9388
:100A7000DF93EC010E940405CE01DF91CF910C942D
:100A80001D0581E0089581E008950C9443050895C3
:100A90000C9447051F93CF93DF9300D000D01F9293
:100AA000CDB7DEB749835A836B833091BF0189810B
:100AB0009A81311114C0662359F0222349F00E9413
:100AC000A90C182F682F89819A810E94520C03C0AB
:100AD0000E947D0C182F69817A81812F04C00E94A9
:100AE000A90C69817A810F900F900F900F900F9051
:100AF000DF91CF911F910C946713FC01262F408149
:100B000051816281738184810C944A0581E008954A
:100B1000CF93DF93EC0160E00E947D05BE01DF9181
:100B2000CF910C9448050E9486150E947D060E9474
:100B3000CA150C9417030C94190308950E94F30A24
:100B40000E949D052FEF84E39CE02150804090405F
:100B5000E1F700C000000C94F91B0F931F93CF9393
:100B6000DF938C0161E00E947D05EC01B8010E94D9
:100B70004505882309F444C0B801CE010E945216ED
:100B80008823F1F1B801CE010E94E3168823C1F158
:100B9000B801CE010E943517882391F1B801CE012A
:100BA0000E946018882361F1F8018281882309F18D
:100BB000CB358DE5D807C1F050F4C115FCE5DF0752
:100BC00081F0CF3DDC45A9F40E94691219C0CC35F3
:100BD000EDE5DE0761F0CD35DD4559F40E94F010FA
:100BE00008C00E949E050CC00E94F91002C00E941D
:100BF000FC10C801DF91CF911F910F910C9441051A
:100C000080E0DF91CF911F910F910895DF92EF92D5
:100C1000FF920F931F93CF93DF93E82FF0E0E652FC
:100C2000FC4FD490282F26952695269530E0F90183
:100C3000E658FB4F0491877010E0082E02C015950E
:100C400007950A94E2F701701127F901E659FB4F65
:100C5000E490F12C082E02C0F594E7940A94E2F790
:100C600091E0E922FF24F901E65AFB4FC491D0E05C
:100C700002C0D595C7958A95E2F7C170DD270115A9
:100C8000110519F081EE0E944E07E114F10419F0EC
:100C900086EE0E944E078D2D0E94DF07EF2819F087
:100CA00086EE0E949C07012B19F081EE0E949C07A2
:100CB000CD2B51F08CE2DF91CF911F910F91FF90DE
:100CC000EF90DF900C94DF07DF91CF911F910F9190
:100CD000FF90EF90DF900895982F9F709A50963074
:100CE00010F0805D01C0895A0C94060608950C949A
:100CF000760681E008950C9479060895CF93C82F65
:100D00000E9477068C2F0E947B06CF910895DC010C
:100D100011962C9111979C91492F50E061E070E061
:100D2000FB0102C0EE0FFF1F9A95E2F7CF0112966A
:100D30006C91129730E0662329F06091C10166231F
:100D400061F10BC0F901EE0FFF1FED54FE4F608102
:100D5000718168237923672B01F16CE0629FF001B8
:100D6000639FF00D11244E0F5F1F440F551FFA01B2
:100D7000E55FFE4FE4911196EC931197FA01E65F5F
:100D8000FE4FE491EC93220F331FF901ED54FE4F17
:100D900020813181822B932B0BC0220F331FF9014D
:100DA000ED54FE4F809590952081318182239323CD
:100DB000918380830895CF93DF93CDB7DEB72B97D0
:100DC0000FB6F894DEBF0FBECDBF4F83588769873B
:100DD0007A878B8761110E9422119F8188852A85DD
:100DE0003B85232B31F08F3F31F481E09F3F19F495
:100DF00003C081E001C080E080FD04C0CE01079601
:100E00000E9487069E012F5F3F4F86E0F9011192F5
:100E10008A95E9F785E0FE013796D90101900D9298
:100E20008A95E1F789819A814C815D81452B31F06A
:100E30009F3F31F491E08F3F19F403C091E001C06E
:100E400090E090FF09C049815A816B817C818D813E
:100E50009E810E94F70F05C0C9010E94860581117D
:100E6000F2CF2B960FB6F894DEBF0FBECDBFDF9149
:100E7000CF910895FC01808191810E94EB0C9295A5
:100E80009F70963051F4863F41F08091C10191E00E
:100E900089278093C1019093C0010895CF9388233F
:100EA00009F448C0C82F8CEF8C0F813AD0F46C2F16
:100EB00080910001909101010E947B1A882349F0E2
:100EC0006C2F80910001909101010E94061B0E94ED
:100ED00054116C2F80910001909101010E94FB1A26
:100EE0000CC080E28C0F883058F4C77081E001C0DC
:100EF000880FCA95EAF70E940211CF910C94541101
:100F0000EBE5EC0FE33040F4F0E0E15AFE4F808176
:100F100090E0CF910C94391AC85AC73158F4EC2F8D
:100F2000F0E0EE0FFF1FEF5CFE4F80819181CF91CB
:100F30000C944F1ACF910895882349F1682F8CEFB4
:100F4000860F813A38F480910001909101010E944E
:100F5000061B0CC080E2860F883050F4677081E079
:100F600001C0880F6A95EAF70E9408110C94541189
:100F70008BE5860F833020F480E090E00C94391AE2
:100F8000685A673120F480E090E00C944F1A08957D
:100F90001F93CF93DF93182FEB010E944E072097EA
:100FA00041F08FE99FE00197F1F700C00000219721
:100FB000F6CF812FDF91CF911F910C949C0789333D
:100FC00019F060E070E002C060E570E00C94C807C2
:100FD000882321F00E9402110C9454110895882353
:100FE00021F00E9408110C94541108958F929F9241
:100FF000AF92BF92CF92DF92EF92FF920F931F9327
:10100000CF93DF936C01C62F172FFC01D28105818E
:1010100002950F700E94D7108823B9F0DD23A9F044
:10102000812F807F803441F090E29C0F983068F0EF
:10103000803611F4C63F49F082E00E94A4110E945C
:10104000D71091E0E82EE92601C0E12CB12EB29430
:101050009FE0B9228B2D90E0FC01EA5AFF4F0C94DF
:10106000EC22012F0F70812F807F11F00295007FFD
:10107000DD2399F0002309F48AC180E28C0F8830C7
:1010800010F0C11104C0802F0E94021103C0802FF4
:101090000E9415110E9454117AC18C2F0E949C0746
:1010A000002309F4F7C180E28C0F883010F0C111E1
:1010B00004C0802F0E94081103C0802F0E941B11C2
:1010C0000E945411E7C1912F9F70812F807FF92ECC
:1010D000803219F0F29480EFF822CC2319F0C1305D
:1010E000C9F024C0DD2371F0002341F0013031F458
:1010F0000E9435118F290E943D11CCC10E943511EB
:101100008F290EC0002319F0013009F4C3C10E94D9
:101110004A111EC0DD2339F0023008F0BBC18F2D0B
:101120000E94E807B7C10111B5C112C0DD2319F053
:101130000023A9F32CC1002359F0C93309F038C1A9
:10114000FFEF27EE83E0F15020408040E1F72EC111
:101150008F2D0E94EF079EC1812F86958695837003
:1011600019F0813071F096C1DD2331F08C2F912F71
:1011700093700E94391A96C180E090E00E94391A5B
:101180009AC1DD2331F08C2F912F93700E944F1A5A
:1011900089C180E090E00E944F1A8DC1812F837039
:1011A00009F048C0D1117AC12C2F229526952770BD
:1011B000220F220F6C2F6F70862F90E0A0E0B0E01E
:1011C000022E04C0880F991FAA1FBB1F0A94D2F7D2
:1011D000C4FF10C04FE050E060E070E004C0440F76
:1011E000551F661F771F2A95D2F740955095609539
:1011F000709503C040E050E0BA01212F2695269556
:1012000023704A015B01882A992AAA2ABB2AC501B0
:10121000B401223049F058F4213019F00E94680BD3
:101220003DC10E94560B3AC10E947A0B37C10E9401
:10123000540B34C1DD2319F0812F817001C08695D4
:10124000882309F42BC12C2F229526952770220F75
:10125000220F6C2F6F70862F90E0A0E0B0E0022E7E
:1012600004C0880F991FAA1FBB1F0A94D2F7C4FF9E
:1012700010C04FE050E060E070E004C0440F551F24
:10128000661F771F2A95D2F7409550956095709507
:1012900003C040E050E0BA01212F26952695237027
:1012A0004A015B01882A992AAA2ABB2AC501B401EE
:1012B000223049F058F4213019F00E942D0CEEC074
:1012C0000E941B0CEBC00E943F0CE8C00E948E0BDA
:1012D000E5C0012F0F70DD2339F0802F0E94B40B81
:1012E0008C2F0E94E807DAC08C2F0E94EF07802F16
:1012F0000E94D50BD3C0C23FF9F028F4C03F41F0A3
:10130000C13F99F040C0C33FF1F0C43F31F13BC051
:10131000DD2339F00111BEC0812F8F710E94FA0BBD
:10132000B9C0023008F0B6C0F7CFDD2339F0812F05
:101330008F710E94B40BAEC0DD23C9F3812F8F7172
:101340000E94D50BA7C0DD2329F0812F8F710E9449
:101350009F0BA0C00E949A0B9DC0DD2351F0012F6E
:101360000F71802F0E94B40B63E0802F0E948911BF
:1013700091C081E00E94A411023008F48BC082E089
:101380000E94A41187C0DD2331F0002381F28C2F4D
:101390000E944E077FC0002389F2C93349F42FEF22
:1013A00087EE93E0215080409040E1F700C00000BC
:1013B0008C2F0E949C076EC0412F4F706C2FC6016E
:1013C0000E9463130E94190D6DC08C2F90E0FC01E8
:1013D000E05FF109E730F10578F5EA59FF4F0C9429
:1013E000EC22DD2309F450C09091C10181E08927EE
:1013F00005C0D093C10148C081E08D278093C10111
:1014000043C0D11141C081E0F9CFD1113DC010924C
:10141000C1013AC0DD2319F00E94AF1035C00E940F
:10142000BB1032C0DD2329F08091C0018823E1F296
:1014300029C00023C9F228C08091C0010023C1F057
:10144000882341F09091C10181E089278093C101F7
:101450001092C0018C2FDD2319F00E944E0714C09A
:101460000E949C0786E0F60111928A95E9F70CC06C
:10147000882351F0D11108C09091C10181E08927E2
:101480008093C1011092C001412F4F706C2FC60193
:101490000E94661388EF8B0D843020F40E94101A8E
:1014A0000E947E06DD2339F0107F103611F4C63F0E
:1014B00011F00E94C910EE20E9F00E94AB1080FDEF
:1014C00019C0F60112820E94A5100E94B40BC60139
:1014D0000E949F0A0E94A510DF91CF911F910F914A
:1014E000FF90EF90DF90CF90BF90AF909F908F9044
:1014F0000C94D50BDF91CF911F910F91FF90EF903E
:10150000DF90CF90BF90AF909F908F9008950F93F2
:101510001F93CF93DF93EC01688179818A810E94C8
:10152000F60C8C010E94510C0E94420BB801CE01B6
:101530000E94F607DF91CF911F910F910895CF93ED
:10154000DF93EC01988189812B813C81232B31F041
:101550008F3F31F481E09F3F19F403C081E001C067
:1015600080E080FD19C0CE010E94AD0581110CC044
:101570000E94D710882381F08A81882369F082E055
:10158000DF91CF910C94A411CE010E94870ACE0165
:10159000DF91CF910C948805DF91CF910895882336
:1015A00021F00E9415110C9454110895882321F004
:1015B0000E941B110C945411089580E090E00E9449
:1015C000391A80E090E00E944F1A0E9422110E9476
:1015D00032110C94541180910001909101010E94EC
:1015E000111B0C94DD0A0E9412110C94EB0AE92FD6
:1015F000E295EF704E2F50E0FA013297EE30F10590
:10160000B0F4E359FF4F0C94EC22803F91F018F4B2
:10161000883E68F40EC0843F51F40BC0883E48F009
:10162000813F29F406C093FB882780F9089580E064
:10163000089581E00895FC01808191810E94EB0C66
:101640000E94F70A0895CF93DF9300D000D01F9235
:10165000CDB7DEB70F900F900F900F900F90DF91E6
:10166000CF910895CF93DF9300D000D000D0CDB7B5
:10167000DEB726960FB6F894DEBF0FBECDBFDF9162
:10168000CF910895089508950C94430B0C94440B46
:101690000E94460B6093F3017093F4018093F5016F
:1016A0009093F6010C94DD0A0C94480B0F931F9352
:1016B0000091F3011091F4012091F5013091F601B0
:1016C000602B712B822B932B1F910F910C94480B45
:1016D0000F931F930091F3011091F4012091F501F4
:1016E0003091F60160237123822393231F910F9180
:1016F0000C94480B0F931F930091F3011091F40188
:101700002091F5013091F6016027712782279327F8
:101710001F910F910C94480B0C94430B0E948C0B5F
:101720006093EF017093F0018093F1019093F201C7
:101730000C94DD0A60E070E0CB010C948E0B0F93EB
:101740001F9341E050E060E070E08A019B0104C01B
:10175000000F111F221F331F8A95D2F7C901B8014C
:101760001F910F910C948E0B0F931F9341E050E04B
:1017700060E070E004C0440F551F661F771F8A9514
:10178000D2F78091EF019091F001A091F101B09119
:10179000F2018A019B01082B192B2A2B3B2BC90133
:1017A000B8011F910F910C948E0B0F931F9341E082
:1017B00050E060E070E004C0440F551F661F771FC3
:1017C0008A95D2F740955095609570958091EF017C
:1017D0009091F001A091F101B091F2018A019B0179
:1017E000082319232A233B23C901B8011F910F9114
:1017F0000C948E0B0F931F9341E050E060E070E07B
:1018000004C0440F551F661F771F8A95D2F7809139
:10181000EF019091F001A091F101B091F2018A01E4
:101820009B01082719272A273B27C901B8011F91C7
:101830000F910C948E0B0F931F930091EF01109159
:10184000F0012091F1013091F201602B712B822B7C
:10185000932B1F910F910C948E0B0F931F9300915C
:10186000EF011091F0012091F1013091F20160231C
:101870007123822393231F910F910C948E0B0F934E
:101880001F930091EF011091F0012091F10130912F
:10189000F20160277127822793271F910F910C94E3
:1018A0008E0B08952CE0929F800D1124E82FE69571
:1018B000E695E695877051E001C0550F8A95EAF7E5
:1018C00085E0E89FF0011124EE53FE4F20E030E068
:1018D00070E04081CB01022E02C0969587950A9454
:1018E000E2F78170819584278523842781932F5F78
:1018F0003F4F2530310569F708952CE0929F800D08
:101900001124682F669566956695982F977085E0E7
:10191000689FB001112440E050E080E0FB01E40F3B
:10192000F51FEE53FE4F208130E0092E02C03695A0
:1019300027950A94E2F721703327042E01C0220F65
:101940000A94EAF7822B4F5F5F4F4530510531F71C
:101950000895BF92CF92DF92EF92FF920F931F9361
:10196000CF93DF938C01C090EF01D090F001E09015
:10197000F101F090F2018091F3019091F401A091B6
:10198000F501B091F601C82AD92AEA2AFB2ACFE14B
:10199000D0E0D701C6010C2E04C0B695A795979547
:1019A00087950A94D2F780FD04C0219790F7B12C57
:1019B00007C0BC2EB8018C2F0E94A7140197A9F371
:1019C0008B2DDF91CF911F910F91FF90EF90DF90C2
:1019D000CF90BF900895CF93DF93EC010E94A90CA4
:1019E000BE010E94A714DF91CF9108951F93CF935A
:1019F000DF93EB019091BF01992321F0CB010E946D
:101A0000EB0C13C0882349F0CB010E94A90C182FBE
:101A1000682FCE010E94520C04C0CB010E947D0CA5
:101A2000182FBE01812F0E94A714DF91CF911F9123
:101A30000895EF92FF920F931F93CF93DF938C0142
:101A4000892B09F46CC0F12CEE24E394E801219673
:101A5000F8018491843740F4843008F051C081301B
:101A600081F0823019F15BC0853709F444C0A8F1D8
:101A70009CE7980F903708F052C08F770E949C0720
:101A800041C00E5F1F4FFE01849190E2980F983085
:101A900050F48770FE2D01C0FF0F8A95EAF78F2F53
:101AA0000E94251114C00E944E072DC00E5F1F4FCB
:101AB000FE01849190E2980F983060F48770FE2DBB
:101AC00001C0FF0F8A95EAF78F2F0E942B110E9409
:101AD000541119C00E949C0716C00E5F1F4FFE01D3
:101AE000C491CC2381F08FE99FE00197F1F700C00A
:101AF0000000C150F6CF0E5F1F4FFE01F49003C0EF
:101B00000E944E078E018F2D882309F49FCFEFE9A5
:101B1000FFE03197F1F700C000008150F5CFDF9171
:101B2000CF911F910F91FF90EF9008951F93CF9346
:101B3000DF93C091F70116E08091F801C81799F082
:101B4000D0E01C9FF0011D9FF00D1124E750FE4FC7
:101B50004081518162817381848195810E94320B21
:101B60002196C770E9CFDF91CF911F9108954091E1
:101B7000290250912A0260912B0270912C028091CF
:101B80002D0290912E020C94320B0F931F93CF9342
:101B9000DF9380912E0282958F7009F05DC0809155
:101BA0002B02882309F458C08091F7011091F801A5
:101BB0006091290270912A02C0912C02D0912D02CD
:101BC00091E06F3F09F090E0292F06E0811709F4BA
:101BD00043C0209721F07F3F21F030E003C031E087
:101BE00001C0322F90E030FD34C0089FF001099F02
:101BF000F00D1124DF01A750BE4F11963C911197B3
:101C0000371327C03C91361324C012963C9112978B
:101C100031111FC013964D915C9114974C1B5D0BB5
:101C2000483C5105B0F480912E028F708061809302
:101C30002E02E250FE4F80818F708061808389E2A6
:101C400092E00E949F0ADF91CF911F910F910C9417
:101C5000960D01968770BACFDF91CF911F910F91AA
:101C600008959F92AF92BF92CF92DF92EF92FF9230
:101C70000F931F93CF93DF93CDB7DEB761970FB666
:101C8000F894DEBF0FBECDBF8C0185E0F801DE0108
:101C90001D9601900D928A95E1F7F801E2809091EE
:101CA000290260912A0220912C0230912D022115E7
:101CB000310531F06F3F31F481E09F3F19F403C0EB
:101CC00081E001C080E0F82FF1709F2E80FD3FC1C0
:101CD000F80140815181A380B48089E2C82E82E05E
:101CE000D82EF0902B02F501E21BF30BFF2009F434
:101CF000D9C080912E02E83CF10508F095C0282F4C
:101D0000207F09F052C0561313C0491311C0FE2C96
:101D1000E1100EC08F70806180932E020E94B70D7B
:101D2000C6010E949F0A80912E02F80185834CC152
:101D3000AB2831F05F3F31F481E04F3F19F403C02D
:101D400081E001C080E080FD03C081E08E2502C0FB
:101D500080E090E0F82FF170FF2E80FF1CC0809192
:101D6000F7012091F80136E0821709F40BC190E0E9
:101D7000389FF001399FF00D1124E750FE4F61812B
:101D8000561306C06081461303C06281E61203C089
:101D900001968770E9CFFE2CEE2009F415C18091E1
:101DA0002E02816080932E0254C0561306C0491340
:101DB00004C0E11002C0F80199C0C8010E941B0BC9
:101DC000882361F1EE2051F120912E02822F82951D
:101DD0008F7090E0029774F08091290290912A020E
:101DE00098878F831986BB86AA862C87CE01079693
:101DF0000E949F0A86E0F801A9E2B2E001900D92EC
:101E00008A95E1F70E94C50D0E94B70D0AC05617CA
:101E100011F1C8010E941B0B81112CC0C8010E9446
:101E20009F0AFF24F394D0C0282F207F81F77A2DBA
:101E3000B98AA88A6E2D89890E94230B89E292E0D3
:101E40000E949F0A86E0F60111928A95E9F70E94A6
:101E5000B70DF12CB9C04913DCCFE110DACFF8018E
:101E60008583C8010E949F0A86E0F60111928A9537
:101E7000E9F7AAC0EE2091F220912E02822F8295DE
:101E80008F7090E002970CF4B5CF80912902909169
:101E90002A029A8389831B82BD82AC822E83CE0163
:101EA0000196A6CFE83CF10508F044C0FE2CEE20D8
:101EB00009F4B4CF561330C049132EC020912E021E
:101EC00020FD21C0822F82958F70482F50E0411550
:101ED0005105C9F0F80125834F30510541F08F5F5E
:101EE000982F9295907F822F8F70892B8583C801C0
:101EF0000E949F0A86E0F801A9E2B2E001900D92EB
:101F00008A95E1F73CC086E0F801A9E2B2E00190D1
:101F10000D928A95E1F758C0C8010E941B0B8111F0
:101F200069CF80912E02816080932E02C8010E94A9
:101F30009F0A4AC07A2DB98AA88A6E2D89890E9483
:101F4000230B86E0F60111928A95E9F718C0EE207E
:101F500009F464CFC8010E941B0BF82E882309F4F2
:101F60005DCF86E0F801A9E2B2E001900D928A957A
:101F7000E1F789E292E00E943A070E94C50D0E94B3
:101F8000B70D22C04D875E878D859E850E94EB0C24
:101F9000292F22952F70223028F49F7039F081115B
:101FA00005C00BC0243028F49F7049F4805E88304F
:101FB00020F0C8010E949F0A9F2CF92C05C0F8014F
:101FC0009581907F99F7F9CF8F2D61960FB6F89490
:101FD000DEBF0FBECDBFDF91CF911F910F91FF905C
:101FE000EF90DF90CF90BF90AF909F9008951F9398
:101FF000CF93DF93CDB7DEB72C970FB6F894DEBF43
:102000000FBECDBF4F83588769877A878B879C87A0
:10201000CE0107960E94310E8823D1F09F818885DA
:102020002A853B85232B31F08F3F31F481E09F3FA0
:1020300019F403C081E001C080E080FD47C04F81FA
:10204000588569857A858B859C850E94320B3EC0B8
:1020500086E0FE013796DE01119601900D928A9579
:10206000E1F7FF81E8856A857B856115710531F0AF
:10207000EF3F31F481E0FF3F19F403C081E001C07C
:1020800080E080FD23C02091F80130E0C901019675
:10209000877099274091F70150E084179507F1F177
:1020A000F983EA837D836C8396E0929FD001939FAE
:1020B000B00D1124A750BE4FFE01319601900D9234
:1020C0009A95E1F78093F8010E94960D16E08091B1
:1020D000F7019091F801891771F1189FC00111243F
:1020E00087509E4F0E94310E882329F1E091F7011D
:1020F0001E9FF0011124E750FE4F40815181628103
:102100007381848195810E94320B8091F70190E068
:102110000196877099278093F701D9CF0E94F30A1F
:102120001092F8011092F701E9E2F2E086E0DF0197
:102130001D928A95E9F72C960FB6F894DEBF0FBE74
:10214000CDBFDF91CF911F91089580913002859589
:10215000859585950895809130028770089582E075
:1021600080932F0281E08093C101089510922F0285
:102170001092C101089580912F02823019F481E0FC
:1021800080932F0280912F02833011F40C94B610AB
:10219000089580912F02823019F483E080932F02FA
:1021A00080912F02813011F40C94B6100895909113
:1021B0003002977081E009F480E0089590919E02CA
:1021C00092FB222720F9281751F080FB92F9909377
:1021D0009E0280919D0290919E020C94E5110895BB
:1021E00080919E0282FB882780F991E089270C94D8
:1021F000DE1081E00C94DE1080E00C94DE10809103
:102200005402089590915402892B809354020895AA
:10221000809590915402892380935402089580936D
:102220005402089510925402089590915302892BFC
:10223000809353020895809590915302892380934F
:102240005302089510925302089590915202892BDF
:102250008093520208958095909152028923809331
:102260005202089510925202089580913102089509
:1022700008950C9438110C94391190919E0292FD9E
:1022800008C090913102981721F0809331020C948C
:102290003B11089580913102882329F01092310278
:1022A00080E00C943B110895E0910001F091010150
:1022B000809154028083E0910001F09101019081AE
:1022C00080915302892B8083E0910001F0910101FC
:1022D000908180915202892B8083809131028823E2
:1022E00081F0E0910001F09101019081892B8083C0
:1022F00080910001909101010E94651A81110E9454
:102300004A1180910001909101010C941F1A0C94C4
:10231000381190919E0292FD10C098E0899F900123
:102320001124262B209330020E94B40B809130029E
:102330008595859585950C9487110C94B40B109216
:10234000300280E00C948711209130028095822326
:1023500080933002982F977041F430E0482F082E78
:10236000000C550B2417350721F490919E0292FF23
:1023700007C08595859585950E94D50B0C949F1176
:10238000089580E090E00E94FA2221E0893E9E4F6D
:1023900009F020E0822F089582E090E00C94F22270
:1023A00083E090E00C94F222CF9384E090E00E94CE
:1023B000F222C82F82E290E00E94F2222C2F30E01D
:1023C000A901582BCA01CF910895CF93C92F682F27
:1023D00084E090E00E9400236C2F82E290E0CF9195
:1023E0000C940023AB01BC018FE090E00C9412230D
:1023F000AB01BC0183E190E00C94122360E070E03B
:10240000CB010C94F81160E070E0CB010E94F21156
:102410000C94FE1169EE7EEF80E090E00E941E2396
:1024200060E082E090E00E94002360E083E090E0C2
:102430000E9400231092F3011092F4011092F50112
:102440001092F60160E084E090E00E94002360E0DA
:1024500082E290E00E94002360E085E090E00E942C
:10246000002360E086E090E00E9400236FEF87E0A9
:1024700090E00E94002340E050E0BA0188E090E044
:102480000E94122360E08DE090E00E94002340E073
:1024900050E0BA0188E190E00E94122360E087E1F9
:1024A00090E00E94002340E050E0BA018CE190E00F
:1024B0000E94122360E070E080E290E00E941E2300
:1024C00040E050E0BA0188E190E00E9412230C94B1
:1024D00003120C940A12682F8EE090E00C940023F3
:1024E0000E94B81B60936602709367028093680233
:1024F0009093690260936202709363028093640216
:1025000090936502089585B7806885BF85B7806818
:1025100085BF089581E008950C948A1208950C9463
:102520008E120C948E120C9491120C948E120C94A8
:1025300095120C948E120E94831283E895E10E94FA
:102540002B1C0E9499120C9497120E948F120C94CB
:102550008E120E94A31B0E9475030C9493126F921B
:102560007F928F929F92AF92BF92CF92DF92EF9223
:10257000FF920F931F93CF93DF93CDB7DEB72A97C8
:102580000FB6F894DEBF0FBECDBF0E94AC03811121
:102590000E94701236E5832E32E0932E00E010E0A8
:1025A000C02E802F0E94CD045C01F40161907190D7
:1025B0004F016826792661147104B1F40F5F1F4F33
:1025C0000630110569F78FEF89838A831B820E9489
:1025D000AC1B8160782F9D838C8349815A816B81EC
:1025E0008D810E94DB063AC080916A0281FD0E94C3
:1025F000D604D12CEE24E394F12CC3018E219F212B
:10260000892B29F10E948C128823A9F0DE82CF82C7
:10261000AE20BF2081E0AB2809F480E088870E94CB
:10262000AC1B8160782F9A8789874E815F8168858E
:102630008A850E94DB06000F111FF801EA5AFD4F40
:1026400080819181E826F926F182E08207C0D39447
:10265000EE0CFF1CFCE0DF12D0CFB0CF0E94101AAE
:10266000909155028917D1F00E94101A809355025B
:102670002A960FB6F894DEBF0FBECDBFDF91CF9183
:102680001F910F91FF90EF90DF90CF90BF90AF9090
:102690009F908F907F906F900C947E062A960FB635
:1026A000F894DEBF0FBECDBFDF91CF911F910F9188
:1026B000FF90EF90DF90CF90BF90AF909F908F9062
:1026C0007F906F90089580E090E00895089528E449
:1026D000829FC0011124FC012CE0729FE00DF11DCE
:1026E0001124E60FF11DEE0FFF1FE656FE4F8591F8
:1026F00094910895880F991FFC01E657FB4F85912F
:1027000094910895CF93DF930E94AC14EC0181154E
:1027100021E59207E8F5811530E5930708F0B6C08A
:10272000883E910500F5803E910508F00CC1883A7D
:10273000910570F4853A910508F086C081309105C5
:1027400009F47FC008F4FCC0049708F0FCC0F8C08E
:102750008F3B910508F481C0803C910508F4F0C0DE
:10276000805C910986C0811540E3940758F4811577
:1027700050E2950708F07CC0C11581E0D80708F049
:10278000E2C0DEC0811520E4920708F07CC074C06E
:10279000811536E5930770F5811545E5940708F036
:1027A000AFC0811553E5950750F4C11582E5D807F0
:1027B00008F08BC09C2F8827816F906AC5C0811557
:1027C00024E5920708F097C09C012370332781E02D
:1027D00090E0AC0102C0440F551F2A95E2F72C2F60
:1027E0002695269530E2239FC0011124842B952B3A
:1027F0009A68AAC0811539E5930768F4811548E500
:10280000940708F085C0811557E5950708F098C032
:102810009927906699C0C1158AE5D80708F47DC04C
:10282000CE0190568115904208F08AC08D2F8F718D
:102830000E9440159E01332730628F71A901582BE9
:102840007DC081E090E080C0855AC82FD0E0C0579D
:10285000DE4F888190E0906477C0885AC82FD0E01E
:10286000CC0FDD1FCE59DE4F8881998194646CC0F6
:102870009F700E947A1368C09927D3FF02C0986C9A
:1028800063C0906C61C09F70906A5EC0F4E09695E2
:102890008795FA95E1F7282F23703C2F337081E05C
:1028A00090E002C0880F991F3A95E2F79C68AC014E
:1028B000522B8C2F8F70282F2695269530E2239F40
:1028C000C0011124842B952B3FC09E012370332718
:1028D00081E090E0AC0102C0440F551F2A95E2F759
:1028E0002C2F2695269530E2239FC0011124842B9E
:1028F000952B9C6829C0982F8827846F906A24C0E4
:102900000E9440158F7190E0982F882790621CC01C
:10291000982F8827806F906A17C08C2F8F700E9425
:1029200040159E0194E0369527959A95E1F72F7012
:1029300030E0322F22273069A901482BCA0104C098
:1029400080E090E001C0CE01DF91CF9108950E9418
:1029500067130E94821308958238910569F1B0F4DB
:102960008133910509F46DC048F48932910509F469
:1029700063C08A32910509F469C0089585339105D1
:1029800009F455C089339105B9F00895833E910546
:1029900069F138F4803E9105B1F0823E910509F16C
:1029A0000895863E9105A9F1873E9105B9F1843ECF
:1029B000910509F064C023C020919D0220FD4FC005
:1029C00021FD4DC0089580919D0280FD44C08091FD
:1029D0009E0280FF44C080919D0284FD42C083EE30
:1029E0004DC080919D0282FF38C0F5CF80919D023D
:1029F00082FD33C080919E0280FD31C0ECCF80917A
:102A00009E0281FF32C080919D0284FD2AC087EE24
:102A100035C080919D0283FF26C0F5CF80919D0235
:102A200083FD21C080919E0281FD1FC0ECCF80916B
:102A30009D0285FD1CC01DC080919D0285FD19C0B1
:102A400016C080919D0286FD16C017C080919D0220
:102A500086FD13C010C089E311C082EE0FC080EE66
:102A60000DC080E00BC086EE09C084EE07C089E28D
:102A700005C085E303C08AE201C081E390E00895C8
:102A800090919D0292FF0DC0282F2871283019F4D3
:102A9000877F846006C0282F2471243011F48B7F37
:102AA000886093FF0DC0282F2871283119F4877E84
:102AB000846106C0282F2471243111F48B7E886133
:102AC00020919E0220FF0DC0382F3871383019F444
:102AD000877F816006C0382F3171313011F48E7FCD
:102AE000886021FF0DC0282F2871283119F4877EB6
:102AF000816106C0282F2171213111F48E7E8861F9
:102B000094FD877E089580E0089508950E94C11184
:102B1000811102C00E9469120E94CC1180936A0246
:102B20000E94D41190939E0280939D020E9485156D
:102B30000E94D011682F70E080E090E00E94540B5A
:102B40006091EF017091F0018091F1019091F2019B
:102B50000C948C0B0E94231B0E94831D0E949C1DC1
:102B60000E94AE1D0E94A512FBCFCF93DF9397FF6B
:102B70000DC0FB012281222349F0EC010E94E015E7
:102B8000CE019F770E9437160E94191681E0DF91CF
:102B9000CF9108958CE090E00E94F22290E0A0E0B6
:102BA000B0E080939F029093A002A093A102B09303
:102BB000A202089560919F028CE090E00C940023A3
:102BC0000E941C1A869581708093A40290919F02A6
:102BD000913029F4882319F089E30E94DF070E94CD
:102BE000FF108093A3020E94121180919F028130F6
:102BF00071F048F0823081F08430A1F486EE0E94BA
:102C0000DF0788E10DC082EE0E944E070BC088E10D
:102C100093E00E94370506C082EE0E944E0787E5CA
:102C20000E94DF078FE39CE90197F1F700C00000E5
:102C3000089580919F02813039F078F0823069F0F8
:102C4000843089F488E20DC08CE20E94DF07809115
:102C5000A402882341F089E304C082EE0E949C070D
:102C600002C00E94DF078091A3020C940F110F9302
:102C70001F93CF93DF938C01CCE0D0E0C8010C2EE2
:102C800002C0969587950A94E2F78F700E946C06B1
:102C90002497CC3F8FEFD80789F7DF91CF911F9111
:102CA0000F9108950F931F93CF93DF93EC018B0146
:102CB000FB018281882361F00E94FF10CE01825EB9
:102CC0009C458530910520F480939F020E94DA157F
:102CD000B801CE01DF91CF911F910F910C94B515E2
:102CE0000F931F93CF93DF93C42FD22FFC018281C8
:102CF0008823C9F040936D020E94AC1B90936C0234
:102D000080936B0280E28C0F883008F057C0C77048
:102D100081E001C0880FCA95EAF7DF91CF911F913A
:102D20000F910C94E80780916D02481330C0809198
:102D30006B0290916C020E94C41B883C910538F58F
:102D400010E21D0FCD17B9F080E28C0F883040F4EF
:102D5000C77081E001C0880FCA95EAF70E94EF07AB
:102D6000183028F581E09D2F977001C0880F9A9543
:102D7000EAF70E94E807802F0E94DF071830F0F47E
:102D8000D77081E001C0880FDA95EAF70AC080E2C7
:102D90008C0F883098F4C77081E001C0880FCA9505
:102DA000EAF7DF91CF911F910F910C94EF07802FDD
:102DB000DF91CF911F910F910C94DF07DF91CF919D
:102DC0001F910F9108950F939C01CB01243F4CE577
:102DD000340731F188F4293DFCE53F07D9F02A3D5D
:102DE0004CE5340779F1283D3C45A9F506E221EE92
:102DF00041EE68ED7CE52BC0263FFCE53F07E1F0A6
:102E0000A8F0273F3C4539F507E225EE46EE67EF8F
:102E10007CE51DC007E225EE45EE69ED7CE517C0B7
:102E200006E221EE40EE64EF7CE511C007E225EEFC
:102E300044EE65EF7CE50BC006E221EE42EE66EF64
:102E40007CE505C008E221E045EE6AED7CE50E94E4
:102E5000701680E008C0FC018281882319F010926E
:102E60006D0201C081E00F910895CF93DF93EC01D3
:102E7000FB018281882309F41FC1C230FCE5DF0712
:102E800008F41BC1C6319CE5D90738F09E012B5FC1
:102E90003C452930310508F010C10E94D4119093AF
:102EA0009E0280939D02C031ECE5DE0709F4C3C0A9
:102EB00008F041C0C8308CE5D80709F49AC0F0F496
:102EC000C430ECE5DE0709F487C068F4C2308CE555
:102ED000D80709F477C0C330DC4509F0E3C080911E
:102EE0009D02826076C0C630ECE5DE0709F46EC054
:102EF00008F07BC080919D0288606BC0CC308CE56F
:102F0000D80709F485C068F4CA30ECE5DE0709F497
:102F100074C008F079C00E94F30A80919D02806815
:102F200058C0CE308CE5D80709F476C008F07FC0D1
:102F300080919D028BC0CC3FECE5DE0709F44FC0C9
:102F400018F5C3318CE5D80709F47DC078F4C13198
:102F5000ECE5DE0709F473C0C231DC4509F0A2C01C
:102F60000E94F30A80919D028F7733C0C5318CE5B2
:102F7000D80709F472C008F486C0CB3FDC4509F0DD
:102F800091C080919E023EC0C115FDE5DF0709F4A6
:102F90005FC058F4CE3F9CE5D90709F444C008F45B
:102FA0003FC080919E0282602DC0C230FDE5DF07E8
:102FB00009F475C008F45DC0C330DD4509F072C086
:102FC00080E06EC080919D02816003C080919D026F
:102FD000806180939D0266C080919D0211C08091A6
:102FE0009E02826080939E025DC080919D028062FD
:102FF000F0CF80919D028064ECCF80919D0288602B
:103000008460E7CF8160EECF80919D028E7FE1CF1B
:1030100080919D028D7FDDCF80919D02877FD9CFEA
:1030200080919E0218C080919E028D7FDBCF80919F
:103030009D028F7ECECF80919D028F7DCACF8091E1
:103040009D028F7BC6CF80919D02877F8B7FC1CFF2
:1030500080919E028D7F8E7FC5CF80919D0282FBE5
:10306000222720F991E0922790FB82F990FB83F9C7
:10307000B0CF80919E02982F909591708E7F892B72
:1030800090FB81F9AFCF0E94F30A80919D0287FBEC
:10309000222720F991E0922790FB87F99ACF81E0CF
:1030A0000E946B1280919D0290919E020E94E511F8
:1030B0000E94F30A80E001C081E0DF91CF91089582
:1030C000CF93DF9386319C4541F5EB010E94FF10C1
:1030D000982F8A812091000130910101882379F095
:1030E0009A7A81E009F480E080936E02911102C027
:1030F00069E201C065E3C9010E94FB1A0AC0809120
:103100006E02811102C069E201C065E3C9010E943B
:10311000061B0E94541180E001C081E0DF91CF9135
:1031200008951092B9008CE08093B80008959F92A2
:10313000AF92BF92CF92DF92EF92FF920F931F93C5
:10314000CF93DF93B82EEB010E94AC1B6C01C4310E
:10315000D10558F0CF3F8FEFD80759F0CE0164E189
:1031600070E00E94D8227B0107C0EE24E394F12C8A
:1031700003C025E0E22EF12C84E8A82E94EA992ED3
:103180001092BC009092BC000E94AC1B8C018091FC
:10319000BC0087FD08C00E94AC1B801B910B8E15E4
:1031A0009F05A8F32AC08091B900887F883041F03C
:1031B0008091B900887F803119F00FEF1FEF1FC099
:1031C000B092BB00A092BC000E94AC1B8C0180910D
:1031D000BC0087FD08C00E94AC1B801B910B8E15A4
:1031E0009F05A8F30AC08091B900887F883111F04B
:1031F000803419F700E010E00EC00EEF1FEFCF3F54
:103200008FEFD80709F4BCCFC6010E94C41B8C17EE
:103210009D0708F4B5CFC801DF91CF911F910F91A1
:10322000FF90EF90DF90CF90BF90AF909F90089568
:103230000F931F93CF93DF93EB018093BB0084E840
:103240008093BC000E94AC1B8C018091BC0087FD68
:103250000EC0CF3F8FEFD807C1F30E94AC1B801B7D
:10326000910B8C179D0788F38EEF9FEF0CC0209178
:10327000B900287F81E090E0283211F480E090E0EE
:10328000919581959109DF91CF911F910F910895AB
:103290000F931F93CF93DF93EC0184EC8093BC00DA
:1032A0000E94AC1B8C018091BC0087FD0EC0CF3FFB
:1032B0008FEFD807C1F30E94AC1B801B910B8C17BA
:1032C0009D0788F38EEF9FEF03C08091BB0090E0D5
:1032D000DF91CF911F910F9108950F931F93CF937B
:1032E000DF93EC0184E88093BC000E94AC1B8C014E
:1032F0008091BC0087FD0EC0CF3F8FEFD807C1F390
:103300000E94AC1B801B910B8C179D0788F38EEFDE
:103310009FEF03C08091BB0090E0DF91CF911F91A0
:103320000F910895CF92DF92EF92FF920F931F9328
:10333000CF93DF93C62F6A017901B8010E949718D5
:1033400097FD11C0B8018C2F0E941819E601EC0CF2
:10335000FD1CCE15DF0539F097FD05C0B801899138
:103360000E941819F6CF24E92093BC00DF91CF9179
:103370001F910F91FF90EF90DF90CF900895CF9223
:10338000DF92EF92FF920F931F93CF93DF93D82E8C
:10339000C62E7A01E901B8010E94971897FD2AC04C
:1033A000B8018C2D0E94181997FD24C0B8018D2DED
:1033B00081600E9497186701219796012E193F0995
:1033C0002C173D0768F497FD15C0C8010E944819E5
:1033D00097FD02C0F6018083FFEFCF1ADF0AEDCF21
:1033E00097FD08C0C8010E946D1997FD03C0CE0D5E
:1033F000DF1D888324E92093BC001816190614F4F5
:1034000080E090E0DF91CF911F910F91FF90EF90BE
:10341000DF90CF9008959093740280937302089583
:10342000E0917302F0917402309721F00190F081E5
:10343000E02D099480E008950E94101A0895E0910B
:103440007302F0917402309799F020910C012223BD
:1034500059F020919D0227FF07C0DC012C911196A5
:103460002C93119725E02C930280F381E02D099491
:10347000089520917102309172022817390771F076
:103480009093720280937102E0917302F091740242
:10349000309721F00680F781E02D0994089520915E
:1034A0006F02309170022817390771F09093700203
:1034B00080936F02E0917302F0917402309721F0D3
:1034C0000084F185E02D09940895FC0132968091E5
:1034D0000C01882331F080919D0287FF02C09EE19C
:1034E00001C096E080E0915028F021912223D9F389
:1034F0008F5FF9CF0895662351F120910C012223AB
:10350000E9F020919D0227FF19C0462F4695469568
:1035100046954E31E0F4677021E030E002C0220FA2
:10352000331F6A95E2F7FC01E40FF11D828190E000
:103530002823392381E0232B69F409C0FC0132964A
:1035400008962191621729F0E817F907D1F780E072
:10355000089581E008959C01FC0132969FEF80E080
:103560004191461789F09F3F19F4411101C0982FEE
:103570008F5F8630A9F79F3F39F0F901E90FF11D00
:1035800097FDFA956283089508959C012A5F3F4F45
:10359000FC014281461301C01282019682179307F3
:1035A000B9F70895262F2695269526952E3168F48D
:1035B000FC01E20FF11D677021E030E001C0220F35
:1035C0006A95EAF78281282B22830895262F269573
:1035D000269526952E3170F4FC01E20FF11D6770DF
:1035E00021E030E001C0220F6A95EAF72095828140
:1035F00028232283089520910C01222329F0209171
:103600009D0227FD0C94D21A0C94AB1A20910C0148
:10361000222329F020919D0227FD0C94E61A0C9498
:10362000C51A20910C01FC013296222331F08091C1
:103630009D0287FF02C08EE101C086E0DF011D927E
:103640008A95E9F70895089508950C94241B0C9425
:10365000241BCF930E94271B0E94AC030E94251BB2
:10366000C0E08C2F0E94CD04892B29F4CF5FC63097
:10367000C1F780E001C081E0CF9108950C94241B34
:103680000C943E1B8091AD02843049F10E94401B96
:1036900080E00E947E061092750220E488E190E0AE
:1036A0000FB6F894A895809360000FBE2093600039
:1036B00083B7817F846083BF83B7816083BF789441
:1036C000889583B78E7F83BF0FB6F894A8958091B5
:1036D0006000886180936000109260000FBE0895C2
:1036E0000C94241B0E94F30A0E94101A0E947E066A
:1036F0000C94701B1F920F920FB60F9211248F9390
:103700009F93AF93BF9380917502811113C08091F5
:10371000A5029091A602A091A702B091A80241969D
:10372000A11DB11D8093A5029093A602A093A702AC
:10373000B093A802BF91AF919F918F910F900FBE50
:103740000F901F90189582E084BD93E095BD9AEF8D
:1037500097BD80936E0008952FB7F8948091A502CD
:103760009091A602A091A702B091A8022FBF089540
:103770002FB7F8946091A5027091A6028091A702DC
:103780009091A8022FBF08959C014FB7F8948091A3
:10379000A5029091A602A091A702B091A8024FBFE6
:1037A000821B930B089578941F920F920FB60F927D
:1037B00011248F939F93AF93BF938091A502909113
:1037C000A602A091A702B091A8020196A11DB11D69
:1037D0008093A5029093A602A093A702B093A8029B
:1037E000BF91AF919F918F910F900FBE0F901F903F
:1037F0001895F89481E08093E00080E28093D800EF
:10380000E9ECF0E010828FE19EE40197F1F700C04F
:1038100000001DBA109268001CBC10BE1FBA1092A6
:103820007A0010926E0010926F0010927100109248
:1038300072001082ECEBF0E0108214B817B81AB8DE
:103840001DB810BA108215B818B81BB81EB811BA36
:103850000C94003F089590939501809394010895EE
:103860008091990208959091AD02943031F5809342
:103870007602709378026093770282E08093E90089
:103880008FEF9091E800815095FD06C095ED9A95D7
:10389000F1F700008111F5CF8091E80085FF0DC0A0
:1038A00040E050E063E070E086E792E00E943A1E5C
:1038B0008091E8008E778093E8000895BC0184E051
:1038C0000C94331CBC0183E00C94331CCF93DF9326
:1038D00020910C01222339F020919D0227FF03C083
:1038E00060E222E002C068E021E02093E9002FEFCF
:1038F0003091E800215035FD06C035ED3A95F1F7DD
:1039000000002111F5CF2091E80025FF1DC0EC013A
:1039100080910C01811105C040E050E068E070E04A
:1039200003C070E040E050E0CE010E943A1E80915A
:10393000E8008E778093E80080E2FE01A9E7B2E01C
:1039400001900D928A95E1F7DF91CF910895089546
:103950008091AC02811109C00E94CB1F0E942820D7
:103960008091E20084608093E20008951092AC029E
:10397000089508950895089542E061EC81E00E9461
:10398000441F42E261EC82E00C94441F8091AF023C
:10399000833009F460C030F4813071F0823009F472
:1039A00099C008958A3009F485C08B3009F46BC042
:1039B000893009F0A7C020C08091AE02813A09F099
:1039C000A1C08091E800877F8093E8008091B202D7
:1039D0009091B302892B21F460E289E792E003C061
:1039E00060E080E090E070E00E94851E8091E80039
:1039F0008B778093E80008958091AE02813209F0C0
:103A000081C08091B2029091B302029708F07AC00F
:103A10008091E800877F8093E8008091E80082FD34
:103A200005C08091AD028111F8CF6CC02091F300E8
:103A30008091F20090E0922B029729F48091F1009E
:103A40008B7F813021F48091F100809399028091E5
:103A5000E8008B7753C08091AE02813A09F052C0E2
:103A60008091B2029091B302892B09F04BC08091F2
:103A7000E800877F8093E8008091E80080FFFCCF1A
:103A800080910C0136C08091AE028132D9F58091CF
:103A9000B2029091B302892BA9F58091E800877F4B
:103AA0008093E8000E94791F8091B00280930C01FE
:103AB0000C94F30A8091AE02813221F58091E800E6
:103AC000877F8093E8000E94791F8091B1028093E4
:103AD0009A0208958091AE02813AA1F48091E800A3
:103AE000877F8093E8008091E80080FFFCCF809181
:103AF0009A028093F1008091E8008E778093E8002D
:103B00000C94791F089584B7877F84BF0FB6F8940B
:103B1000A895809160008861809360001092600099
:103B20000FBE90E080E80FB6F89480936100909308
:103B300061000FBE0C949B120E94CB1F0E94282094
:103B4000E2EEF0E080818460808378940E94BD2260
:103B50000E94A91282E091E00C940B1A8091AD02B0
:103B60008530A9F48091AD02853079F40E94421B22
:103B70008091AB028823B1F30E94291B882391F323
:103B80000E94241E0E94F30AEDCF0E94721B0C9427
:103B9000AF120C94CB1D292F332723303105C9F0E8
:103BA00060F42130310581F02230310509F044C044
:103BB0008BE390E020EB34E043C021323105E1F0AB
:103BC0002232310549F138C082E190E02BEE34E039
:103BD00037C099278130910549F028F0029761F5A7
:103BE000EAE8F4E005C0ECEAF4E002C0EAE9F4E057
:103BF000849190E09F0124C06115710541F061300E
:103C00007105D1F489E090E02BED34E019C089E032
:103C100090E022EC34E014C06115710541F0613090
:103C2000710551F48DE690E02DEF34E009C080E499
:103C300090E02AE635E004C080E090E020E030E04B
:103C4000FA0131832083089580E189BD82E189BD35
:103C500009B400FEFDCF8091D8008F7D8093D800FD
:103C60008091E00082608093E0008091E00081FD1F
:103C7000FCCF0895CF92DF92EF92FF920F931F93A4
:103C8000CF93DF93EC018B017A010E94981F811181
:103C900033C0E114F10439F0F70180819181081BF0
:103CA000190BC80FD91FC12CD12C0115110519F101
:103CB0008091E80085FD16C08091E8008E778093A2
:103CC000E800E114F10449F0F70180819181C80E08
:103CD000D91ED182C08285E00FC00E94981F882320
:103CE00021F30AC089918093F10001501109FFEF7F
:103CF000CF1ADF0ADACF80E0DF91CF911F910F91C9
:103D0000FF90EF90DF90CF9008952091B402309112
:103D1000B5022617370748F06115710539F420916F
:103D2000E8002E772093E80001C0B901FC0120E0F3
:103D30006115710579F18091AD028823F1F185302B
:103D4000F1F18091E80083FD3CC08091E80082FDA4
:103D50002EC08091E80080FFEBCF2091F30080918E
:103D6000F20090E0922B6115710551F088309105B9
:103D700038F421912093F100615071090196F3CF3D
:103D800021E0089709F020E08091E8008E77809389
:103D9000E800CECF2111CFCF0AC08091AD02882399
:103DA00061F0853061F08091E80083FD0AC0809168
:103DB000E80082FFF2CF80E0089582E0089583E07A
:103DC000089581E008952091B4023091B50226173C
:103DD000370748F06115710539F42091E8002E7716
:103DE0002093E80001C0B901FC0120E061157105D4
:103DF00091F18091AD02882309F440C0853009F427
:103E00003FC08091E80083FD3DC08091E80082FDC5
:103E10002FC08091E80080FFE9CF2091F3008091CE
:103E2000F20090E0922B6115710559F088309105F0
:103E300040F424912093F10031966150710901966C
:103E4000F2CF21E0089709F020E08091E8008E771A
:103E50008093E800CBCF2111CCCF0AC08091AD0276
:103E6000882361F0853061F08091E80083FD0AC00D
:103E70008091E80082FFF2CF80E0089582E008950B
:103E800083E0089581E00895982F973068F5909326
:103E9000E900981739F07091EC002091ED005091F5
:103EA000F00003C0242F762F50E021FD02C09F5F59
:103EB000ECCF3091EB003E7F3093EB003091ED0082
:103EC0003D7F3093ED003091EB0031603093EB009B
:103ED0007093EC002093ED005093F0002091EE00E1
:103EE00027FDE5CF80E008958F708093E90081E0A1
:103EF00008958091AE0287FF11C08091E80082FD95
:103F000005C08091AD028111F8CF11C08091E80009
:103F10008B770BC08091AD02882349F08091E80037
:103F200080FFF8CF8091E8008E778093E8000895B5
:103F30002091E4003091E50095E64091EC00842F5B
:103F4000817040FF23C08091E80080FD1DC08091FA
:103F5000AD02882399F0853099F08091EB0085FDC2
:103F600011C04091E4005091E5002417350729F372
:103F7000915011F09A01E1CF84E0089582E0089514
:103F800083E0089581E0089580E008954091E8007D
:103F900042FFDDCF08950E9439200E944120E0EECB
:103FA000F0E0808181608083E8EDF0E080818F77B0
:103FB000808319BCA7EDB0E08C918E7F8C938081BB
:103FC0008F7E80831092AC0208950F931F93CF933E
:103FD000DF930E9439200E944120C8EDD0E0888103
:103FE0008F77888388818068888388818F7D8883A4
:103FF00019BC1092AD021092A9021092AB0210925D
:10400000AA0200EE10E0F80180818B7F8083888116
:104010008160888342E060E080E00E94441FE1EE1E
:10402000F0E080818E7F8083E2EEF0E0808181602D
:104030008083808188608083F80180818E7F808387
:10404000888180618883DF91CF911F910F910895BE
:10405000E8EDF0E080818F7E8083E7EDF0E0808105
:104060008160808384E082BF81E08093AC020C9405
:10407000E51FE8EDF0E080818E7F80831092E20002
:1040800008951092DA001092E10008951F920F92A5
:104090000FB60F9211242F933F934F935F936F931B
:1040A0007F938F939F93AF93BF93EF93FF938091F1
:1040B000E10082FF0BC08091E20082FF07C0809187
:1040C000E1008B7F8093E1000E94BC228091DA00A6
:1040D00080FF1FC08091D80080FF1BC08091DA0054
:1040E0008E7F8093DA008091D90080FF0DC080E13F
:1040F00089BD82E189BD09B400FEFDCF81E08093D6
:10410000AD020E94A81C05C019BC1092AD020E940D
:10411000B61C8091E10080FF19C08091E20080FF11
:1041200015C08091E2008E7F8093E2008091E200D2
:1041300080618093E2008091D80080628093D800F3
:1041400019BC85E08093AD020E94BA1C8091E10009
:1041500084FF30C08091E20084FF2CC080E189BDE3
:1041600082E189BD09B400FEFDCF8091D8008F7D2A
:104170008093D8008091E1008F7E8093E100809150
:10418000E2008F7E8093E2008091E2008160809364
:10419000E2008091A902882311F084E007C0809199
:1041A000E30087FD02C081E001C083E08093AD029F
:1041B0000E94BB1C8091E10083FF29C08091E20036
:1041C00083FF25C08091E100877F8093E10082E03A
:1041D0008093AD021092A9028091E1008E7F8093BE
:1041E000E1008091E2008E7F8093E2008091E20006
:1041F00080618093E20042E060E080E00E94441F22
:104200008091F00088608093F0000E94B91CFF91BB
:10421000EF91BF91AF919F918F917F916F915F913E
:104220004F913F912F910F900FBE0F901F901895B7
:104230001F920F920FB60F9211242F933F934F931B
:104240005F936F937F938F939F93AF93BF93CF931E
:10425000DF93EF93FF93C091E900CF708091EC0062
:10426000D82FD17080FDD0E81092E9008091F00045
:10427000877F8093F00078940E945C211092E9007F
:104280008091F00088608093F000CD2BCF70C093B8
:10429000E900FF91EF91DF91CF91BF91AF919F9195
:1042A0008F917F916F915F914F913F912F910F90DF
:1042B0000FBE0F901F9018951F93CF93DF93CDB72C
:1042C000DEB7AA970FB6F894DEBF0FBECDBFEEEAF9
:1042D000F2E08091F100819322E0E63BF207C9F71A
:1042E0000E94C61C8091E80083FF2EC18091AE021F
:1042F0009091AF02492F50E04A30510508F024C197
:10430000FA01E558FF4F0C94EC22803821F08238F6
:1043100009F01AC108C08091AA029091AB029923BA
:1043200089F082600FC08091B2028F70873008F0F0
:104330000BC18093E9008091EB0085FB882780F911
:104340001092E9009091E800977F9093E8008093A5
:10435000F1001092F100D1C0282F2D7F09F0F4C098
:10436000882319F0823061F0EFC08091B002813073
:1043700009F0EAC0933009F080E08093AB022EC0D0
:104380008091B00281112AC08091B2028F702FEF0C
:10439000280F263008F0D8C08093E9002091EB0068
:1043A00020FF1CC0933021F48091EB00806214C088
:1043B0009091EB0090619093EB0021E030E0A90137
:1043C00002C0440F551F8A95E2F74093EA0010920D
:1043D000EA008091EB0088608093EB001092E90086
:1043E0008091E800877F8093E8000E94791FACC02D
:1043F0008111AAC01091B0021F778091E3008078EC
:10440000812B8093E3008091E800877F8093E80010
:104410000E94791F8091E80080FFFCCF8091E3002B
:1044200080688093E300111102C082E001C083E044
:104430008093AD0289C08058823008F085C0809199
:10444000B0029091B1028C3D53E0950779F583E07D
:104450008A838AE289834FB7F894DE01139620E0BD
:104460003EE051E2E32FF0E050935700E49120FF4B
:1044700003C0E295EF703F5FEF708E2F90E0EA305F
:1044800010F0C79601C0C0968D939D932F5F243185
:1044900049F74FBF8091E800877F8093E8006AE288
:1044A00070E0CE0101960E94851E16C06091B20296
:1044B0007091B302AE014F5F5F4F0E94C91DBC01F6
:1044C000892B09F441C09091E800977F9093E80010
:1044D00089819A810E94E31E8091E8008B77809306
:1044E000E80032C0803881F58091E800877F8093B2
:1044F000E8008091A9028093F1008091E8008E7716
:1045000072CF811121C08091B0029091B1029927A0
:104510000297D4F48091E800877F8093E80080912F
:10452000B0028093A9020E94791F8091A902811193
:1045300006C08091E30087FD02C081E001C084E0F5
:104540008093AD020E94BC1C8091E80083FF0AC0EA
:104550008091E800877F8093E8008091EB00806283
:104560008093EB00AA960FB6F894DEBF0FBECDBFC6
:10457000DF91CF911F9108950895CF938091AD025F
:104580008823A1F0C091E900CF709091EC00892FB1
:10459000817090FD80E8C82B1092E9008091E800BE
:1045A00083FD0E945C21CF70C093E900CF910895F4
:1045B000AA1BBB1B51E107C0AA1FBB1FA617B70749
:1045C00010F0A61BB70B881F991F5A95A9F7809565
:1045D0009095BC01CD010895EE0FFF1F0590F49159
:1045E000E02D0994F999FECF92BD81BDF89A9927E3
:1045F00080B50895A8E1B0E042E050E00C94262395
:10460000262FF999FECF92BD81BDF89A019700B48B
:10461000021639F01FBA20BD0FB6F894FA9AF99A2B
:104620000FBE08950396272F0E9401230E940023A6
:10463000252F0E940123242F0C9401230196272F5C
:104640000E9401230C940023DC01CB01FC01F999A9
:10465000FECF06C0F2BDE1BDF89A319600B40D92CE
:0C46600041505040B8F70895F894FFCF87
:10466C003202301C661CA71C621C5E1C010001027D
:10467C00030405010101010101000000000000001C
:10468C000000000000313233929366F0F1F4F5F63D
:10469C00F7E200E900EA00B500B600B700CD0083F0
:1046AC0001CC008A019201940121022302240225EB
:1046BC0002260227022A02B300B4006F00700081A8
:1046CC008283E200E900EA00B500B600B700CD0035
:1046DC008301CC008A01920194012102230224025D
:1046EC002502260227022A02B300B4006F007000D4
:0446FC008182830034
:00000001FF
