:100000000C94D5020C94F2020C94F2020C94F202BD
:100010000C94F2020C94F2020C94F2020C94F20290
:100020000C94F2020C94F2020C94051F0C94D71F4E
:100030000C942E1A0C94F2020C94F2020C94F2021C
:100040000C94F2020C94F2020C94F2020C94F20260
:100050000C94F2020C94871A0C94F2020C94F202A3
:100060000C94F2020C94F2020C94F2020C94F20240
:100070000C94F2020C94F2020C94F2020C94F20230
:100080000C94F2020C94F2020C94F2020C94F20220
:100090000C94F2020C94F2020C94F2020C94F20210
:1000A0000C94F2020C94F2020C94F202D00ED00ED8
:1000B000020F020F4B0FE9108410E9106D0F0810AA
:1000C0001A101A107B10E910E910E3109010B1100B
:1000D00098109B10A410A010A910A411A411B6117F
:1000E000B611AD11B611B611B611A411A411B21109
:1000F000B611B611B21144206B2063216B2063212D
:10010000B720DA20632131214021000B000A0009C9
:1001100000080007000600050004000300020001BB
:100120000000010B010B010901080107010601058F
:1001300001040103010201010100020B020C02098A
:10014000020802070206020502040203020202017B
:100150000200030B030D030903080307030603054D
:1001600003040303030203010300040B040E040948
:10017000040804070406040504040403040204013B
:100180000400050B050F050905080507050605050B
:100190000504050305020501050029001E001F00D6
:1001A0002000210022002300240025002600270033
:1001B0002A002B0014001A000800150017001C006C
:1001C00018000C0012001300310039000400160062
:1001D000070009000A000B000D000E000F0033009D
:1001E0003400E1001D001B0006001900050011008D
:1001F00010003600370038612D00E00035002F0078
:100200003000E200000000005000520051004F009A
:100210002E004C004D0028002C004A00E300A900ED
:1002200000002C0028000158AA0001003A003B0001
:100230003C003D003E003F004000410042004300C2
:10024000440001001E021F022F0230023102520040
:100250005F0060006100550045000100200221029E
:1002600026022702240251005C005D005E00570058
:100270000100005C220223022F00300035025300EF
:1002800059005A005B00540001000100015C0100AC
:100290000100010000000000620037005800560015
:1002A0000100010001000100010001000100010046
:1002B0000100010001000100010001000100010036
:1002C0000100010001000100010001000100010026
:1002D0000100010001000100ED000100010001002A
:1002E0000100010001000100010001000100EF0018
:1002F000EE00F0000100010001000100010001001A
:1003000001000000010001000100F00001000100F7
:10031000AE00AC00AB0001000100010000000100D4
:10032000F100F20000000000A900AA00A8000100EE
:10033000010001000100F200F100010001000100D4
:100340001050010001000100010029001E001F00E3
:100350002000210022002300240025002600270081
:100360002A002B00170014001A00080015001C00BA
:1003700018000C0012001300310039000A000400BC
:100380001600070009000B000D000E000F003300DF
:1003900034000500E1001D001B00060019001100DB
:1003A00010003600370038002E00E0003500E20073
:1003B0002F003000000000005000520051004F009C
:1003C0002D000100010001000100010001000100F9
:1003D0001050010001000158010000000000000061
:1003E00000002A2B28000000000000000000000090
:1003F000000000000029000000002C1E34202122F3
:1004000024342627252E362D3738271E1F2021225B
:10041000232425263333362E37381F0405060708D4
:10042000090A0B0C0D0E0F101112131415161718C4
:10043000191A1B1C1D2F3130232D35040506070802
:10044000090A0B0C0D0E0F101112131415161718A4
:10045000191A1B1C1D2F3130354C00000000000004
:10046000000000000000000000000000000000008C
:1004700000000000000000000000000000007E0FEF
:1004800000D4FFFFFFC7000000780E0344006100A6
:100490006300740079006C000000100341006400E8
:1004A0006500720065007400680000000403090420
:1004B00009023B00020100A0FA0904000001030147
:1004C00001000921110100012240000705810308F4
:1004D000000A0904010001030000000921110100C4
:1004E00001226D000705820320000A12011001009D
:1004F000000008EDFE0813010001020001050109DA
:1005000080A101850319012AB700150126B70095BE
:100510000175108100C0050C0901A10185041901B4
:100520002AA002150126A002950175108100C005C0
:10053000010906A1018505050719E029E715002530
:10054000019508750181020507190029EF1500259D
:100550000195F075018102050819012905950575B8
:10056000019102950175039101C005010906A101E0
:10057000050719E029E71500250195087501810295
:100580009501750881010507190029FF150026FF4F
:10059000009506750881000508190129059505755E
:1005A000019102950175039101C011241FBECFEF87
:1005B000DAE0DEBFCDBF11E0A0E0B1E0E2ECF3E4B1
:1005C00002C005900D92A439B107D9F722E0A4E941
:1005D000B1E001C01D92A33BB207E1F70E943F1CAE
:1005E0000C94DF210C9400001092B9008AE08093F3
:1005F000B800089594EA9093BC009091BC0097FFD6
:10060000FCCF9091B900987F983021F0903111F093
:1006100081E008958093BB0084E88093BC008091C2
:10062000BC0087FFFCCF8091B900887F883111F032
:10063000803471F780E0089584E98093BC00809154
:10064000BC0084FDFCCF08958093BB0084E88093B8
:10065000BC008091BC0087FFFCCF9091B900987FCF
:1006600081E0983209F480E0089584E88093BC002A
:100670008091BC0087FFFCCF8091BB00089590E083
:10068000FC01ED5EFE4F2081211118C0FC01E15EEE
:10069000FE4F8081E82FE295EF70F0E031A1282F26
:1006A0002F7081E090E001C0880F2A95EAF7982F1B
:1006B0009095932391A392A1892B82A308950895E5
:1006C0000C945F030C9460030C945F03809196017B
:1006D00081110BC00E94F4022FEF83ED90E32150B3
:1006E00080409040E1F700C000008091990288238B
:1006F00041F080E40E94FA0280939802811145C083
:1007000013C0EDE0F1E041E050E09A01019002C039
:10071000220F331F0A94E2F7822B21E0E331F20724
:10072000A1F780939902E5CF80E00E942403809393
:10073000980281112AC00E9424038093980281119B
:1007400024C0809199020E94240380939802811111
:100750001CC00E941C0380E40E94FA02809398024D
:10076000811113C08CE00E942403809398028111B0
:100770000CC00E94240380939802811106C08091CE
:1007800099020E942403809398020C941C03CF9337
:100790000E946603C0E08C2F0E943F03CF5FCC30E5
:1007A000D1F7ABE2B1E041E050E08D91E82FE29566
:1007B000EF70F0E021A18F70BA0102C0660F771FC1
:1007C0008A95E2F7CB01962F9095922391A392A15F
:1007D000892B82A371E0A133B70739F7E4EAF1E08E
:1007E000A8E9B1E080EB91E0119211921D921D9267
:1007F0008E179F07C9F7CF910C94E1055F926F9216
:100800007F928F929F92AF92BF92CF92DF92EF92A0
:10081000FF920F931F93CF93DF93809198028823C9
:1008200049F0809197018F5F80939701811102C0F9
:100830000E94660383E1C82E81E0D82E9FE1E92E55
:1008400091E0F92EC0E0D0E001E010E0552453948F
:10085000BC2EAC2EF60181916F01882301F18091AD
:100860009802811132C080E40E94FA0280939802BB
:10087000811112C082E10E942403809398028111A9
:100880000BC0C8010C2E01C0880F0A94EAF78095AE
:100890000E942403809398020E941C0316C0F70153
:1008A0008081E82FE295EF70F0E021A18F70A80120
:1008B00002C0440F551F8A95E2F7CA01922F982B68
:1008C00091A392A18095892382A350EA5A95F1F7CA
:1008D00085E08B1518F18091980281117FC080E42A
:1008E0000E94FA0280939802882311F0812C11C093
:1008F00083E10E942403809398028111F7CF81E461
:100900000E94FA02809398028111F0CF0E94350371
:10091000882E0E941C03882D809521C0EBE2F1E017
:1009200040E050E080E09191A92FA295AF70B0E037
:1009300090962C9130E09F7002C0359527959A953E
:10094000E2F720FD07C09801042E01C0220F0A948F
:10095000EAF7822B4F5F5F4F4630510521F7A80120
:1009600002C0440F551FAA94E2F73A0160947094B4
:10097000E8E9F1E020E030E0A12C882E912CDF01A5
:1009800080819181B401022E02C0759567950A9409
:10099000E2F760FF04C0BC01642B752B03C0BC01EF
:1009A000662177217183608332966D917C918617E1
:1009B000970711F0AA24A3942F5F3F4F26303105EB
:1009C000F1F68B2D0E943F03AA2041F05092B00116
:1009D0000E94601A9093B2018093B1012196EFEFCB
:1009E000EE1AFE0ACC30D10509F032CF8091B00169
:1009F0008823B9F08091B1019091B2010E94781AD8
:100A0000409778F0E8E9F1E0A4EAB1E084EA91E007
:100A1000219131912D933D938E179F07C9F7109225
:100A2000B0010E94E70581E0DF91CF911F910F9106
:100A3000FF90EF90DF90CF90BF90AF909F908F90FE
:100A40007F906F905F900895E82FF0E0EE0FFF1F0A
:100A5000EC55FE4F80819181089508959C013A954F
:100A600021153F4138F5DC01AA27B270AC014427BB
:100A700054709C012227387094FF0FC090FF02C071
:100A800080E101C080E0AB2B09F08062452B09F0CA
:100A90008064232B69F080680BC0892F8170AB2B99
:100AA00009F08260452B09F08460232B09F08860EF
:100AB000FB0109940895CF93DF93EC01805E9109C7
:100AC000089710F0209719F467E87EE002C06EE600
:100AD00071E1CE010E942E058C2FDF91CF910C94F5
:100AE000ED0DCF93DF93EC010E943B0ECE01805EB3
:100AF0009109089710F0209719F46EE87EE002C083
:100B000065E771E1CE01DF91CF910C942E05CF9373
:100B1000DF93EC010E945B05CE01DF91CF910C9435
:100B2000710581E0089581E008950C94930508957E
:100B30000C9497051F93CF93DF9300D000D01F92A2
:100B4000CDB7DEB749835A836B833091DE0189814B
:100B50009A81311114C0662359F0222349F00E9472
:100B6000DD16182F682F89819A810E94861603C08E
:100B70000E94B116182F69817A81812F04C00E94CA
:100B8000DD1669817A810F900F900F900F900F9072
:100B9000DF91CF911F910C94D606FC01262F408146
:100BA00051816281738184810C949A05CF93DF9384
:100BB000EC0160E00E94CD05BE01DF91CF910C9465
:100BC00098050E94E8080E9421090C9462030C9485
:100BD000640308950E9492110E94E9052FEF84E3B7
:100BE0009CE0215080409040E1F700C000000C9450
:100BF000AD1A0F931F93CF93DF938C0161E00E9496
:100C0000CD05EC01B8010E949505882309F444C084
:100C1000B801CE010E94A9098823F1F1B801CE01E3
:100C20000E943A0A8823C1F1B801CE010E948C0AC1
:100C3000882391F1B801CE010E94B70B882361F19E
:100C4000F8018281882309F1CB358DE5D807C1F001
:100C500050F4C115FCE5DF0781F0CF3DDC45A9F478
:100C60000E94131919C0CC35EDE5DE0761F0CD35D2
:100C7000DD4559F40E94981708C00E94EA050CC08F
:100C80000E94A11702C00E94A417C801DF91CF9152
:100C90001F910F910C94910580E0DF91CF911F91EE
:100CA0000F910895DF92EF92FF920F931F93CF93CE
:100CB000DF93E82FF0E0E652FC4FD490282F2695E2
:100CC0002695269530E0F901E658FB4F0491877090
:100CD00010E0082E02C0159507950A94E2F70170FE
:100CE0001127F901E659FB4FE490F12C082E02C0C0
:100CF000F594E7940A94E2F791E0E922FF24F901E0
:100D0000E65AFB4FC491D0E002C0D595C7958A95AD
:100D1000E2F7C170DD270115110519F081EE0E947F
:100D2000ED0DE114F10419F086EE0E94ED0D8D2D0C
:100D30000E947E0EEF2819F086EE0E943B0E012BDA
:100D400019F081EE0E943B0ECD2B51F08CE2DF9129
:100D5000CF911F910F91FF90EF90DF900C947E0E3A
:100D6000DF91CF911F910F91FF90EF90DF90089549
:100D7000982F9F709A50963010F0805D01C0895A6C
:100D80000C94520608950C94C20681E008950C94C8
:100D9000C506CF93C82F0E94C3068C2F0E94C7069A
:100DA000CF91089580E090E00895089528E4829F0F
:100DB000C0011124FC012CE0729FE00DF11D1124F3
:100DC000E60FF11DEE0FFF1FE656FE4F8591949141
:100DD0000895880F991FFC01E657FB4F8591949168
:100DE0000895CF93DF930E94D6060E941008EC016D
:100DF000811521E59207E8F5811540E5940708F093
:100E0000B5C0883E910500F5803E910508F004C10B
:100E1000883A910570F4853A910508F081C08130D7
:100E2000910509F4F9C008F4F5C0049708F0F4C07E
:100E3000F1C08F3B910508F47BC0803C910508F41C
:100E4000E9C0805C910981C0C11580E3D80758F4DE
:100E5000C11520E2D20708F076C0C11541E0D407E1
:100E600008F0DAC0D7C0C11580E4D80708F07BC00D
:100E700070C0811526E5920770F5811545E5940748
:100E800008F0AAC0C11583E5D80750F4C11522E5C2
:100E9000D20708F086C0DC2FCC27C16FD06ABCC057
:100EA000C11544E5D40708F092C0CE01837099279C
:100EB00021E030E002C0220F331F8A95E2F78C2F29
:100EC0008695869540E2849FC0011124E901C82BD4
:100ED000D92BDA68A1C0C11589E5D80768F4C11516
:100EE00028E5D20708F081C0C11547E5D40708F00E
:100EF00091C0DD27D06690C0C1158AE5D80708F4F7
:100F000079C0CE0190568115904208F083C08D2F94
:100F10008F710E94A408DD27D0628F71D82B7CC00E
:100F2000C55AD0E0C15ADE4FC881D0E0D06474C049
:100F3000C85AD0E0CC0FDD1FCF5CDE4F0990D881BE
:100F4000C02DD46469C0CE019F700E94E906EC01F7
:100F500063C0CE019927D3FF03C0EC01D86C5CC0FD
:100F6000EC01D06C59C0DF70D06A56C074E0969521
:100F700087957A95E1F783709C2F937021E030E09C
:100F800002C0220F331F9A95E2F73C68382BCF70CE
:100F9000C695C69540E2C49FE0011124C22BD32B15
:100FA0003BC0CE018370992721E030E002C0220FC0
:100FB000331F8A95E2F78C2F8695869540E2849FB1
:100FC000C0011124E901C82BD92BDC6825C0DC2F16
:100FD000CC27C46FD06A20C00E94A4088F71C82F8C
:100FE000D0E0DC2FCC27D06217C0DC2FCC27C06F1D
:100FF000D06A12C08C2F8F700E94A40894E0D695FE
:10100000C7959A95E1F7CF70D0E0DC2FCC27D06957
:10101000C82B02C0C0E0D0E0CE01DF91CF9108958F
:101020008238910569F1B0F48133910509F46DC0FE
:1010300048F48932910509F463C08A32910509F4B4
:1010400069C008958533910509F455C08933910528
:10105000B9F00895833E910569F138F4803E910519
:10106000B1F0823E910509F10895863E9105A9F1FE
:10107000873E9105B9F1843E910509F064C023C013
:1010800020919A0220FD4FC021FD4DC0089580910E
:101090009A0280FD44C080919B0280FF44C08091F1
:1010A0009A0284FD42C083EE4DC080919A0282FF75
:1010B00038C0F5CF80919A0282FD33C080919B02A7
:1010C00080FD31C0ECCF80919B0281FF32C08091C6
:1010D0009A0284FD2AC087EE35C080919A0283FF70
:1010E00026C0F5CF80919A0283FD21C080919B029A
:1010F00081FD1FC0ECCF80919A0285FD1CC01DC0F0
:1011000080919A0285FD19C016C080919A0286FDD1
:1011100016C017C080919A0286FD13C010C089E3E3
:1011200011C082EE0FC080EE0DC080E00BC086EED5
:1011300009C084EE07C089E205C085E303C08AE2E6
:1011400001C081E390E0089590919A0292FF0DC052
:10115000282F2871283019F4877F846006C0282F33
:101160002471243011F48B7F886093FF0DC0282FE9
:101170002871283119F4877E846106C0282F2471D4
:10118000243111F48B7E886120919B0220FF0DC0D9
:10119000382F3871383019F4877F816006C0382FB6
:1011A0003171313011F48E7F886021FF0DC0282FFE
:1011B0002871283119F4877E816106C0282F21719A
:1011C000213111F48E7E886194FD877E0895089503
:1011D0000E946B18811102C00E9413190E94761898
:1011E000809374020E947E1890939B0280939A02CF
:1011F0000E94E7080E947A18682F70E080E090E073
:101200000E948815609146027091470280914802C1
:10121000909149020C94C015CF93DF9397FF0DC0B6
:10122000FB012281222349F0EC010E943709CE0103
:101230009F770E948E090E94700981E0DF91CF9113
:1012400008958CE090E00E949D2190E0A0E0B0E045
:1012500080939C0290939D02A0939E02B0939F0264
:10126000089560919C028CE090E00C94AB210E9468
:10127000F90B869581708093A10290919C02913028
:1012800029F4882319F089E30E947E0E0E94A71793
:101290008093A0020E94BA1780919C02813071F065
:1012A00048F0823081F08430A1F486EE0E947E0EF8
:1012B00088E10DC082EE0E94ED0D0BC088E193E045
:1012C0000E94870506C082EE0E94ED0D87E50E9410
:1012D0007E0E8FE39CE90197F1F700C000000895AE
:1012E00080919C02813039F078F0823069F084304E
:1012F00089F488E20DC08CE20E947E0E8091A102EA
:10130000882341F089E304C082EE0E943B0E02C0B4
:101310000E947E0E8091A0020C94B7170F931F932A
:10132000CF93DF938C01CCE0D0E0C8010C2E02C03B
:10133000969587950A94E2F78F700E94B8062497D5
:10134000CC3F8FEFD80789F7DF91CF911F910F9195
:1013500008950F931F93CF93DF93EC018B01FB0153
:101360008281882361F00E94A717CE01825E9C458E
:101370008530910520F480939C020E943109B801C8
:10138000CE01DF91CF911F910F910C940C090F9317
:101390001F93CF93DF93C42FD22FFC018281882328
:1013A000C9F04093B5010E94601A9093B4018093F4
:1013B000B30180E28C0F883008F057C0C77081E01D
:1013C00001C0880FCA95EAF7DF91CF911F910F9165
:1013D0000C94870E8091B501481330C08091B30101
:1013E0009091B4010E94781A883C910538F510E27A
:1013F0001D0FCD17B9F080E28C0F883040F4C77014
:1014000081E001C0880FCA95EAF70E948E0E18305D
:1014100028F581E09D2F977001C0880F9A95EAF713
:101420000E94870E802F0E947E0E1830F0F4D77035
:1014300081E001C0880FDA95EAF70AC080E28C0FDC
:10144000883098F4C77081E001C0880FCA95EAF728
:10145000DF91CF911F910F910C948E0E802FDF9111
:10146000CF911F910F910C947E0EDF91CF911F9120
:101470000F9108950F939C01CB01243F4CE5340755
:1014800031F188F4293DFCE53F07D9F02A3D4CE5D0
:10149000340779F1283D3C45A9F506E221EE41EEFD
:1014A00068ED7CE52BC0263FFCE53F07E1F0A8F0A6
:1014B000273F3C4539F507E225EE46EE67EF7CE530
:1014C0001DC007E225EE45EE69ED7CE517C006E29A
:1014D00021EE40EE64EF7CE511C007E225EE44EE1C
:1014E00065EF7CE50BC006E221EE42EE66EF7CE59F
:1014F00005C008E221E045EE6AED7CE50E94C709DF
:1015000080E008C0FC018281882319F01092B501A7
:1015100001C081E00F910895CF93DF93EC01FB01AF
:101520008281882309F41FC1C230FCE5DF0708F47B
:101530001BC1C6319CE5D90738F09E012B5F3C45A5
:101540002930310508F010C10E947E1890939B024B
:1015500080939A02C031ECE5DE0709F4C3C008F0BD
:1015600041C0C8308CE5D80709F49AC0F0F4C43003
:10157000ECE5DE0709F487C068F4C2308CE5D807D3
:1015800009F477C0C330DC4509F0E3C080919A02CA
:10159000826076C0C630ECE5DE0709F46EC008F064
:1015A0007BC080919A0288606BC0CC308CE5D807F4
:1015B00009F485C068F4CA30ECE5DE0709F474C0AC
:1015C00008F079C00E94921180919A02806858C0F8
:1015D000CE308CE5D80709F476C008F07FC0809142
:1015E0009A028BC0CC3FECE5DE0709F44FC018F53A
:1015F000C3318CE5D80709F47DC078F4C131ECE53E
:10160000DE0709F473C0C231DC4509F0A2C00E94B4
:10161000921180919A028F7733C0C5318CE5D8073B
:1016200009F472C008F486C0CB3FDC4509F091C0D4
:1016300080919B023EC0C115FDE5DF0709F45FC044
:1016400058F4CE3F9CE5D90709F444C008F43FC0E4
:1016500080919B0282602DC0C230FDE5DF0709F456
:1016600075C008F45DC0C330DD4509F072C080E08C
:101670006EC080919A02816003C080919A0280615D
:1016800080939A0266C080919A0211C080919B0259
:10169000826080939B025DC080919A028062F0CF4D
:1016A00080919A028064ECCF80919A028860846075
:1016B000E7CF8160EECF80919A028E7FE1CF80915B
:1016C0009A028D7FDDCF80919A02877FD9CF80915A
:1016D0009B0218C080919B028D7FDBCF80919A0284
:1016E0008F7ECECF80919A028F7DCACF80919A0251
:1016F0008F7BC6CF80919A02877F8B7FC1CF8091ED
:101700009B028D7F8E7FC5CF80919A0282FB22271C
:1017100020F991E0922790FB82F990FB83F9B0CFFA
:1017200080919B02982F909591708E7F892B90FBD2
:1017300081F9AFCF0E94921180919A0287FB2227F4
:1017400020F991E0922790FB87F99ACF81E00E94DF
:10175000151980919A0290919B020E948F180E9405
:10176000921180E001C081E0DF91CF910895CF9385
:10177000DF9386319C4541F5EB010E94A717982F16
:101780008A812091000130910101882379F09A7AB1
:1017900081E009F480E08093B601911102C069E212
:1017A00001C065E3C9010E94B0190AC08091B60169
:1017B000811102C069E201C065E3C9010E94BB1941
:1017C0000E94FC1780E001C081E0DF91CF91089575
:1017D0009093BC018093BB010895E091BB01F0910F
:1017E000BC01309721F00190F081E02D099480E058
:1017F0000895E091BB01F091BC01309711F480E0B5
:1018000008950190F081E02D09950895E091BB01C4
:10181000F091BC01309799F020910C01222359F0EE
:1018200020919A0227FF07C0DC012C9111962C937E
:10183000119725E02C930280F381E02D09940895FF
:101840002091B9013091BA012817390771F09093AE
:10185000BA018093B901E091BB01F091BC013097CE
:1018600021F00680F781E02D099408952091B701B9
:101870003091B8012817390771F09093B80180931F
:10188000B701E091BB01F091BC01309721F00084D9
:10189000F185E02D099408950E946C1A6093CE01A1
:1018A0007093CF018093D0019093D1016093CA01CE
:1018B0007093CB018093CC019093CD01089585B7AF
:1018C000806885BF85B7806885BF089581E00895E9
:1018D0000C94660C08950C946A0C0C946A0C0C948D
:1018E0006D0C0C946A0C0C94710C0C946A0C0E9494
:1018F0005F0C89E698E10E94DF1A0E94750C0C9437
:10190000730C0E946B0C0C946A0C0E94571A0E9474
:10191000C7030C946F0C6F927F928F929F92AF923D
:10192000BF92CF92DF92EF92FF920F931F93CF93CC
:10193000DF93CDB7DEB72A970FB6F894DEBF0FBEA0
:10194000CDBF0E94FE0381110E944C0C3EEB832E02
:1019500031E0932E00E010E0C02E802F0E9424057D
:101960005C01F401619071904F0168267926611441
:101970007104B1F40F5F1F4F0630110569F78FEF47
:1019800089838A831B820E94601A8160782F9D83DD
:101990008C8349815A816B818D810E94930D3AC05D
:1019A0008091740281FD0E942D05D12CEE24E394D8
:1019B000F12CC3018E219F21892B29F10E94680CF3
:1019C0008823A9F0DE82CF82AE20BF2081E0AB2841
:1019D00009F480E088870E94601A8160782F9A87D6
:1019E00089874E815F8168858A850E94930D000FEB
:1019F000111FF801E254FE4F80819181E826F926FB
:101A0000F182E08207C0D394EE0CFF1CFCE0DF12F1
:101A1000D0CFB0CF0E94ED0B9091BD018917D1F0CE
:101A20000E94ED0B8093BD012A960FB6F894DEBF9D
:101A30000FBECDBFDF91CF911F910F91FF90EF901F
:101A4000DF90CF90BF90AF909F908F907F906F90DE
:101A50000C94C9062A960FB6F894DEBF0FBECDBF10
:101A6000DF91CF911F910F91FF90EF90DF90CF907A
:101A7000BF90AF909F908F907F906F900895DC0102
:101A800011962C9111979C91492F50E061E070E0E4
:101A9000FB0102C0EE0FFF1F9A95E2F7CF011296ED
:101AA0006C91129730E0662329F06091E001662383
:101AB00061F10BC0F901EE0FFF1FEE52FE4F608186
:101AC000718168237923672B01F16CE0629FF0013B
:101AD000639FF00D11244E0F5F1F440F551FFA0135
:101AE000E55FFE4FE4911196EC931197FA01E65FE2
:101AF000FE4FE491EC93220F331FF901EE52FE4F9B
:101B000020813181822B932B0BC0220F331FF901CF
:101B1000EE52FE4F80959095208131818223932350
:101B2000918380830895CF93DF93CDB7DEB72B9752
:101B30000FB6F894DEBF0FBECDBF4F8358876987BD
:101B40007A878B8761110E94CA179F8188852A85B1
:101B50003B85232B31F08F3F31F481E09F3F19F417
:101B600003C081E001C080E080FD04C0CE01079683
:101B70000E943F0DDE01119686E0FD0111928A95CB
:101B8000E9F785E0FE01379601900D928A95E1F71D
:101B900049815A816B817C818D819E810E944B1489
:101BA0002B960FB6F894DEBF0FBECDBFDF91CF915D
:101BB0000895FC01808191810E941F1792959F706A
:101BC000963051F4863F41F08091E00191E0892701
:101BD0008093E0019093DF010895CF93882309F467
:101BE00048C0C82F8CEF8C0F813AD0F46C2F8091B5
:101BF0000001909101010E943019882349F06C2F57
:101C000080910001909101010E94BB190E94FC1774
:101C10006C2F80910001909101010E94B0190CC0BD
:101C200080E28C0F883058F4C77081E001C0880FC3
:101C3000CA95EAF70E94AA17CF910C94FC17EBE51E
:101C4000EC0FE33040F4F0E0E057FE4F808190E08D
:101C5000CF910C94200CC85AC73158F4EC2FF0E007
:101C6000EE0FFF1FEE59FE4F80819181CF910C94B2
:101C7000360CCF910895882349F1682F8CEF860F99
:101C8000813A38F480910001909101010E94BB19C2
:101C90000CC080E2860F883050F4677081E001C08C
:101CA000880F6A95EAF70E94B0170C94FC178BE531
:101CB000860F833020F480E090E00C94200C685A6A
:101CC000673120F480E090E00C94360C08951F9367
:101CD000CF93DF93182FEB010E94ED0D209741F079
:101CE0008FE99FE00197F1F700C000002197F6CF40
:101CF000812FDF91CF911F910C943B0E893319F006
:101D000060E070E002C060E570E00C94670E88232C
:101D100021F00E94AA170C94FC170895882321F043
:101D20000E94B0170C94FC1708958F929F92AF9267
:101D3000BF92CF92DF92EF92FF920F931F93CF93B8
:101D4000DF936C01C62F172FFC01D281058102950C
:101D50000F700E947F178823B9F0DD23A9F0812F2F
:101D6000807F803441F090E29C0F983068F080369C
:101D700011F4C63F49F082E00E944C180E947F1780
:101D800091E0E82EE92601C0E12CB12EB2949FE04B
:101D9000B9228B2D90E0FC01EA5AFF4F0C94972159
:101DA000012F0F70812F807F11F00295007FDD23BE
:101DB00099F0002309F48AC180E28C0F883010F07A
:101DC000C11104C0802F0E94AA1703C0802F0E9457
:101DD000BD170E94FC177AC18C2F0E943B0E002376
:101DE00009F4F7C180E28C0F883010F0C11104C0F3
:101DF000802F0E94B01703C0802F0E94C3170E943B
:101E0000FC17E7C1912F9F70812F807FF92E8032C0
:101E100019F0F29480EFF822CC2319F0C130C9F008
:101E200024C0DD2371F0002341F0013031F40E9421
:101E3000DD178F290E94E517CCC10E94DD178F297D
:101E40000EC0002319F0013009F4C3C10E94F2173B
:101E50001EC0DD2339F0023008F0BBC18F2D0E9477
:101E6000870EB7C10111B5C112C0DD2319F00023DF
:101E7000A9F32CC1002359F0C93309F038C1FFEF91
:101E800027EE83E0F15020408040E1F72EC18F2DF6
:101E90000E948E0E9EC1812F86958695837019F0C3
:101EA000813071F096C1DD2331F08C2F912F93702A
:101EB0000E94200C96C180E090E00E94200C9AC104
:101EC000DD2331F08C2F912F93700E94360C89C145
:101ED00080E090E00E94360C8DC1812F837009F064
:101EE00048C0D1117AC12C2F229526952770220F38
:101EF000220F6C2F6F70862F90E0A0E0B0E0022ED2
:101F000004C0880F991FAA1FBB1F0A94D2F7C4FFF1
:101F100010C04FE050E060E070E004C0440F551F77
:101F2000661F771F2A95D2F740955095609570955A
:101F300003C040E050E0BA01212F2695269523707A
:101F40004A015B01882A992AAA2ABB2AC501B40141
:101F5000223049F058F4213019F00E949C153DC1FF
:101F60000E948A153AC10E94AE1537C10E94881599
:101F700034C1DD2319F0812F817001C0869588233B
:101F800009F42BC12C2F229526952770220F220FA2
:101F90006C2F6F70862F90E0A0E0B0E0022E04C09E
:101FA000880F991FAA1FBB1F0A94D2F7C4FF10C045
:101FB0004FE050E060E070E004C0440F551F661F22
:101FC000771F2A95D2F7409550956095709503C07C
:101FD00040E050E0BA01212F2695269523704A0152
:101FE0005B01882A992AAA2ABB2AC501B40122309A
:101FF00049F058F4213019F00E946116EEC00E9499
:102000004F16EBC00E947316E8C00E94C215E5C0CF
:10201000012F0F70DD2339F0802F0E94E8158C2FDF
:102020000E94870EDAC08C2F0E948E0E802F0E9495
:102030000916D3C0C23FF9F028F4C03F41F0C13FB8
:1020400099F040C0C33FF1F0C43F31F13BC0DD2304
:1020500039F00111BEC0812F8F710E942E16B9C0B8
:10206000023008F0B6C0F7CFDD2339F0812F8F7131
:102070000E94E815AEC0DD23C9F3812F8F710E9445
:102080000916A7C0DD2329F0812F8F710E94D31577
:10209000A0C00E94CE159DC0DD2351F0012F0F710D
:1020A000802F0E94E81563E0802F0E94311891C0B4
:1020B00081E00E944C18023008F48BC082E00E943C
:1020C0004C1887C0DD2331F0002381F28C2F0E9451
:1020D000ED0D7FC0002389F2C93349F42FEF87EE5D
:1020E00093E0215080409040E1F700C000008C2F29
:1020F0000E943B0E6EC0412F4F706C2FC6010E9494
:10210000D2060E94F9146DC08C2F90E0FC01E05FB4
:10211000F109E730F10578F5EA59FF4F0C94972162
:10212000DD2309F450C09091E00181E0892705C0CA
:10213000D093E00148C081E08D278093E00143C047
:10214000D11141C081E0F9CFD1113DC01092E00121
:102150003AC0DD2319F00E94571735C00E9463175B
:1021600032C0DD2329F08091DF018823E1F229C00C
:102170000023C9F228C08091DF010023C1F0882329
:1021800041F09091E00181E089278093E001109275
:10219000DF018C2FDD2319F00E94ED0D14C00E9489
:1021A0003B0E86E0F60111928A95E9F70CC0882370
:1021B00051F0D11108C09091E00181E0892780930E
:1021C000E0011092DF01412F4F706C2FC6010E9479
:1021D000D50688EF8B0D843020F40E94ED0B0E9411
:1021E000C906DD2339F0107F103611F4C63F11F017
:1021F0000E947117EE20E9F00E94531780FD19C06C
:10220000F60112820E944D170E94E815C6010E9435
:102210003E110E944D17DF91CF911F910F91FF90BA
:10222000EF90DF90CF90BF90AF909F908F900C94E5
:102230000916DF91CF911F910F91FF90EF90DF90E2
:10224000CF90BF90AF909F908F9008950F931F9362
:10225000CF93DF93EC01688179818A810E942A17EC
:102260008C010E9485160E947615B801CE010E944D
:10227000950EDF91CF911F910F910895CF93DF932A
:10228000EC01988189812B813C81232B31F08F3F98
:1022900031F481E09F3F19F403C081E001C080E088
:1022A00080FD19C0CE010E94F90581110CC00E9469
:1022B0007F17882381F08A81882369F082E0DF918B
:1022C000CF910C944C18CE010E942611CE01DF91C3
:1022D000CF910C94D605DF91CF910895882321F0FA
:1022E0000E94BD170C94FC170895882321F00E94CA
:1022F000C3170C94FC17089580E090E00E94200C16
:1023000080E090E00E94360C0E94CA170E94DA1703
:102310000C94FC1780910001909101010E94C61954
:102320000C947C110E94BA170C948A11E92FE29543
:10233000EF704E2F50E0FA013297EE30F105B0F415
:10234000E359FF4F0C949721803F91F018F4883E99
:1023500068F40EC0843F51F40BC0883E48F0813FC2
:1023600029F406C093FB882780F9089580E008953A
:1023700081E008950E941F170E9496110895CF933F
:10238000DF9300D000D01F92CDB7DEB70F900F9033
:102390000F900F900F90DF91CF910895CF93DF931F
:1023A00000D000D000D0CDB7DEB726960FB6F89497
:1023B000DEBF0FBECDBFDF91CF9108951F93CF93A6
:1023C000DF93C091E10116E08091E201C81799F016
:1023D000D0E01C9FF0011D9FF00D1124ED51FE4F28
:1023E0004081518162817381848195810E94CE11E7
:1023F0002196C770E9CFDF91CF911F910895409149
:10240000130250911402609115027091160280918E
:102410001702909118020C94CE110F931F93CF9333
:10242000DF938091180282958F7009F05DC08091D2
:102430001502882309F458C08091E1011091E2014E
:102440006091130270911402C0911602D09117028C
:1024500091E06F3F09F090E0292F06E0811709F421
:1024600043C0209721F07F3F21F030E003C031E0EE
:1024700001C0322F90E030FD34C0089FF001099F69
:10248000F00D1124DF01AD51BE4F11963C91119713
:10249000371327C03C91361324C012963C911297F3
:1024A00031111FC013964D915C9114974C1B5D0B1D
:1024B000483C5105B0F4809118028F708061809380
:1024C0001802E851FE4F80818F708061808383E124
:1024D00092E00E943E11DF91CF911F910F910C94D9
:1024E000DE1101968770BACFDF91CF911F910F91C6
:1024F00008959F92AF92BF92CF92DF92EF92FF9298
:102500000F931F93CF93DF93CDB7DEB761970FB6CD
:10251000F894DEBF0FBECDBF8C0185E0F801DE016F
:102520001D9601900D928A95E1F7F8014081518145
:10253000E280909113026091140220911602309172
:1025400017022115310531F06F3F31F481E09F3FD3
:1025500019F403C081E001C080E0F82FF1709F2ED4
:1025600080FD46C1F801A380B48083E1C82E82E0DB
:10257000D82EF0901502F501E21BF30BFF2009F4B1
:10258000DFC080911802E83CF10508F09BC0282FBD
:10259000207F09F052C0561313C0491311C0FE2CFE
:1025A000E1100EC08F708061809318020E94FF11AD
:1025B000C6010E943E1180911802F801858358C11E
:1025C000AB2831F05F3F31F481E04F3F19F403C095
:1025D00081E001C080E080FD03C081E08E2502C063
:1025E00080E090E0F82FF170FF2E80FF1CC08091FA
:1025F000E1012091E20136E0821709F417C190E071
:10260000389FF001399FF00D1124ED51FE4F61818B
:10261000561306C06081461303C06281E61203C0F0
:1026200001968770E9CFFE2CEE2009F421C180913C
:1026300018028160809318025AC0561306C04913CD
:1026400004C0E11002C0F8019FC04D875E878D85F0
:102650009E850E94BA11882379F1EE2069F12091BC
:102660001802822F82958F7090E0029774F080910B
:1026700013029091140298878F831986BB86AA86CD
:102680002C87CE0107960E943E1186E0F801A3E157
:10269000B2E001900D928A95E1F70E940D120E941E
:1026A000FF110DC0561729F14D875E878D859E85D8
:1026B0000E94BA1181112CC0C8010E943E11FF2452
:1026C000F394D6C0282F207F69F77A2DB98AA88A7B
:1026D0006E2D89890E94BF1183E192E00E943E1114
:1026E00086E0F60111928A95E9F70E94FF11F12C1C
:1026F000BFC04913D9CFE110D7CFF8018583C801F6
:102700000E943E1186E0F60111928A95E9F7B0C069
:10271000EE2091F220911802822F82958F7090E026
:1027200002970CF4B2CF80911302909114029A8315
:1027300089831B82BD82AC822E83CE010196A3CFFA
:10274000E83CF10508F047C0FE2CEE2009F4B4CFB8
:10275000561330C049132EC02091180220FD21C00D
:10276000822F82958F70482F50E041155105C9F096
:10277000F80125834F30510541F08F5F982F9295D6
:10278000907F822F8F70892B8583C8010E943E1114
:1027900086E0F801A3E1B2E001900D928A95E1F79D
:1027A00042C086E0F801A3E1B2E001900D928A9563
:1027B000E1F75EC04D875E878D859E850E94BA11C8
:1027C000811163CF80911802816080931802C80143
:1027D0000E943E114DC07A2DB98AA88A6E2D898932
:1027E0000E94BF1186E0F60111928A95E9F71BC09D
:1027F000EE2009F461CF4D875E878D859E850E940E
:10280000BA11F82E882309F457CF86E0F801A3E126
:10281000B2E001900D928A95E1F783E192E00E9487
:10282000D90D0E940D120E94FF1122C04D875E87B4
:102830008D859E850E941F17292F22952F7022308B
:1028400028F49F7039F0811105C00BC0243028F4A2
:102850009F7049F4805E883020F0C8010E943E11CC
:102860009F2CF92C05C0F8019581907F99F7F9CF3D
:102870008F2D61960FB6F894DEBF0FBECDBFDF91EE
:10288000CF911F910F91FF90EF90DF90CF90BF906D
:10289000AF909F9008951F93CF93DF93CDB7DEB78E
:1028A0002C970FB6F894DEBF0FBECDBF4F8358876D
:1028B00069877A878B879C87CE0107960E94791259
:1028C0008823D1F09F8188852A853B85232B31F091
:1028D0008F3F31F481E09F3F19F403C081E001C0D4
:1028E00080E080FD47C04F81588569857A858B855A
:1028F0009C850E94CE113EC086E0FE013796DE0127
:10290000119601900D928A95E1F7FF81E8856A851D
:102910007B856115710531F0EF3F31F481E0FF3FB8
:1029200019F403C081E001C080E080FD23C0209144
:10293000E20130E0C9010196877099274091E101D9
:1029400050E084179507F1F1F983EA837D836C8366
:1029500096E0929FD001939FB00D1124AD51BE4FD0
:10296000FE01319601900D929A95E1F78093E20174
:102970000E94DE1116E08091E1019091E201891739
:1029800071F1189FC00111248D519E4F0E94791240
:10299000882329F1E091E1011E9FF0011124ED51FE
:1029A000FE4F4081518162817381848195810E94B3
:1029B000CE118091E10190E0019687709927809374
:1029C000E101D9CF0E9492111092E2011092E1012F
:1029D000E3E1F2E086E0DF011D928A95E9F72C96AB
:1029E0000FB6F894DEBF0FBECDBFDF91CF911F9120
:1029F0000895EF92FF920F931F93CF93DF938C0173
:102A0000892B09F46CC0F12CEE24E394E8012196A3
:102A1000F8018491843740F4843008F051C081304B
:102A200081F0823019F15BC0853709F444C0A8F108
:102A30009CE7980F903708F052C08F770E943B0EAA
:102A400041C00E5F1F4FFE01849190E2980F9830B5
:102A500050F48770FE2D01C0FF0F8A95EAF78F2F83
:102A60000E94CD1714C00E94ED0D2DC00E5F1F4FA8
:102A7000FE01849190E2980F983060F48770FE2DEB
:102A800001C0FF0F8A95EAF78F2F0E94D3170E948B
:102A9000FC1719C00E943B0E16C00E5F1F4FFE01AF
:102AA000C491CC2381F08FE99FE00197F1F700C03A
:102AB0000000C150F6CF0E5F1F4FFE01F49003C01F
:102AC0000E94ED0D8E018F2D882309F49FCFEFE931
:102AD000FFE03197F1F700C000008150F5CFDF91A2
:102AE000CF911F910F91FF90EF9008950895089551
:102AF0000C9477150C9478150E947A1560934A020D
:102B000070934B0280934C0290934D020C947C1175
:102B10000C947C150F931F9300914A0210914B0265
:102B200020914C0230914D02602B712B822B932B04
:102B30001F910F910C947C150F931F9300914A02E3
:102B400010914B0220914C0230914D026023712371
:102B5000822393231F910F910C947C150F931F9345
:102B600000914A0210914B0220914C0230914D028B
:102B700060277127822793271F910F910C947C1552
:102B80000C9477150E94C01560934602709347021B
:102B900080934802909349020C947C1160E070E0AD
:102BA000CB010C94C2150F931F9341E050E060E0FD
:102BB00070E08A019B0104C0000F111F221F331F08
:102BC0008A95D2F7C901B8011F910F910C94C215D3
:102BD0000F931F9341E050E060E070E004C0440FA9
:102BE000551F661F771F8A95D2F7809146029091F4
:102BF0004702A0914802B09149028A019B01082B2B
:102C0000192B2A2B3B2BC901B8011F910F910C9452
:102C1000C2150F931F9341E050E060E070E004C0E4
:102C2000440F551F661F771F8A95D2F74095509520
:102C3000609570958091460290914702A09148025C
:102C4000B09149028A019B01082319232A233B23BF
:102C5000C901B8011F910F910C94C2150F931F93D6
:102C600041E050E060E070E004C0440F551F661F73
:102C7000771F8A95D2F78091460290914702A091E2
:102C80004802B09149028A019B01082719272A2787
:102C90003B27C901B8011F910F910C94C2150F93E6
:102CA0001F930091460210914702209148023091F3
:102CB0004902602B712B822B932B1F910F910C9447
:102CC000C2150F931F930091460210914702209165
:102CD00048023091490260237123822393231F917C
:102CE0000F910C94C2150F931F93009146021091FF
:102CF00047022091480230914902602771278227BC
:102D000093271F910F910C94C21508952CE0929F68
:102D1000800D1124E82FE695E695E695877051E041
:102D200001C0550F8A95EAF785E0E89FF00111246C
:102D3000E75EFD4F20E030E070E04081CB01022EE5
:102D400002C0969587950A94E2F781708195842751
:102D50008523842781932F5F3F4F2530310569F705
:102D600008952CE0929F800D1124682F669566953A
:102D70006695982F977085E0689FB001112440E018
:102D800050E080E0FB01E40FF51FE75EFD4F20817E
:102D900030E0092E02C0369527950A94E2F721709B
:102DA0003327042E01C0220F0A94EAF7822B4F5FCB
:102DB0005F4F4530510531F70895BF92CF92DF92B2
:102DC000EF92FF920F931F93CF93DF938C01C090EC
:102DD0004602D0904702E0904802F090490280916C
:102DE0004A0290914B02A0914C02B0914D02C82A28
:102DF000D92AEA2AFB2ACFE1D0E0D701C6010C2E5E
:102E000004C0B695A795979587950A94D2F780FD4B
:102E100004C0219790F7B12C07C0BC2EB8018C2FAD
:102E20000E94F1060197A9F38B2DDF91CF911F919D
:102E30000F91FF90EF90DF90CF90BF900895CF93C8
:102E4000DF93EC010E94DD16BE010E94F106DF91C6
:102E5000CF9108951F93CF93DF93EB019091DE0103
:102E6000992321F0CB010E941F1713C0882349F03A
:102E7000CB010E94DD16182F682FCE010E94861606
:102E800004C0CB010E94B116182FBE01812F0E94F1
:102E9000F106DF91CF911F91089580914F028595A2
:102EA00085958595089580914F028770089582E0F9
:102EB00080934E0281E08093E001089510924E02CB
:102EC0001092E001089580914E02823019F481E061
:102ED00080934E0280914E02833011F40C945E1761
:102EE000089580914E02823019F483E080934E025F
:102EF00080914E02813011F40C945E1708959091E8
:102F00004F02977081E009F480E0089590919B0250
:102F100092FB222720F9281751F080FB92F9909319
:102F20009B0280919A0290919B020C948F180895B5
:102F300080919B0282FB882780F991E089270C947D
:102F4000861781E00C94861780E00C948617809198
:102F50007302089590917302892B809373020895F0
:102F600080959091730289238093730208958093D2
:102F70007302089510927302089590917202892B42
:102F800080937202089580959091720289238093B4
:102F90007202089510927202089590917102892B25
:102FA0008093710208958095909171028923809396
:102FB000710208951092710208958091500208954F
:102FC00008950C94E0170C94E11790919B0292FDE8
:102FD00008C090915002981721F0809350020C94F1
:102FE000E317089580915002882329F0109250022F
:102FF00080E00C94E3170895E0910001F091010145
:10300000809173028083E0910001F0910101908131
:1030100080917202892B8083E0910001F09101017F
:10302000908180917102892B808380915002882346
:1030300081F0E0910001F09101019081892B808362
:1030400080910001909101010E941A1981110E9442
:10305000F21780910001909101010C94060C0C94E0
:10306000E01790919B0292FD10C098E0899F90011B
:103070001124262B20934F020E94E81580914F02C5
:103080008595859585950C942F180C94E8151092CC
:103090004F0280E00C942F1820914F0280958223DC
:1030A00080934F02982F977041F430E0482F082EFC
:1030B000000C550B2417350721F490919B0292FFC9
:1030C00007C08595859585950E9409160C9447182B
:1030D000089580E0089580E090E00E94A52121E01D
:1030E0008A3E9E4F09F020E0822F089582E090E012
:1030F0000C949D2183E090E00C949D21CF9384E07B
:1031000090E00E949D21C82F82E290E00E949D21C4
:103110002C2F30E0A901582BCA01CF910895CF93ED
:10312000C92F682F84E090E00E94AB216C2F82E2CF
:1031300090E0CF910C94AB21AB01BC018FE090E00B
:103140000C94BD21AB01BC0183E190E00C94BD2146
:1031500060E070E0CB010C94A21860E070E0CB015D
:103160000E949C180C94A8186AEE7EEF80E090E014
:103170000E94C92160E082E090E00E94AB2160E003
:1031800083E090E00E94AB2110924A0210924B0221
:1031900010924C0210924D0260E084E090E00E9498
:1031A000AB2160E082E290E00E94AB2160E085E02C
:1031B00090E00E94AB2160E086E090E00E94AB21AD
:1031C0006FEF87E090E00E94AB2140E050E0BA0151
:1031D00088E090E00E94BD2160E08DE090E00E94D8
:1031E000AB2140E050E0BA0188E190E00E94BD21AF
:1031F00060E087E190E00E94AB2140E050E0BA013E
:103200008CE190E00E94BD2160E070E080E290E0FF
:103210000E94C92140E050E0BA0188E190E00E949C
:10322000BD210C94AD180C94B418682F8EE090E07A
:103230000C94AB21FC01329680910C01882331F073
:1032400080919A0287FF02C09EE101C096E080E073
:10325000915028F021912223D9F38F5FF9CF08955F
:10326000662351F120910C012223E9F020919A026A
:1032700027FF19C0462F4695469546954E31E0F4F6
:10328000677021E030E002C0220F331F6A95E2F739
:10329000FC01E40FF11D828190E02823392381E0B5
:1032A000232B69F409C0FC0132960896219162171C
:1032B00029F0E817F907D1F780E0089581E0089533
:1032C0009C01FC0132969FEF80E04191461789F006
:1032D0009F3F19F4411101C0982F8F5F8630A9F7E5
:1032E0009F3F39F0F901E90FF11D97FDFA956283CF
:1032F000089508959C012A5F3F4FFC0142814613C7
:1033000001C01282019682179307B9F70895262FFC
:103310002695269526952E3168F4FC01E20FF11DC5
:10332000677021E030E001C0220F6A95EAF78281E0
:10333000282B22830895262F2695269526952E3113
:1033400070F4FC01E20FF11D677021E030E001C074
:10335000220F6A95EAF72095828128232283089517
:1033600020910C01222329F020919A0227FD0C9430
:1033700087190C94601920910C01222329F02091C7
:103380009A0227FD0C949B190C947A1920910C0138
:10339000FC013296222331F080919A0287FF02C00D
:1033A0008EE101C086E0DF011D928A95E9F708955C
:1033B00008950C94D8190C94D819CF930E94DB1956
:1033C0000E94FE030E94D919C0E08C2F0E942405A0
:1033D000892B29F4CF5FC630C1F780E001C081E0BE
:1033E000CF9108950C94D8190C94F2198091AA02E7
:1033F000843049F10E94F41980E00E94C9061092BD
:10340000750220E488E190E00FB6F894A8958093C7
:1034100060000FBE2093600083B7817F846083BF0C
:1034200083B7816083BF7894889583B78E7F83BF8D
:103430000FB6F894A8958091600088618093600031
:10344000109260000FBE08950C94D8190E9492113A
:103450000E94ED0B0E94C9060C94241A1F920F9231
:103460000FB60F9211248F939F93AF93BF938091C8
:103470007502811113C08091A2029091A302A091C4
:10348000A402B091A5024196A11DB11D8093A20294
:103490009093A302A093A402B093A502BF91AF9111
:1034A0009F918F910F900FBE0F901F90189582E003
:1034B00084BD93E095BD9AEF97BD80936E0008950B
:1034C0002FB7F8948091A2029091A302A091A40238
:1034D000B091A5022FBF08952FB7F8946091A20272
:1034E0007091A3028091A4029091A5022FBF08952C
:1034F0009C014FB7F8948091A2029091A302A091F1
:10350000A402B091A5024FBF821B930B089578943B
:103510001F920F920FB60F9211248F939F93AF9328
:10352000BF938091A2029091A302A091A402B091B6
:10353000A5020196A11DB11D8093A2029093A30242
:10354000A093A402B093A502BF91AF919F918F91D8
:103550000F900FBE0F901F901895F89481E0809304
:10356000E00080E28093D800E9ECF0E010828FE187
:103570009EE40197F1F700C000001DBA10926800A8
:103580001CBC10BE1FBA10927A0010926E001092EE
:103590006F0010927100109272001082ECEBF0E05C
:1035A000108214B817B81AB81DB810BA108215B81E
:1035B00018B81BB81EB811BA0C94003F0895909328
:1035C000950180939401089580919602089508953D
:1035D000CF93DF9300D01F92CDB7DEB79091AA02B0
:1035E000943019F589837B836A8382E08093E900B4
:1035F0008FEF9091E800815095FD06C095ED9A956A
:10360000F1F700008111F5CF8091E80085FF0DC032
:1036100040E050E063E070E0CE0101960E94F91CAA
:103620008091E8008E778093E8000F900F900F90C4
:10363000DF91CF910895BC0184E00C94E81ABC019D
:1036400083E00C94E81ACF93DF9320910C0122239E
:1036500039F020919A0227FF03C060E222E002C005
:1036600068E021E02093E9002FEF3091E80021503D
:1036700035FD06C035ED3A95F1F700002111F5CF83
:103680002091E80025FF1DC0EC0180910C01811103
:1036900005C040E050E068E070E003C070E040E04A
:1036A00050E0CE010E94F91C8091E8008E77809353
:1036B000E80080E2FE01A6E7B2E001900D928A9553
:1036C000E1F7DF91CF9108958091A902811109C09E
:1036D0000E948A1E0E94E71E8091E200846080930F
:1036E000E20008951092A90208950895089508959A
:1036F00042E061EC81E00E94031E42E261EC82E064
:103700000C94031E8091AC02833009F460C030F445
:10371000813071F0823009F499C008958A3009F43B
:1037200085C08B3009F46BC0893009F0A7C020C078
:103730008091AB02813A09F0A1C08091E800877FB7
:103740008093E8008091AF029091B002892B21F420
:1037500060E286E792E003C060E080E090E070E025
:103760000E94441D8091E8008B778093E8000895C3
:103770008091AB02813209F081C08091AF029091BB
:10378000B002029708F07AC08091E800877F8093AA
:10379000E8008091E80082FD05C08091AA028111B5
:1037A000F8CF6CC02091F3008091F20090E0922B52
:1037B000029729F48091F1008B7F813021F4809170
:1037C000F100809396028091E8008B7753C080913E
:1037D000AB02813A09F052C08091AF029091B002E1
:1037E000892B09F04BC08091E800877F8093E80027
:1037F0008091E80080FFFCCF80910C0136C0809161
:10380000AB028132D9F58091AF029091B002892B41
:10381000A9F58091E800877F8093E8000E94381E18
:103820008091AD0280930C010C9492118091AB02B7
:10383000813221F58091E800877F8093E8000E9423
:10384000381E8091AE028093970208958091AB025A
:10385000813AA1F48091E800877F8093E80080910D
:10386000E80080FFFCCF809197028093F100809167
:10387000E8008E778093E8000C94381E089584B792
:10388000877F84BF0FB6F894A89580916000886107
:1038900080936000109260000FBE90E080E80FB649
:1038A000F89480936100909361000FBE0E94770CA2
:1038B0000E948A1E0E94E71E8091E200846080932D
:1038C000E20078940E947C210E94850C82E091E0C5
:1038D0000E94E80B8091AA028530A9F48091AA0287
:1038E000853079F40E94F6198091A8028823B1F3FB
:1038F0000E94DD19882391F30E94E31C0E9492111B
:10390000EDCF0E94261A0E948B0C0E94810CE2CF00
:103910000C948A1C292F332723303105C9F060F419
:103920002130310581F02230310509F044C08BE3AC
:1039300090E020EB34E043C021323105E1F0223247
:10394000310549F138C082E190E02BEE34E037C018
:1039500099278130910549F028F0029761F5EAE84E
:10396000F4E005C0ECEAF4E002C0EAE9F4E0849196
:1039700090E09F0124C06115710541F0613071052F
:10398000D1F489E090E02BED34E019C089E090E0BB
:1039900022EC34E014C06115710541F0613071050D
:1039A00051F48DE690E02DEF34E009C080E490E022
:1039B0002AE635E004C080E090E020E030E0FA0143
:1039C00031832083089580E189BD82E189BD09B4F6
:1039D00000FEFDCF8091D8008F7D8093D80080912C
:1039E000E00082608093E0008091E00081FDFCCFE8
:1039F0000895CF92DF92EF92FF920F931F93CF9390
:103A0000DF93EC018B017A010E94571E811133C0B4
:103A1000E114F10439F0F70180819181081B190B41
:103A2000C80FD91FC12CD12C0115110519F1809196
:103A3000E80085FD16C08091E8008E778093E8004D
:103A4000E114F10449F0F70180819181C80ED91E7B
:103A5000D182C08285E00FC00E94571E882321F3C7
:103A60000AC089918093F10001501109FFEFCF1A2C
:103A7000DF0ADACF80E0DF91CF911F910F91FF90A5
:103A8000EF90DF90CF9008952091B1023091B20273
:103A90002617370748F06115710539F42091E800C1
:103AA0002E772093E80001C0B901FC0120E06115E8
:103AB000710579F18091AA028823F1F18530F1F145
:103AC0008091E80083FD3CC08091E80082FD2EC01B
:103AD0008091E80080FFEBCF2091F3008091F2000D
:103AE00090E0922B6115710551F08830910538F402
:103AF00021912093F100615071090196F3CF21E0EB
:103B0000089709F020E08091E8008E778093E80024
:103B1000CECF2111CFCF0AC08091AA02882361F0B5
:103B2000853061F08091E80083FD0AC08091E80053
:103B300082FFF2CF80E0089582E0089583E0089547
:103B400081E008952091B1023091B2022617370723
:103B500048F06115710539F42091E8002E77209323
:103B6000E80001C0B901FC0120E06115710591F187
:103B70008091AA02882309F440C0853009F43FC02F
:103B80008091E80083FD3DC08091E80082FD2FC058
:103B90008091E80080FFE9CF2091F3008091F2004E
:103BA00090E0922B6115710559F08830910540F431
:103BB00024912093F1003196615071090196F2CF62
:103BC00021E0089709F020E08091E8008E7780934B
:103BD000E800CBCF2111CCCF0AC08091AA02882364
:103BE00061F0853061F08091E80083FD0AC080912A
:103BF000E80082FFF2CF80E0089582E0089583E03C
:103C0000089581E00895982F973068F59093E90022
:103C1000981739F07091EC002091ED005091F00070
:103C200003C0242F762F50E021FD02C09F5FECCF10
:103C30003091EB003E7F3093EB003091ED003D7F03
:103C40003093ED003091EB0031603093EB007093D6
:103C5000EC002093ED005093F0002091EE0027FD42
:103C6000E5CF80E008958F708093E90081E00895AA
:103C70008091AB0287FF11C08091E80082FD05C0F2
:103C80008091AA028111F8CF11C08091E8008B7752
:103C90000BC08091AA02882349F08091E80080FF40
:103CA000F8CF8091E8008E778093E8000895209106
:103CB000E4003091E50095E64091EC00842F81709E
:103CC00040FF23C08091E80080FD1DC08091AA02C2
:103CD000882399F0853099F08091EB0085FD11C023
:103CE0004091E4005091E5002417350729F39150E5
:103CF00011F09A01E1CF84E0089582E0089583E015
:103D0000089581E0089580E008954091E80042FF21
:103D1000DDCF08950E94F81E0E94001FE0EEF0E043
:103D2000808181608083E8EDF0E080818F778083FF
:103D300019BCA7EDB0E08C918E7F8C9380818F7E33
:103D400080831092A90208950F931F93CF93DF935E
:103D50000E94F81E0E94001FC8EDD0E088818F7776
:103D6000888388818068888388818F7D888319BC57
:103D70001092AA021092A6021092A8021092A70214
:103D800000EE10E0F80180818B7F80838881816064
:103D9000888342E060E080E00E94031EE1EEF0E0F4
:103DA00080818E7F8083E2EEF0E08081816080837D
:103DB000808188608083F80180818E7F8083888104
:103DC00080618883DF91CF911F910F910895E8ED75
:103DD000F0E080818F7E8083E7EDF0E0808181607C
:103DE000808384E082BF81E08093A9020C94A41EAA
:103DF000E8EDF0E080818E7F80831092E2000895EC
:103E00001092DA001092E10008951F920F920FB6FF
:103E10000F9211242F933F934F935F936F937F9350
:103E20008F939F93AF93BF93EF93FF938091E100A4
:103E300082FF0BC08091E20082FF07C08091E10009
:103E40008B7F8093E1000E947B218091DA0080FFCC
:103E50001FC08091D80080FF1BC08091DA008E7F48
:103E60008093DA008091D90080FF0DC080E189BD88
:103E700082E189BD09B400FEFDCF81E08093AA02F2
:103E80000E94641B05C019BC1092AA020E94721BFA
:103E90008091E10080FF19C08091E20080FF15C091
:103EA0008091E2008E7F8093E2008091E200806149
:103EB0008093E2008091D80080628093D80019BC82
:103EC00085E08093AA020E94761B8091E10084FF26
:103ED00030C08091E20084FF2CC080E189BD82E186
:103EE00089BD09B400FEFDCF8091D8008F7D8093FD
:103EF000D8008091E1008F7E8093E1008091E20004
:103F00008F7E8093E2008091E20081608093E200E6
:103F10008091A602882311F084E007C08091E3001D
:103F200087FD02C081E001C083E08093AA020E9465
:103F3000771B8091E10083FF29C08091E20083FF1D
:103F400025C08091E100877F8093E10082E080932B
:103F5000AA021092A6028091E1008E7F8093E10078
:103F60008091E2008E7F8093E2008091E200806188
:103F70008093E20042E060E080E00E94031E8091B6
:103F8000F00088608093F0000E94751BFF91EF9114
:103F9000BF91AF919F918F917F916F915F914F9161
:103FA0003F912F910F900FBE0F901F9018951F9269
:103FB0000F920FB60F9211242F933F934F935F935D
:103FC0006F937F938F939F93AF93BF93CF93DF9321
:103FD000EF93FF93C091E900CF708091EC00D82F50
:103FE000D17080FDD0E81092E9008091F000877FC9
:103FF0008093F00078940E941B201092E900809139
:10400000F00088608093F000CD2BCF70C093E90062
:10401000FF91EF91DF91CF91BF91AF919F918F91E0
:104020007F916F915F914F913F912F910F900FBEB4
:104030000F901F9018951F93CF93DF93CDB7DEB7E6
:10404000AA970FB6F894DEBF0FBECDBFEBEAF2E041
:104050008091F100819322E0E33BF207C9F70E94CF
:10406000821B8091E80083FF2EC18091AB0290916A
:10407000AC02492F50E04A30510508F024C1FA0142
:10408000E558FF4F0C949721803821F0823809F0D1
:104090001AC108C08091A7029091A802992389F0C3
:1040A00082600FC08091AF028F70873008F00BC123
:1040B0008093E9008091EB0085FB882780F91092BE
:1040C000E9009091E800977F9093E8008093F100D9
:1040D0001092F100D1C0282F2D7F09F0F4C0882361
:1040E00019F0823061F0EFC08091AD02813009F0AB
:1040F000EAC0933009F080E08093A8022EC080913E
:10410000AD0281112AC08091AF028F702FEF280F6E
:10411000263008F0D8C08093E9002091EB0020FF02
:104120001CC0933021F48091EB00806214C0909108
:10413000EB0090619093EB0021E030E0A90102C018
:10414000440F551F8A95E2F74093EA001092EA0067
:104150008091EB0088608093EB001092E9008091E1
:10416000E800877F8093E8000E94381EACC0811170
:10417000AAC01091AD021F778091E3008078812B57
:104180008093E3008091E800877F8093E8000E949D
:10419000381E8091E80080FFFCCF8091E3008068AA
:1041A0008093E300111102C082E001C083E080939C
:1041B000AA0289C08058823008F085C08091AD0283
:1041C0009091AE028C3D53E0950779F583E08A83A8
:1041D0008AE289834FB7F894DE01139620E03EE02F
:1041E00051E2E32FF0E050935700E49120FF03C029
:1041F000E295EF703F5FEF708E2F90E0EA3010F0A5
:10420000C79601C0C0968D939D932F5F243149F7C7
:104210004FBF8091E800877F8093E8006AE270E0FA
:10422000CE0101960E94441D16C06091AF027091AC
:10423000B002AE014F5F5F4F0E94881CBC01892B0A
:1042400009F441C09091E800977F9093E80089813C
:104250009A810E94A21D8091E8008B778093E800EC
:1042600032C0803881F58091E800877F8093E80034
:104270008091A6028093F1008091E8008E7772CF42
:10428000811121C08091AD029091AE0299270297D1
:10429000D4F48091E800877F8093E8008091AD029C
:1042A0008093A6020E94381E8091A602811106C04A
:1042B0008091E30087FD02C081E001C084E080932B
:1042C000AA020E94781B8091E80083FF0AC08091B7
:1042D000E800877F8093E8008091EB008062809304
:1042E000EB00AA960FB6F894DEBF0FBECDBFDF91EC
:1042F000CF911F9108950895CF938091AA028823AA
:10430000A1F0C091E900CF709091EC00892F8170ED
:1043100090FD80E8C82B1092E9008091E80083FDB1
:104320000E941B20CF70C093E900CF910895EE0F3B
:10433000FF1F0590F491E02D0994F999FECF92BDED
:1043400081BDF89A992780B50895A8E1B0E042E0D0
:1043500050E00C94D121262FF999FECF92BD81BD5A
:10436000F89A019700B4021639F01FBA20BD0FB6B3
:10437000F894FA9AF99A0FBE08950396272F0E948F
:10438000AC210E94AB21252F0E94AC21242F0C943C
:10439000AC210196272F0E94AC210C94AB21DC01AB
:1043A000CB01FC01F999FECF06C0F2BDE1BDF89A40
:1043B000319600B40D9241505040B8F70895F894EA
:0243C000FFCF2D
:1043C2005102E41A231BE71A1F1B1B1B01000102E7
:1043D20003040501010101010100000000000000C9
:1043E2000000000000313233929366F0F1F4F5F6EA
:1043F200F7E200E900EA00B500B600B700CD00839D
:1044020001CC008A01920194012102230224022597
:1044120002260227022A02B300B4006F0070008154
:104422008283E200E900EA00B500B600B700CD00E1
:104432008301CC008A019201940121022302240209
:104442002502260227022A02B300B4006F00700080
:0444520081828300E0
:00000001FF
