:100000000C94A5010C94C2010C94C2010C94C20181
:100010000C94C2010C94C2010C94C2010C94C20154
:100020000C94C2010C94C2010C94081D0C94DA1DAE
:100030000C9425180C94C2010C94C2010C94C201BA
:100040000C94C2010C94C2010C94C2010C94C20124
:100050000C94C2010C9472180C94C2010C94C2014D
:100060000C94C2010C94C2010C94C2010C94C20104
:100070000C94C2010C94C2010C94C2010C94C201F4
:100080000C94C2010C94C2010C94C2010C94C201E4
:100090000C94C2010C94C2010C94C2010C94C201D4
:1000A0000C94C2010C94C2010C94C201E10CE10C4D
:1000B000130D130D5C0D060FA10E060F7E0D190E0C
:1000C0002B0E2B0E980E060F060F000FAD0ECE0E48
:1000D000B50EB80EC10EBD0EC60ECD0FCD0FDF0F83
:1000E000DF0FD60FDF0FDF0FDF0FCD0FCD0FDB0FD1
:1000F000DF0FDF0FDB0F471E6E1E661F6E1E661FB3
:10010000BA1EDD1E661F341F431F29001E001F007C
:1001100020002100220023002400250026002700C3
:100120002D002B0014001A000800150017001C00F9
:1001300018000C00120013003100E100040016004A
:10014000070009000A000B000D000E000F0033002D
:10015000340039001D001B000600190005001100C5
:100160001000360037003800E50035002D002E0065
:100170002F00300000000000500052004F005100DE
:100180000158E300E0002C002A00E200AA00A900C8
:100190004A002A002C0001514C003A003B003C0070
:1001A0003D003E003F00400041004200430044004B
:1001B000450001001E021F022F02300231025200D0
:1001C000240025002600250246000100200221020D
:1001D00026022702350051002100220023002E02B2
:1001E0004B000100220223022F00300035022402BE
:1001F0001E001F00200031004E00005C015C010069
:1002000049004D00000000000100620001002E00C6
:100210000100AE000100010001000100A800AB00D8
:100220000100010001000100AC000E034400610068
:100230006300740079006C0000001003410064004A
:100240006500720065007400680000000403090482
:1002500009023B00020100A0FA09040000010301A9
:100260000100092111010001224000070581030856
:10027000000A090401000103000000092111010026
:1002800001226D000705820320000A1201100100FF
:10029000000008EDFE08130100010200010501093C
:1002A00080A101850319012AB700150126B7009521
:1002B0000175108100C0050C0901A1018504190117
:1002C0002AA002150126A002950175108100C00523
:1002D000010906A1018505050719E029E715002593
:1002E000019508750181020507190029EF15002500
:1002F0000195F0750181020508190129059505751B
:10030000019102950175039101C005010906A10142
:10031000050719E029E715002501950875018102F7
:100320009501750881010507190029FF150026FFB1
:1003300000950675088100050819012905950575C0
:10034000019102950175039101C011241FBECFEFE9
:10035000DAE0DEBFCDBF12E0A0E0B1E0E8ECFFE301
:1003600002C005900D92A432B107D9F723E0A4E2B0
:10037000B2E001C01D92A933B207E1F70E94481A0A
:100380000C94E21F0C9400001092B9008AE0809354
:10039000B800089594EA9093BC009091BC0097FF38
:1003A000FCCF9091B900987F983021F0903111F0F6
:1003B00081E008958093BB0084E88093BC00809125
:1003C000BC0087FFFCCF8091B900887F883111F095
:1003D000803471F780E0089584E98093BC008091B7
:1003E000BC0084FDFCCF08958093BB0084E880931B
:1003F000BC008091BC0087FFFCCF9091B900987F32
:1004000081E0983209F480E0089584E88093BC008C
:100410008091BC0087FFFCCF8091BB00089590E0E5
:10042000FC01ED5EFE4F2081211118C0FC01E15E50
:10043000FE4F8081E82FE295EF70F0E031A1282F88
:100440002F7081E090E001C0880F2A95EAF7982F7D
:100450009095932391A392A1892B82A30895089547
:100460000C942F020C9430020C942F0280912402E1
:1004700081110BC00E94C4012FEF83ED90E3215046
:1004800080409040E1F700C0000080911F03882366
:1004900041F080E40E94CA0180931E03811145C08F
:1004A00013C0EDE0F1E041E050E09A01019002C09C
:1004B000220F331F0A94E2F7822B21E0E331F20787
:1004C000A1F780931F03E5CF80E00E94F4018093A1
:1004D0001E0381112AC00E94F40180931E03811122
:1004E00024C080911F030E94F40180931E03811198
:1004F0001CC00E94EC0180E40E94CA0180931E038C
:10050000811113C08CE00E94F40180931E038111BD
:100510000CC00E94F40180931E03811106C08091DB
:100520001F030E94F40180931E030C94EC01CF93EF
:100530000E943602C0E08C2F0E940F02CF5FCC30A9
:10054000D1F7ABE2B1E041E050E08D91E82FE295C8
:10055000EF70F0E021A18F70BA0102C0660F771F23
:100560008A95E2F7CB01962F9095922391A392A1C1
:10057000892B82A371E0A133B70739F7E2E3F2E0F8
:10058000A6E2B2E08EE392E0119211921D921D92CA
:100590008E179F07C9F7CF910C94B1045F926F92A9
:1005A0007F928F929F92AF92BF92CF92DF92EF9203
:1005B000FF920F931F93CF93DF9380911E038823A5
:1005C00049F0809125028F5F80932502811102C03E
:1005D0000E94360283E1C82E81E0D82E9FE1E92EE9
:1005E00091E0F92EC0E0D0E001E010E055245394F2
:1005F000BC2EAC2EF60181916F01882301F1809110
:100600001E03811132C080E40E94CA0180931E0340
:10061000811112C082E10E94F40180931E038111B6
:100620000BC0C8010C2E01C0880F0A94EAF7809510
:100630000E94F40180931E030E94EC0116C0F70192
:100640008081E82FE295EF70F0E021A18F70A80182
:1006500002C0440F551F8A95E2F7CA01922F982BCA
:1006600091A392A18095892382A350EA5A95F1F72C
:1006700085E08B1518F180911E0381117FC080E405
:100680000E94CA0180931E03882311F0812C11C09F
:1006900083E10E94F40180931E038111F7CF81E46E
:1006A0000E94CA0180931E038111F0CF0E940502AF
:1006B000882E0E94EC01882D809521C0EBE2F1E0AC
:1006C00040E050E080E09191A92FA295AF70B0E09A
:1006D00090962C9130E09F7002C0359527959A95A1
:1006E000E2F720FD07C09801042E01C0220F0A94F2
:1006F000EAF7822B4F5F5F4F4630510521F7A80183
:1007000002C0440F551FAA94E2F73A016094709416
:10071000E6E2F2E020E030E0A12C882E912CDF010F
:1007200080819181B401022E02C0759567950A946B
:10073000E2F760FF04C0BC01642B752B03C0BC0151
:10074000662177217183608332966D917C91861743
:10075000970711F0AA24A3942F5F3F4F263031054D
:10076000F1F68B2D0E940F02AA2041F050923E021A
:100770000E9457189093400280933F022196EFEF1A
:10078000EE1AFE0ACC30D10509F032CF80913E023C
:100790008823B9F080913F02909140020E94631833
:1007A000409778F0E6E2F2E0A2E3B2E082E392E082
:1007B000219131912D933D938E179F07C9F7109288
:1007C0003E020E94BB0481E0DF91CF911F910F9107
:1007D000FF90EF90DF90CF90BF90AF909F908F9061
:1007E0007F906F905F900895E82FF0E0EE0FFF1F6D
:1007F000EE5CFD4F80819181089508959C013A95AA
:1008000021153F4138F5DC01AA27B270AC0144271D
:1008100054709C012227387094FF0FC090FF02C0D3
:1008200080E101C080E0AB2B09F08062452B09F02C
:100830008064232B69F080680BC0892F8170AB2BFB
:1008400009F08260452B09F08460232B09F0886051
:10085000FB0109940895CF93DF93EC01805E910929
:10086000089710F0209719F464E97CE002C067E96A
:100870007FE0CE010E94FE038C2FDF91CF910C947C
:10088000070CCF93DF93EC010E94550CCE01805EE4
:100890009109089710F0209719F46BE97CE002C0E9
:1008A0006EE97FE0CE01DF91CF910C94FE03CF93F0
:1008B000DF93EC010E942B04CE01DF91CF910C94C9
:1008C000410481E0089581E008950C946304089543
:1008D0000C9467041F93CF93DF9300D000D01F9236
:1008E000CDB7DEB749835A836B8330916402898127
:1008F0009A81311114C0662359F0222349F00E94D5
:100900000615182F682F89819A810E94AF1403C0A1
:100910000E94DA14182F69817A81812F04C00E9405
:10092000061569817A810F900F900F900F900F90AC
:10093000DF91CF911F910C943205FC01262F40814D
:1009400051816281738184810C946A04CF93DF9317
:10095000EC0160E00E949D04BE01DF91CF910C94F8
:1009600068040E946316811102C00E940A170E9447
:100970005D070C9432020C943402282F2F7041F042
:10098000822F90E02A3010F44D960895069708952E
:1009900087E290E0089508950E94BB0F0E94CB0467
:1009A0002FEF84E39CE0215080409040E1F700C0AD
:1009B00000000C9498180F931F93CF93DF93EC01D2
:1009C00061E00E949D048C01BE010E9465048823A1
:1009D00079F1BE01C8010E94E707882349F1BE01F1
:1009E000C8010E947808882319F1BE01C8010E943D
:1009F000CA088823E9F0BE01C8010E94F5098823CE
:100A0000B9F08A81882369F001158CE5180731F067
:100A10000F3D1C4531F40E940A170AC00E94CC0405
:100A200007C0CE01DF91CF911F910F910C9461040B
:100A300080E0DF91CF911F910F91089508950C945C
:100A40001E0581E008950C942105CF93C82F0E94C4
:100A50001F058C2F0E942305CF91089580E090E020
:100A60000895089528E4829FC0011124FC012CE020
:100A7000729FE00DF11D1124E60FF11DEE0FFF1F17
:100A8000E65FFE4F859194910895880F991FFC01B0
:100A9000E65DFD4F859194910895CF93DF930E9479
:100AA00032050E947106EC01811521E59207E8F5F7
:100AB000811540E5940708F0BCC0883E910500F51B
:100AC000803E910508F009C1883A910570F4853A95
:100AD000910508F088C08130910509F4FEC008F442
:100AE000FAC0049708F0F9C0F6C08F3B910508F4EE
:100AF00082C0803C910508F4EEC0805C910988C0FA
:100B0000C11580E3D80758F4C11520E2D20708F0D8
:100B10007DC0C11541E0D40708F0DFC0DCC0C115BD
:100B200080E4D80708F082C077C0811526E59207D7
:100B300070F5811545E5940708F0B1C0C11583E54E
:100B4000D80750F4C11522E5D20708F08DC0DC2F7C
:100B5000CC27C16FD06AC1C0C11544E5D40708F0E5
:100B600099C0CE018370992721E030E002C0220FA6
:100B7000331F8A95E2F78C2F8695869540E2849FF5
:100B8000C0011124E901C82BD92BDA68A6C0C11510
:100B90008AE5D80778F4C11529E5D20708F088C09E
:100BA000C11548E5D40708F496C0DC2FCC27C06FE8
:100BB000D06A93C0C1158BE5D80708F48CC0C11565
:100BC0002CE5D20708F484C0CE01905681159042DE
:100BD00008F081C08D2F8F710E940507DD27D0623C
:100BE0008F71D82B7AC0C55AD0E0C151DE4FC88171
:100BF000D0E0D06472C0C85AD0E0CC0FDD1FCF5314
:100C0000DE4F0990D881C02DD46467C0CE019F709B
:100C10000E944505EC0161C0CE019927D3FF03C0B6
:100C2000EC01D86C5AC0EC01D06C57C0DF70D06AB0
:100C300054C074E0969587957A95E1F783709C2F60
:100C4000937021E030E002C0220F331F9A95E2F743
:100C50003C68382BCF70C695C69580E2C89FE001EE
:100C60001124C22BD32B39C0CE018370992721E0E8
:100C700030E002C0220F331F8A95E2F78C2F869551
:100C8000869540E2849FC0011124E901C82BD92B2D
:100C9000DC6823C0DC2FCC27C46FD06A1EC00E9442
:100CA00005078F71C82FD0E0DC2FCC27D06215C08C
:100CB0008C2F8F700E94050794E0D695C7959A9562
:100CC000E1F7CF70D0E0DC2FCC27D069C82B05C06E
:100CD000DD27D06602C0C0E0D0E0CE01DF91CF9129
:100CE00008958238910569F1B0F48133910509F4D2
:100CF0006DC048F48932910509F463C08A329105C8
:100D000009F469C008958533910509F455C0893304
:100D10009105B9F00895833E910569F138F4803E5C
:100D20009105B1F0823E910509F10895863E910545
:100D3000A9F1873E9105B9F1843E910509F064C09F
:100D400023C020912A0320FD4FC021FD4DC00895EE
:100D500080912A0380FD44C080912B0380FF44C012
:100D600080912A0384FD42C083EE4DC080912A0306
:100D700082FF38C0F5CF80912A0382FD33C0809175
:100D80002B0380FD31C0ECCF80912B0381FF32C05B
:100D900080912A0384FD2AC087EE35C080912A0302
:100DA00083FF26C0F5CF80912A0383FD21C0809167
:100DB0002B0381FD1FC0ECCF80912A0385FD1CC051
:100DC0001DC080912A0385FD19C016C080912A0399
:100DD00086FD16C017C080912A0386FD13C010C07F
:100DE00089E311C082EE0FC080EE0DC080E00BC021
:100DF00086EE09C084EE07C089E205C085E303C022
:100E00008AE201C081E390E0089590912A0392FF65
:100E10000DC0282F2871283019F4877F846006C000
:100E2000282F2471243011F48B7F886093FF0DC02C
:100E3000282F2871283119F4877E846106C0282F55
:100E40002471243111F48B7E886120912B0320FFC3
:100E50000DC0382F3871383019F4877F816006C093
:100E6000382F3171313011F48E7F886021FF0DC031
:100E7000282F2871283119F4877E816106C0282F18
:100E80002171213111F48E7E886194FD877E089551
:100E9000CF93DF9397FF0DC0FB012281222349F0FE
:100EA000EC010E947307CE019F770E94CA070E943F
:100EB000AC0781E0DF91CF9108958CE090E00E9433
:100EC000A01F90E0A0E0B0E0809320039093210366
:100ED000A0932203B09323030895609120038CE034
:100EE00090E00C94AE1F0E94370A86958170809323
:100EF000250390912003913029F4882319F089E388
:100F00000E94810C0E94AF15809324030E94C21599
:100F100080912003813071F048F0823081F084307C
:100F2000A1F486EE0E94810C88E10DC082EE0E9441
:100F3000070C0BC088E193E00E94570406C082EEC4
:100F40000E94070C87E50E94810C8FE39CE90197C2
:100F5000F1F700C00000089580912003813039F03E
:100F600078F0823069F0843089F488E20DC08CE238
:100F70000E94810C80912503882341F089E304C0FD
:100F800082EE0E94550C02C00E94810C80912403C5
:100F90000C94BF150F931F93CF93DF938C01CCE07C
:100FA000D0E0C8010C2E02C0969587950A94E2F70E
:100FB0008F700E94BD040E9457042497CC3F8FEF8E
:100FC000D80779F7DF91CF911F910F9108950F9373
:100FD0001F93CF93DF93EC018B01FB018281882368
:100FE00061F00E94AF15CE01825E9C45853091056F
:100FF00020F4809320030E946D07B801CE01DF9199
:10100000CF911F910F910C9448070F931F93CF938B
:10101000DF93C42FD22FFC0182818823C9F0409333
:1010200043020E945718909342028093410280E24B
:101030008C0F883008F057C0C77081E001C0880F5E
:10104000CA95EAF7DF91CF911F910F910C94940C00
:1010500080914302481330C0809141029091420236
:101060000E946318883C910538F510E21D0FCD17DA
:10107000B9F080E28C0F883040F4C77081E001C085
:10108000880FCA95EAF70E949B0C183028F581E07A
:101090009D2F977001C0880F9A95EAF70E94940CD3
:1010A000802F0E94810C1830F0F4D77081E001C0CD
:1010B000880FDA95EAF70AC080E28C0F883098F43E
:1010C000C77081E001C0880FCA95EAF7DF91CF9120
:1010D0001F910F910C949B0C802FDF91CF911F914A
:1010E0000F910C94810CDF91CF911F910F91089576
:1010F0000F939C01CB01243F4CE5340731F188F478
:10110000293DFCE53F07D9F02A3D4CE5340779F14C
:10111000283D3C45A9F506E221EE41EE68ED7CE56F
:101120002BC0263FFCE53F07E1F0A8F0273F3C45F8
:1011300039F507E225EE46EE67EF7CE51DC007E2D4
:1011400025EE45EE69ED7CE517C006E221EE40EEA6
:1011500064EF7CE511C007E225EE44EE65EF7CE527
:101160000BC006E221EE42EE66EF7CE505C008E228
:1011700021E045EE6AED7CE50E94050880E008C0AC
:10118000FC018281882319F01092430201C081E0A2
:101190000F910895CF93DF93EC01FB0182818823A7
:1011A00009F41FC1C230FCE5DF0708F41BC1C631DA
:1011B0009CE5D90738F09E012B5F3C45293031056D
:1011C00008F010C10E94761690932B0380932A0397
:1011D000C031ECE5DE0709F4C3C008F041C0C830F7
:1011E0008CE5D80709F49AC0F0F4C430ECE5DE07CA
:1011F00009F487C068F4C2308CE5D80709F477C0D9
:10120000C330DC4509F0E3C080912A03826076C0D8
:10121000C630ECE5DE0709F46EC008F07BC08091B3
:101220002A0388606BC0CC308CE5D80709F485C0F0
:1012300068F4CA30ECE5DE0709F474C008F079C040
:101240000E94BB0F80912A03806858C0CE308CE585
:10125000D80709F476C008F07FC080912A038BC0BC
:10126000CC3FECE5DE0709F44FC018F5C3318CE53F
:10127000D80709F47DC078F4C131ECE5DE0709F444
:1012800073C0C231DC4509F0A2C00E94BB0F80913F
:101290002A038F7733C0C5318CE5D80709F472C0B3
:1012A00008F486C0CB3FDC4509F091C080912B0348
:1012B0003EC0C115FDE5DF0709F45FC058F4CE3F1D
:1012C0009CE5D90709F444C008F43FC080912B0382
:1012D00082602DC0C230FDE5DF0709F475C008F457
:1012E0005DC0C330DD4509F072C080E06EC0809102
:1012F0002A03816003C080912A03806180932A03BE
:1013000066C080912A0311C080912B038260809374
:101310002B035DC080912A038062F0CF80912A0365
:101320008064ECCF80912A0388608460E7CF81607D
:10133000EECF80912A038E7FE1CF80912A038D7FAB
:10134000DDCF80912A03877FD9CF80912B0318C0EE
:1013500080912B038D7FDBCF80912A038F7ECECFB0
:1013600080912A038F7DCACF80912A038F7BC6CFBD
:1013700080912A03877F8B7FC1CF80912B038D7F44
:101380008E7FC5CF80912A0382FB222720F991E02E
:10139000922790FB82F990FB83F9B0CF80912B03C9
:1013A000982F909591708E7F892B90FB81F9AFCF0C
:1013B0000E94BB0F80912A0387FB222720F991E02E
:1013C000922790FB87F99ACF81E00E940C178091B9
:1013D0002A0390912B030E9487160E94BB0F80E086
:1013E00001C081E0DF91CF910895CF93DF938631E3
:1013F0009C4541F5EB010E94AF15982F8A81209101
:10140000000130910101882379F09A7A81E009F492
:1014100080E080934402911102C069E201C065E35B
:10142000C9010E94A7170AC080914402811102C01D
:1014300069E201C065E3C9010E94B2170E9400166B
:1014400080E001C081E0DF91CF91089590934A023E
:10145000809349020895E0914902F0914A02309741
:1014600021F00190F081E02D099480E00895E09151
:101470004902F0914A02309711F480E008950190FA
:10148000F081E02D09950895E0914902F0914A021A
:10149000309799F020910C01222359F020912A03D2
:1014A00027FF07C0DC012C9111962C93119725E0A2
:1014B0002C930280F381E02D099408952091470236
:1014C000309148022817390771F0909348028093B1
:1014D0004702E0914902F0914A02309721F00680DC
:1014E000F781E02D0994089520914502309146023C
:1014F0002817390771F09093460280934502E091D6
:101500004902F0914A02309721F00084F185E02DE4
:101510000994089585B7806885BF85B7806885BFC1
:10152000089581E008950C94910A08950C94950A09
:101530000C94950A0C94980A0C94950A0C949C0AA5
:101540000C94950A0E948A0A0E94A00A0C949E0A92
:101550000E944E180E9497020E94CA180C949A0A80
:101560007F928F929F92AF92BF92CF92DF92EF9233
:10157000FF920F931F93CF93DF93CDB7DEB72A97D8
:101580000FB6F894DEBF0FBECDBF0E94960A0E9430
:10159000950A0E94CE020E94930A811111C08FEF1A
:1015A00089838A831B820E9457188160782F9D83CC
:1015B0008C8349815A816B818D810E94B00B4FC011
:1015C0004CE4A42E42E0B42E00E010E0702E802FF8
:1015D0000E94F4036C01F501819091905F018826CF
:1015E00099268114910431F40F5F1F4F06301105C5
:1015F00069F7D5CF8091FA0281FD0E94FD0380E05A
:10160000EE24E394F12C94012E213F21232B09F1A8
:101610008E837F82CE20DF2081E0CD2809F480E018
:1016200088870E9457188160782F9A8789874E8112
:101630005F8168858A850E94B00B000F111FF80139
:10164000E45BFD4F80819181E826F926F182E082FA
:1016500006C08F5FEE0CFF1C8C30A9F6C5CF0E9430
:101660002B0A90914B028917C9F00E942B0A809394
:101670004B022A960FB6F894DEBF0FBECDBFDF91A6
:10168000CF911F910F91FF90EF90DF90CF90BF907F
:10169000AF909F908F907F900C9425052A960FB65F
:1016A000F894DEBF0FBECDBFDF91CF911F910F9198
:1016B000FF90EF90DF90CF90BF90AF909F908F9072
:1016C0007F900895DC0111962C9111979C91492FE0
:1016D00050E061E070E0FB0102C0EE0FFF1F9A9541
:1016E000E2F7CF0112966C91129730E0662329F051
:1016F00060916602662331F10BC0F901EE0FFF1F06
:10170000E85AFD4F6081718168237923672BD1F0FE
:101710006CE0629FF001639FF00D1124E40FF51F50
:10172000EE0FFF1FEF5CFE4F408151814D935C93A4
:10173000220F331FF901E85AFD4F20813181822B9E
:10174000932B0BC0220F331FF901E85AFD4F8095F0
:101750009095208131818223932391838083089502
:10176000CF93DF93CDB7DEB72B970FB6F894DEBFDC
:101770000FBECDBF942F4F83252F588769877A8757
:101780008B874A855B85452B31F02F3F31F481E013
:101790009F3F19F403C081E001C080E080FD04C0D8
:1017A000CE0107960E94620BDE01119686E0FD01D4
:1017B00011928A95E9F785E0FE01379601900D9226
:1017C0008A95E1F749815A816B817C818D819E8167
:1017D0000E9474122B960FB6F894DEBF0FBECDBFD9
:1017E000DF91CF910895FC01808191810E9448157D
:1017F00092959F70963051F4863F41F08091660239
:1018000091E0892780936602909365020895CF93B3
:10181000882309F448C0C82F8CEF8C0F813AD0F48C
:101820006C2F80910001909101010E94271788235D
:1018300049F06C2F80910001909101010E94B21734
:101840000E9400166C2F80910001909101010E946E
:10185000A7170CC080E28C0F883058F4C77081E065
:1018600001C0880FCA95EAF70E94B215CF910C9477
:101870000016EBE5EC0FE33040F4F0E0E05EFD4FE6
:10188000808190E0CF910C945E0AC85AC73158F419
:10189000EC2FF0E0EE0FFF1FEE50FE4F80819181A4
:1018A000CF910C94740ACF910895882349F1682F41
:1018B0008CEF860F813A38F48091000190910101FC
:1018C0000E94B2170CC080E2860F883050F4677017
:1018D00081E001C0880F6A95EAF70E94B8150C9460
:1018E00000168BE5860F833020F480E090E00C94A6
:1018F0005E0A685A673120F480E090E00C94740A24
:101900000895CF93C82F0E94070CC93349F42FEFD5
:1019100087EE93E0215080409040E1F700C0000046
:101920008C2FCF910C94550C882321F00E94B21576
:101930000C9400160895882321F00E94B8150C9489
:10194000001608956F927F928F929F92BF92CF92CE
:10195000DF92EF92FF920F931F93CF93DF936C016F
:10196000C62F172FFC01058102950F70D281D1116E
:101970000E94D2150E94A8158823B9F0DD23A9F092
:10198000812F807F803441F090E29C0F983068F086
:10199000803611F4C63F49F082E00E944A160E9448
:1019A000A81591E0B82EB92601C0B12CE12EE29421
:1019B0009FE0E9228E2D90E0FC01EA5AFF4F0C9443
:1019C0009A1F012F0F70812F807F11F00295007FE9
:1019D000DD2399F0002309F498C180E28C0F883050
:1019E00010F0C11104C0802F0E94B21503C0802FD7
:1019F0000E94C5150E94001688C18C2F0E94550CAC
:101A0000002309F439C280E28C0F883010F0C11134
:101A100004C0802F0E94B81503C0802F0E94CB15F0
:101A20000E94001629C2912F9F70812F807FF92E6E
:101A3000803219F0F29480EFF822CC2319F0C130F3
:101A4000C9F021C0DD2371F0002341F0013031F4F1
:101A50000E94E5158F290E94ED1509C20E94E51527
:101A60008F2916C0002319F0013009F405C20E9425
:101A7000F6151EC0DD2321F0023008F0F8C107C0C2
:101A80000111FAC115C0DD2331F001113EC18F2DC6
:101A90000E94940CECC1002359F0C93309F044C1F1
:101AA000FFEF27EE83E0F15020408040E1F73AC19C
:101AB0008F2D0E949B0CE0C1812F869586958370A7
:101AC00019F0813071F0A2C1DD2331F08C2F912FFC
:101AD00093700E945E0AA4C180E090E00E945E0ABA
:101AE000A6C1DD2331F08C2F912F93700E94740AD0
:101AF00097C180E090E00E94740A99C1812F8370A1
:101B000009F048C0D11186C12C2F22952695277047
:101B1000220F220F6C2F6F70862F90E0A0E0B0E0B4
:101B2000022E04C0880F991FAA1FBB1F0A94D2F768
:101B3000C4FF10C04FE050E060E070E004C0440F0C
:101B4000551F661F771F2A95D2F7409550956095CF
:101B5000709503C040E050E0BA01212F26952695EC
:101B600023703A014B01682A792A8A2A9B2AC401E8
:101B7000B301223049F058F4213019F00E94C51306
:101B800049C10E94B31346C10E94D71343C10E94AA
:101B9000B11340C1DD2319F0812F817001C08695FA
:101BA000882309F437C12C2F229526952770220F00
:101BB000220F6C2F6F70862F90E0A0E0B0E0022E15
:101BC00004C0880F991FAA1FBB1F0A94D2F7C4FF35
:101BD00010C04FE050E060E070E004C0440F551FBB
:101BE000661F771F2A95D2F740955095609570959E
:101BF00003C040E050E0BA01212F269526952370BE
:101C00003A014B01682A792A8A2A9B2AC401B30126
:101C1000223049F058F4213019F00E948A14FAC099
:101C20000E947814F7C00E949C14F4C00E94EB1329
:101C3000F1C0012F0F70DD2339F0802F0E941114A5
:101C40008C2F0E94940CE6C08C2F0E949B0C802F3E
:101C50000E943214DFC0C23F61F128F4C03F41F05E
:101C6000C13FB9F01DC0C33F71F1C43FB1F118C00D
:101C7000DD2339F00111FBC0812F8F710E945714B1
:101C8000F6C0023008F0F8C0812F8F710E945714FF
:101C9000F3C0DD2349F0812F8F710E941114E7C03A
:101CA000D11131C0011135C0812F8F710E943214C2
:101CB000E3C0812F8F71DD2319F00E943214D7C049
:101CC0000E941114D9C0DD2329F0812F8F710E9449
:101CD000FC13CDC00E94F713CFC0DD2351F0012FBC
:101CE0000F71802F0E94111463E0802F0E9435161F
:101CF000BEC081E00E944A16023008F4BDC082E0F6
:101D00000E944A16B9C0002331F28C2F0E94070CA2
:101D1000AEC0C93349F42FEF87EE93E021508040E5
:101D20009040E1F700C000008C2F0E94550CA4C029
:101D3000412F4F706C2FC6010E942E050E94221366
:101D40006DC08C2F90E0FC01E05FF109E730F105F8
:101D500078F5EA59FF4F0C949A1FDD2309F450C01F
:101D60009091660281E0892705C0D093660248C041
:101D700081E08D278093660243C0D11141C081E08C
:101D8000F9CFD1113DC0109266023AC0DD2319F09F
:101D90000E94801535C00E948C1532C0DD2329F0C9
:101DA000809165028823E1F229C00023C9F228C08E
:101DB000809165020023C1F0882341F09091660272
:101DC00081E0892780936602109265028C2FDD23C3
:101DD00019F00E94070C14C00E94550C86E0F60111
:101DE00011928A95E9F70CC0882351F0D11108C0EF
:101DF0009091660281E089278093660210926502C5
:101E0000412F4F706C2FC6010E94310588EF8E0D57
:101E1000843020F40E942B0A0E942505DD2339F02E
:101E2000107F103611F4C63F11F00E949A15BB20A6
:101E300041F10E947C1580FD24C0F60112820E94AF
:101E400076150E941114C6010E94670F0E94761534
:101E5000DF91CF911F910F91FF90EF90DF90CF9086
:101E6000BF909F908F907F906F900C94321488EF6A
:101E70008E0D8430A8F6CECF88EF8E0D8430B8F664
:101E8000C9CFDF91CF911F910F91FF90EF90DF901D
:101E9000CF90BF909F908F907F906F9008950F93F9
:101EA0001F93CF93DF93EC01688179818A810E942F
:101EB00053158C010E94AE140E949F13B801CE01ED
:101EC0000E94A20CDF91CF911F910F910895CF93A3
:101ED000DF93EC01988189812B813C81232B31F0A8
:101EE0008F3F31F481E09F3F19F403C081E001C0CE
:101EF00080E080FD19C0CE010E94DB0481110CC07E
:101F00000E94A815882381F08A81882369F082E0E5
:101F1000DF91CF910C944A16CE010E944F0FCE0153
:101F2000DF91CF910C94A604DF91CF91089588237F
:101F300021F00E94C5150C9400160895882321F005
:101F40000E94CB150C94001608950E94D2150E9491
:101F5000E2150E94001680E090E00E945E0A80E098
:101F600090E00C94740A80910001909101010E940C
:101F7000BD170C94A50F0E94C2150C94B30FE92F46
:101F8000E295EF704E2F50E0FA013297EE30F105F6
:101F9000B0F4E359FF4F0C949A1F803F91F018F46E
:101FA000883E68F40EC0843F51F40BC0883E48F070
:101FB000813F29F406C093FB882780F9089580E0CB
:101FC000089581E008950E9448150E94BF0F08956A
:101FD000CF93DF9300D000D01F92CDB7DEB70F9024
:101FE0000F900F900F900F90DF91CF910895CF93A6
:101FF000DF9300D000D000D0CDB7DEB726960FB665
:10200000F894DEBF0FBECDBFDF91CF9108951F932F
:10201000CF93DF93C091670216E080916802C817E2
:1020200099F0D0E01C9FF0011D9FF00D1124E7599D
:10203000FD4F4081518162817381848195810E942D
:10204000F70F2196C770E9CFDF91CF911F910895C7
:102050004091990250919A0260919B0270919C026A
:1020600080919D0290919E020C94F70F0F931F9305
:10207000CF93DF9380919E0282958F7009F05DC0AF
:1020800080919B02882309F458C0809167021091C7
:1020900068026091990270919A02C0919C02D0915D
:1020A0009D0291E06F3F09F090E0292F06E0811733
:1020B00009F443C0209721F07F3F21F030E003C0B6
:1020C00031E001C0322F90E030FD34C0089FF001B4
:1020D000099FF00D1124DF01A759BD4F11963C91C6
:1020E0001197371327C03C91361324C012963C91A8
:1020F000129731111FC013964D915C9114974C1B90
:102100005D0B483C5105B0F480919E028F70806158
:1021100080939E02E259FD4F80818F7080618083A1
:1021200089E992E00E94670FDF91CF911F910F9193
:102130000C94071001968770BACFDF91CF911F9151
:102140000F9108959F92AF92BF92CF92DF92EF923C
:10215000FF920F931F93CF93DF93CDB7DEB76197B5
:102160000FB6F894DEBF0FBECDBF8C0185E0F8013D
:10217000DE011D9601900D928A95E1F7F8014081EC
:102180005181E2809091990260919A0220919C0283
:1021900030919D022115310531F06F3F31F481E01E
:1021A0009F3F19F403C081E001C080E0F82FF17077
:1021B0009F2E80FD46C1F801A380B48089E9C82E16
:1021C00082E0D82EF0909B02F501E21BF30BFF207A
:1021D00009F4DFC080919E02E83CF10508F09BC045
:1021E000282F207F09F052C0561313C0491311C085
:1021F000FE2CE1100EC08F70806180939E020E94C1
:102200002810C6010E94670F80919E02F801858305
:1022100058C1AB2831F05F3F31F481E04F3F19F4F2
:1022200003C081E001C080E080FD03C081E08E2515
:1022300002C080E090E0F82FF170FF2E80FF1CC0FC
:10224000809167022091680236E0821709F417C175
:1022500090E0389FF001399FF00D1124E759FD4FB0
:102260006181561306C06081461303C06281E61285
:1022700003C001968770E9CFFE2CEE2009F421C13E
:1022800080919E02816080939E025AC0561306C0C0
:10229000491304C0E11002C0F8019FC04D875E875A
:1022A0008D859E850E94E30F882379F1EE2069F1E8
:1022B00020919E02822F82958F7090E0029774F099
:1022C0008091990290919A0298878F831986BB8694
:1022D000AA862C87CE0107960E94670F86E0F80138
:1022E000A9E9B2E001900D928A95E1F70E943610BB
:1022F0000E9428100DC0561729F14D875E878D85E5
:102300009E850E94E30F81112CC0C8010E94670FB7
:10231000FF24F394D6C0282F207F69F77A2DB98A3D
:10232000A88A6E2D89890E94E80F89E992E00E94AF
:10233000670F86E0F60111928A95E9F70E9428104E
:10234000F12CBFC04913D9CFE110D7CFF801858355
:10235000C8010E94670F86E0F60111928A95E9F79D
:10236000B0C0EE2091F220919E02822F82958F7054
:1023700090E002970CF4B2CF8091990290919A026A
:102380009A8389831B82BD82AC822E83CE01019603
:10239000A3CFE83CF10508F047C0FE2CEE2009F47D
:1023A000B4CF561330C049132EC020919E0220FD99
:1023B00021C0822F82958F70482F50E04115510522
:1023C000C9F0F80125834F30510541F08F5F982FF8
:1023D0009295907F822F8F70892B8583C8010E94F0
:1023E000670F86E0F801A9E9B2E001900D928A95A5
:1023F000E1F742C086E0F801A9E9B2E001900D9250
:102400008A95E1F75EC04D875E878D859E850E9427
:10241000E30F811163CF80919E02816080939E02C1
:10242000C8010E94670F4DC07A2DB98AA88A6E2D07
:1024300089890E94E80F86E0F60111928A95E9F7F2
:102440001BC0EE2009F461CF4D875E878D859E8588
:102450000E94E30FF82E882309F457CF86E0F80195
:10246000A9E9B2E001900D928A95E1F789E992E03D
:102470000E94F30B0E9436100E94281022C04D8744
:102480005E878D859E850E944815292F22952F7085
:10249000223028F49F7039F0811105C00BC0243020
:1024A00028F49F7049F4805E883020F0C8010E94B3
:1024B000670F9F2CF92C05C0F8019581907F99F743
:1024C000F9CF8F2D61960FB6F894DEBF0FBECDBF4A
:1024D000DF91CF911F910F91FF90EF90DF90CF9000
:1024E000BF90AF909F9008951F93CF93DF93CDB788
:1024F000DEB72C970FB6F894DEBF0FBECDBF4F836B
:10250000588769877A878B879C87CE0107960E94B8
:10251000A2108823D1F09F8188852A853B85232BB3
:1025200031F08F3F31F481E09F3F19F403C081E027
:1025300001C080E080FD47C04F81588569857A855C
:102540008B859C850E94F70F3EC086E0FE01379682
:10255000DE01119601900D928A95E1F7FF81E885E1
:102560006A857B856115710531F0EF3F31F481E0BB
:10257000FF3F19F403C081E001C080E080FD23C06B
:102580002091680230E0C901019687709927409137
:10259000670250E084179507F1F1F983EA837D83A0
:1025A0006C8396E0929FD001939FB00D1124A759A0
:1025B000BD4FFE01319601900D929A95E1F78093FF
:1025C00068020E94071016E08091670290916802ED
:1025D000891771F1189FC001112487599D4F0E94DE
:1025E000A210882329F1E09167021E9FF0011124B7
:1025F000E759FD4F408151816281738184819581CA
:102600000E94F70F8091670290E0019687709927EA
:1026100080936702D9CF0E94BB0F1092680210927C
:102620006702E9E9F2E086E0DF011D928A95E9F7A9
:102630002C960FB6F894DEBF0FBECDBFDF91CF91C1
:102640001F910895EF92FF920F931F93CF93DF9303
:102650008C01892B09F46CC0F12CEE24E394E80181
:102660002196F8018491843740F4843008F051C0F9
:10267000813081F0823019F15BC0853709F444C0A4
:10268000A8F19CE7980F903708F052C08F770E940E
:10269000550C41C00E5F1F4FFE01849190E2980FD0
:1026A000983050F48770FE2D01C0FF0F8A95EAF72D
:1026B0008F2F0E94D51514C00E94070C2DC00E5FED
:1026C0001F4FFE01849190E2980F983060F487705C
:1026D000FE2D01C0FF0F8A95EAF78F2F0E94DB15B0
:1026E0000E94001619C00E94550C16C00E5F1F4FA5
:1026F000FE01C491CC2381F08FE99FE00197F1F7AF
:1027000000C00000C150F6CF0E5F1F4FFE01F490D5
:1027100003C00E94070C8E018F2D882309F49FCFE0
:10272000EFE9FFE03197F1F700C000008150F5CFED
:10273000DF91CF911F910F91FF90EF900895089531
:1027400008950C94A0130C94A1130E94A3136093FA
:10275000D0027093D1028093D2029093D3020C9452
:10276000A50F0C94A5130F931F930091D002109105
:10277000D1022091D2023091D302602B712B822B97
:10278000932B1F910F910C94A5130F931F930091FE
:10279000D0021091D1022091D2023091D302602355
:1027A0007123822393231F910F910C94A5130F93F0
:1027B0001F930091D0021091D1022091D20230914A
:1027C000D30260277127822793271F910F910C94C2
:1027D000A5130C94A0130E94E9136093CC0270938C
:1027E000CD028093CE029093CF020C94A50F60E0AF
:1027F00070E0CB010C94EB130F931F9341E050E07A
:1028000060E070E08A019B0104C0000F111F221FCD
:10281000331F8A95D2F7C901B8011F910F910C940B
:10282000EB130F931F9341E050E060E070E004C0B1
:10283000440F551F661F771F8A95D2F78091CC02EF
:102840009091CD02A091CE02B091CF028A019B015E
:10285000082B192B2A2B3B2BC901B8011F910F9173
:102860000C94EB130F931F9341E050E060E070E095
:1028700004C0440F551F661F771F8A95D2F74095F5
:102880005095609570958091CC029091CD02A09169
:10289000CE02B091CF028A019B01082319232A237B
:1028A0003B23C901B8011F910F910C94EB130F93B7
:1028B0001F9341E050E060E070E004C0440F551FFA
:1028C000661F771F8A95D2F78091CC029091CD0236
:1028D000A091CE02B091CF028A019B01082719274F
:1028E0002A273B27C901B8011F910F910C94EB13C4
:1028F0000F931F930091CC021091CD022091CE0234
:102900003091CF02602B712B822B932B1F910F9153
:102910000C94EB130F931F930091CC021091CD02F6
:102920002091CE023091CF02602371238223932322
:102930001F910F910C94EB130F931F930091CC02F6
:102940001091CD022091CE023091CF0260277127E5
:10295000822793271F910F910C94EB1308952CE07D
:10296000929F800D1124E82FE695E695E6958770F5
:1029700051E001C0550F8A95EAF785E0E89FF00124
:102980001124E156FD4F20E030E070E04081CB01A2
:10299000022E02C0969587950A94E2F78170819580
:1029A00084278523842781932F5F3F4F253031056E
:1029B00069F708952CE0929F800D1124682F669589
:1029C00066956695982F977085E0689FB0011124F1
:1029D00040E050E080E0FB01E40FF51FE156FD4FC1
:1029E000208130E0092E02C0369527950A94E2F73F
:1029F00021703327042E01C0220F0A94EAF7822B9C
:102A00004F5F5F4F4530510531F70895BF92CF9228
:102A1000DF92EF92FF920F931F93CF93DF938C017E
:102A2000C090CC02D090CD02E090CE02F090CF02C8
:102A30008091D0029091D102A091D202B091D302A4
:102A4000C82AD92AEA2AFB2ACFE1D0E0D701C60159
:102A50000C2E04C0B695A795979587950A94D2F742
:102A600080FD04C0219790F7B12C07C0BC2EB8019F
:102A70008C2F0E944D050197A9F38B2DDF91CF91EB
:102A80001F910F91FF90EF90DF90CF90BF9008952E
:102A9000CF93DF93EC010E940615BE010E944D0505
:102AA000DF91CF9108951F93CF93DF93EB01909126
:102AB0006402992321F0CB010E94481513C088239A
:102AC00049F0CB010E940615182F682FCE010E94F5
:102AD000AF1404C0CB010E94DA14182FBE01812F5D
:102AE0000E944D05DF91CF911F9108958091D502ED
:102AF00085958595859508958091D502877008956F
:102B000082E08093D40281E080936602089510925F
:102B1000D4021092660208958091D402823019F492
:102B200081E08093D4028091D402833011F40C941C
:102B3000871508958091D402823019F483E0809340
:102B4000D4028091D402813011F40C948715089539
:102B50009091D502977081E009F480E0089580910A
:102B6000F90208959091F902892B8093F902089552
:102B700080959091F90289238093F90208958093BA
:102B8000F90208951092F90208959091F802892BA4
:102B90008093F802089580959091F802892380939C
:102BA000F80208951092F80208959091F702892B87
:102BB0008093F702089580959091F702892380937E
:102BC000F70208951092F70208958091D6020895B1
:102BD00008950C94E8150C94E9159091D602981775
:102BE00021F08093D6020C94EB1508958091D602C3
:102BF000882329F01092D60280E00C94EB150895FA
:102C0000E0910001F09101018091F9028083E0914F
:102C10000001F091010190818091F802892B80835D
:102C2000E0910001F091010190818091F702892BE0
:102C300080838091D602882381F0E0910001F09199
:102C400001019081892B8083809100019091010185
:102C50000E94111781110E94F61580910001909138
:102C600001010C94440A0C94E81598E0899F9001A6
:102C70001124262B2093D5020E9411148091D50295
:102C80008595859585950C9433161092D50280E034
:102C90000C9433162091D502809582238093D5021F
:102CA000982F977079F430E0482F082E000C550BC0
:102CB0002417350739F08595859585950E9432143E
:102CC0000C944516089580E090E00E94A81F21E032
:102CD0008C3E9E4F09F020E0822F089582E090E024
:102CE0000C94A01F83E090E00C94A01FCF9384E08D
:102CF00090E00E94A01FC82F81E290E00E94A01FD8
:102D00002C2F30E0A901582BCA01CF910895CF9301
:102D1000C92F682F84E090E00E94AE1F6C2F81E2E3
:102D200090E0CF910C94AE1FAB01BC018FE090E01E
:102D30000C94C01FAB01BC0183E190E00C94C01F58
:102D400060E070E0CB010C949A1660E070E0CB017B
:102D50000E9494160C94A0166CEE7EEF80E090E03A
:102D60000E94CC1F60E082E090E00E94AE1F60E015
:102D700083E090E00E94AE1F1092D0021092D10228
:102D80001092D2021092D30260E084E090E00E94A0
:102D9000AE1F60E081E290E00E94AE1F60E085E03F
:102DA00090E00E94AE1F60E086E090E00E94AE1FBF
:102DB0006FEF87E090E00E94AE1F40E050E0BA0164
:102DC00088E090E00E94C01F60E08DE090E00E94EB
:102DD000AE1F40E050E0BA0188E190E00E94C01FC1
:102DE00060E087E190E00E94AE1F40E050E0BA0151
:102DF0008CE190E00E94C01F60E080E290E00E94C1
:102E0000AE1F40E050E0BA0188E190E00E94C01F90
:102E10000C94A5160C94AC16682F8EE090E00C94E0
:102E2000AE1FFC01329680910C01882331F0809115
:102E30002A0387FF02C09EE101C096E080E0915026
:102E400028F021912223D9F38F5FF9CF08956623CB
:102E500051F120910C012223E9F020912A0327FF50
:102E600019C0462F4695469546954E31E0F4677059
:102E700021E030E002C0220F331F6A95E2F7FC0127
:102E8000E40FF11D828190E02823392381E0232B78
:102E900069F409C0FC01329608962191621729F065
:102EA000E817F907D1F780E0089581E008959C01C3
:102EB000FC0132969FEF80E04191461789F09F3FD9
:102EC00019F4411101C0982F8F5F8630A9F79F3FF9
:102ED00039F0F901E90FF11D97FDFA956283089524
:102EE00008959C012A5F3F4FFC014281461301C0B7
:102EF0001282019682179307B9F70895262F269517
:102F0000269526952E3168F4FC01E20FF11D6770BD
:102F100021E030E001C0220F6A95EAF78281282B78
:102F200022830895262F2695269526952E3170F416
:102F3000FC01E20FF11D677021E030E001C0220FBB
:102F40006A95EAF7209582812823228308952091AB
:102F50000C01222329F020912A0327FD0C947E17CF
:102F60000C94571720910C01222329F020912A0359
:102F700027FD0C9492170C94711720910C01FC0101
:102F80003296222331F080912A0387FF02C08EE11E
:102F900001C086E0DF011D928A95E9F70895089542
:102FA0000C94CF170C94CF17CF930E94D2170E9486
:102FB000CE020E94D017C0E08C2F0E94F403892B10
:102FC00029F4CF5FC630C1F780E001C081E0CF9126
:102FD00008950C94CF170C94E91780913003843036
:102FE00049F10E94EB1780E00E9425051092FB0238
:102FF00020E488E190E00FB6F894A89580936000F3
:103000000FBE2093600083B7817F846083BF83B746
:10301000816083BF7894889583B78E7F83BF0FB616
:10302000F894A89580916000886180936000109268
:1030300060000FBE08950C94CF170E94BB0F0E9432
:103040002B0A0E9425050C941B181F920F920FB695
:103050000F9211248F939F93AF93BF938091FB02A4
:10306000811113C08091260390912703A09128031A
:10307000B09129034196A11DB11D80932603909321
:103080002703A0932803B0932903BF91AF919F9189
:103090008F910F900FBE0F901F90189582E084BD06
:1030A00093E095BD9AEF97BD80936E0008952FB77A
:1030B000F8948091260390912703A0912803B09162
:1030C00029032FBF08959C014FB7F89480912603E0
:1030D00090912703A0912803B09129034FBF821B31
:1030E000930B089578941F920F920FB60F921124AC
:1030F0008F939F93AF93BF93809126039091270363
:10310000A0912803B09129030196A11DB11D8093C0
:10311000260390932703A0932803B0932903BF911C
:10312000AF919F918F910F900FBE0F901F901895A8
:10313000F89481E08093E00080E28093D800E9EC8D
:10314000F0E010828FE19EE40197F1F700C00000EB
:103150001DBA109268001CBC10BE1FBA10927A00F3
:1031600010926E0010926F00109271001092720017
:103170001082ECEBF0E0108214B817B81AB81DB842
:1031800010BA108215B818B81BB81EB811BA0C9432
:10319000003F08950E946316811102C00E940A1721
:1031A0000E946E168093FA020E94761690932B036B
:1031B00080932A030E947216682F70E080E090E0EE
:1031C0000E94B1136091CC027091CD028091CE0229
:1031D0009091CF020C94E91380911C0308950895F7
:1031E000CF93DF9300D01F92CDB7DEB7909130031D
:1031F000943019F589837B836A8382E08093E900A8
:103200008FEF9091E800815095FD06C095ED9A955D
:10321000F1F700008111F5CF8091E80085FF0DC026
:1032200040E050E063E070E0CE0101960E94FC1A9D
:103230008091E8008E778093E8000F900F900F90B8
:10324000DF91CF910895BC0184E00C94F018BC018B
:1032500083E00C94F018CF93DF9320910C0122238C
:1032600039F020912A0327FF03C060E222E002C068
:1032700068E021E02093E9002FEF3091E800215031
:1032800035FD06C035ED3A95F1F700002111F5CF77
:103290002091E80025FF1DC0EC0180910C018111F7
:1032A00005C040E050E068E070E003C070E040E03E
:1032B00050E0CE010E94FC1A8091E8008E77809346
:1032C000E80080E2FE01ACEFB2E001900D928A9539
:1032D000E1F7DF91CF91089580912F03811109C00B
:1032E0000E948D1C0E94EA1C8091E2008460809301
:1032F000E200089510922F030895089508950C9404
:103300001D1842E061EC81E00E94061C42E261EC83
:1033100082E00C94061C80913203833009F460C073
:1033200030F4813071F0823009F499C008958A3008
:1033300009F485C08B3009F46BC0893009F0A7C04F
:1033400020C080913103813A09F0A1C08091E8004A
:10335000877F8093E8008091350390913603892B15
:1033600021F460E28CEF92E003C060E080E090E046
:1033700070E00E94471B8091E8008B778093E80003
:10338000089580913103813209F081C08091350325
:1033900090913603029708F07AC08091E800877F09
:1033A0008093E8008091E80082FD05C080913003A1
:1033B0008111F8CF6CC02091F3008091F20090E071
:1033C000922B029729F48091F1008B7F813021F4B8
:1033D0008091F10080931C038091E8008B7753C0AB
:1033E00080913103813A09F052C080913503909168
:1033F0003603892B09F04BC08091E800877F8093CA
:10340000E8008091E80080FFFCCF80910C0136C07D
:10341000809131038132D9F5809135039091360343
:10342000892BA9F58091E800877F8093E8000E94AE
:103430003B1C8091330380930C010C94BB0F809153
:103440003103813221F58091E800877F8093E80085
:103450000E943B1C8091340380931D03089580914A
:103460003103813AA1F48091E800877F8093E800DE
:103470008091E80080FFFCCF80911D038093F100D4
:103480008091E8008E778093E8000C943B1C0895AF
:1034900084B7877F84BF0FB6F894A89580916000A9
:1034A000886180936000109260000FBE90E080E819
:1034B0000FB6F89480936100909361000FBE0E9454
:1034C000A20A0E948D1C0E94EA1C8091E200846086
:1034D0008093E20078940E947F1F0E94A80A82E0F5
:1034E00091E00E94260A80913003853069F40E94A1
:1034F000ED1780912E038823B1F30E94D4178823FF
:1035000091F30E94E61AEFCF0E94B00A0E94960A39
:103510000E94950AE8CF0C948D1A292F3327233067
:103520003105C9F060F42130310581F022303105D8
:1035300009F044C08BE390E020E532E043C0213243
:103540003105E1F02232310549F138C082E190E0E5
:103550002BE832E037C099278130910549F028F0F7
:10356000029761F5EAE2F2E005C0ECE4F2E002C0A5
:10357000EAE3F2E0849190E09F0124C061157105B7
:1035800041F061307105D1F489E090E02BE732E041
:1035900019C089E090E022E632E014C0611571059F
:1035A00041F06130710551F48DE690E02DE932E093
:1035B00009C080E490E02AE033E004C080E090E0BD
:1035C00020E030E0FA0131832083089580E189BD55
:1035D00082E189BD09B400FEFDCF8091D8008F7DC6
:1035E0008093D8008091E00082608093E000809119
:1035F000E00081FDFCCF0895CF92DF92EF92FF9221
:103600000F931F93CF93DF93EC018B017A010E94FC
:103610005A1C811133C0E114F10439F0F7018081A3
:103620009181081B190BC80FD91FC12CD12C011572
:10363000110519F18091E80085FD16C08091E80020
:103640008E778093E800E114F10449F0F70180815E
:103650009181C80ED91ED182C08285E00FC00E9420
:103660005A1C882321F30AC089918093F1000150EC
:103670001109FFEFCF1ADF0ADACF80E0DF91CF9197
:103680001F910F91FF90EF90DF90CF9008952091C0
:103690003703309138032617370748F06115710555
:1036A00039F42091E8002E772093E80001C0B90199
:1036B000FC0120E06115710579F1809130038823C8
:1036C000F1F18530F1F18091E80083FD3CC08091FB
:1036D000E80082FD2EC08091E80080FFEBCF2091B2
:1036E000F3008091F20090E0922B6115710551F08A
:1036F0008830910538F421912093F10061507109CF
:103700000196F3CF21E0089709F020E08091E800CE
:103710008E778093E800CECF2111CFCF0AC0809161
:103720003003882361F0853061F08091E80083FDEB
:103730000AC08091E80082FFF2CF80E0089582E025
:10374000089583E0089581E0089520913703309132
:1037500038032617370748F06115710539F42091B1
:10376000E8002E772093E80001C0B901FC0120E0B9
:103770006115710591F180913003882309F440C0EF
:10378000853009F43FC08091E80083FD3DC0809101
:10379000E80082FD2FC08091E80080FFE9CF2091F2
:1037A000F3008091F20090E0922B6115710559F0C1
:1037B0008830910540F424912093F10031966150B6
:1037C00071090196F2CF21E0089709F020E080917D
:1037D000E8008E778093E800CBCF2111CCCF0AC0D0
:1037E00080913003882361F0853061F08091E8009A
:1037F00083FD0AC08091E80082FFF2CF80E0089547
:1038000082E0089583E0089581E00895982F97302D
:1038100068F59093E900981739F07091EC002091C9
:10382000ED005091F00003C0242F762F50E021FDD1
:1038300002C09F5FECCF3091EB003E7F3093EB00F6
:103840003091ED003D7F3093ED003091EB00316021
:103850003093EB007093EC002093ED005093F00058
:103860002091EE0027FDE5CF80E008958F708093D2
:10387000E90081E008958091310387FF11C08091B4
:10388000E80082FD05C0809130038111F8CF11C09E
:103890008091E8008B770BC080913003882349F03A
:1038A0008091E80080FFF8CF8091E8008E778093C8
:1038B000E80008952091E4003091E50095E64091FC
:1038C000EC00842F817040FF23C08091E80080FDD0
:1038D0001DC080913003882399F0853099F0809144
:1038E000EB0085FD11C04091E4005091E5002417E4
:1038F000350729F3915011F09A01E1CF84E0089542
:1039000082E0089583E0089581E0089580E00895BD
:103910004091E80042FFDDCF08950E94FB1C0E9409
:10392000031DE0EEF0E0808181608083E8EDF0E04F
:1039300080818F77808319BCA7EDB0E08C918E7F5A
:103940008C9380818F7E808310922F0308950F9334
:103950001F93CF93DF930E94FB1C0E94031DC8EDB1
:10396000D0E088818F778883888180688883888188
:103970008F7D888319BC1092300310922C03109213
:103980002E0310922D0300EE10E0F80180818B7F52
:10399000808388818160888342E060E080E00E94CB
:1039A000061CE1EEF0E080818E7F8083E2EEF0E0A5
:1039B000808181608083808188608083F80180813C
:1039C0008E7F8083888180618883DF91CF911F9172
:1039D0000F910895E8EDF0E080818F7E8083E7ED20
:1039E000F0E080818160808384E082BF81E0809309
:1039F0002F030C94A71CE8EDF0E080818E7F80837C
:103A00001092E20008951092DA001092E1000895F9
:103A10001F920F920FB60F9211242F933F934F9343
:103A20005F936F937F938F939F93AF93BF93EF9326
:103A3000FF938091E10082FF0BC08091E20082FF42
:103A400007C08091E1008B7F8093E1000E947E1F80
:103A50008091DA0080FF1FC08091D80080FF1BC0DA
:103A60008091DA008E7F8093DA008091D90080FF08
:103A70000DC080E189BD82E189BD09B400FEFDCFA2
:103A800081E0809330030E946C1905C019BC10922C
:103A900030030E947A198091E10080FF19C0809163
:103AA000E20080FF15C08091E2008E7F8093E200EB
:103AB0008091E20080618093E2008091D800806272
:103AC0008093D80019BC85E0809330030E947E1952
:103AD0008091E10084FF30C08091E20084FF2CC01F
:103AE00080E189BD82E189BD09B400FEFDCF8091EE
:103AF000D8008F7D8093D8008091E1008F7E8093E5
:103B0000E1008091E2008F7E8093E2008091E200EC
:103B100081608093E20080912C03882311F084E07F
:103B200007C08091E30087FD02C081E001C083E00F
:103B3000809330030E947F198091E10083FF29C0A8
:103B40008091E20083FF25C08091E100877F809310
:103B5000E10082E08093300310922C038091E10019
:103B60008E7F8093E1008091E2008E7F8093E2005F
:103B70008091E20080618093E20042E060E080E0BA
:103B80000E94061C8091F00088608093F0000E94E3
:103B90007D19FF91EF91BF91AF919F918F917F918F
:103BA0006F915F914F913F912F910F900FBE0F90AA
:103BB0001F9018951F920F920FB60F9211242F93FA
:103BC0003F934F935F936F937F938F939F93AF93A5
:103BD000BF93CF93DF93EF93FF93C091E900CF7032
:103BE0008091EC00D82FD17080FDD0E81092E900D0
:103BF0008091F000877F8093F00078940E941E1ED1
:103C00001092E9008091F00088608093F000CD2B45
:103C1000CF70C093E900FF91EF91DF91CF91BF91F9
:103C2000AF919F918F917F916F915F914F913F9154
:103C30002F910F900FBE0F901F9018951F93CF9349
:103C4000DF93CDB7DEB7AA970FB6F894DEBF0FBEED
:103C5000CDBFE1E3F3E08091F100819323E0E9330C
:103C6000F207C9F70E948B198091E80083FF2EC1EB
:103C70008091310390913203492F50E04A30510531
:103C800008F024C1FA01E558FF4F0C949A1F8038C0
:103C900021F0823809F01AC108C080912D0390915B
:103CA0002E03992389F082600FC0809135038F70B5
:103CB000873008F00BC18093E9008091EB0085FB11
:103CC000882780F91092E9009091E800977F9093FF
:103CD000E8008093F1001092F100D1C0282F2D7FD1
:103CE00009F0F4C0882319F0823061F0EFC08091B0
:103CF0003303813009F0EAC0933009F080E080930B
:103D00002E032EC08091330381112AC08091350388
:103D10008F702FEF280F263008F0D8C08093E9006D
:103D20002091EB0020FF1CC0933021F48091EB0028
:103D3000806214C09091EB0090619093EB0021E0C1
:103D400030E0A90102C0440F551F8A95E2F7409365
:103D5000EA001092EA008091EB0088608093EB000B
:103D60001092E9008091E800877F8093E8000E942C
:103D70003B1CACC08111AAC0109133031F77809106
:103D8000E3008078812B8093E3008091E800877FB7
:103D90008093E8000E943B1C8091E80080FFFCCFEC
:103DA0008091E30080688093E300111102C082E0FB
:103DB00001C083E08093300389C08058823008F0CE
:103DC00085C080913303909134038C3D53E0950777
:103DD00079F583E08A838AE289834FB7F894DE011C
:103DE000139620E03EE051E2E32FF0E050935700BD
:103DF000E49120FF03C0E295EF703F5FEF708E2FDC
:103E000090E0EA3010F0C79601C0C0968D939D9364
:103E10002F5F243149F74FBF8091E800877F80935F
:103E2000E8006AE270E0CE0101960E94471B16C0CE
:103E30006091350370913603AE014F5F5F4F0E9472
:103E40008B1ABC01892B09F441C09091E800977F3F
:103E50009093E80089819A810E94A51B8091E800D7
:103E60008B778093E80032C0803881F58091E8003C
:103E7000877F8093E80080912C038093F1008091EC
:103E8000E8008E7772CF811121C080913303909129
:103E9000340399270297D4F48091E800877F8093B8
:103EA000E8008091330380932C030E943B1C809197
:103EB0002C03811106C08091E30087FD02C081E0E0
:103EC00001C084E0809330030E9481198091E80052
:103ED00083FF0AC08091E800877F8093E80080918B
:103EE000EB0080628093EB00AA960FB6F894DEBFD9
:103EF0000FBECDBFDF91CF911F9108950895CF934D
:103F0000809130038823A1F0C091E900CF70909197
:103F1000EC00892F817090FD80E8C82B1092E90099
:103F20008091E80083FD0E941E1ECF70C093E900BF
:103F3000CF910895EE0FFF1F0590F491E02D0994A5
:103F4000F999FECF92BD81BDF89A992780B5089561
:103F5000A8E1B0E042E050E00C94D41F262FF9997C
:103F6000FECF92BD81BDF89A019700B4021639F0D8
:103F70001FBA20BD0FB6F894FA9AF99A0FBE0895A9
:103F80000396272F0E94AF1F0E94AE1F252F0E946D
:103F9000AF1F242F0C94AF1F0196272F0E94AF1F35
:103FA0000C94AE1FDC01CB01FC01F999FECF06C0D9
:103FB000F2BDE1BDF89A319600B40D9241505040E7
:083FC000B8F70895F894FFCF53
:103FC800D702EC182B19EF18271923190100010241
:103FD80003040501010101010100000000000000C7
:103FE8000000000000313233929366F0F1F4F5F6E8
:103FF800F7000B000A00090008000700060005008A
:10400800040003000200010000010B010B0109017B
:10401800080107010601050104010301020101016C
:1040280000020B020C02090208020702060205023E
:10403800040203020202010200030B030D03090339
:10404800080307030603050304030303020301032C
:1040580000040B040E0409040804070406040504FC
:10406800040403040204010400050B050F050905F7
:1040780008050705060505050405030502050105EC
:1040880000E200E900EA00B500B600B700CD008301
:1040980001CC008A01920194012102230224022505
:1040A80002260227022A02B300B4006F00700081C2
:1040B8008283E200E900EA00B500B600B700CD004F
:1040C8008301CC008A019201940121022302240277
:1040D8002502260227022A02B300B4006F007000EE
:0440E800818283004E
:00000001FF
